{"abi":[{"type":"constructor","inputs":[],"stateMutability":"nonpayable"},{"type":"function","name":"acceptGovernance","inputs":[],"outputs":[],"stateMutability":"nonpayable"},{"type":"function","name":"authorizedAddresses","inputs":[{"name":"","type":"address","internalType":"address"}],"outputs":[{"name":"","type":"bool","internalType":"bool"}],"stateMutability":"view"},{"type":"function","name":"baseFeeProvider","inputs":[],"outputs":[{"name":"","type":"address","internalType":"address"}],"stateMutability":"view"},{"type":"function","name":"governance","inputs":[],"outputs":[{"name":"","type":"address","internalType":"address"}],"stateMutability":"view"},{"type":"function","name":"isCurrentBaseFeeAcceptable","inputs":[],"outputs":[{"name":"","type":"bool","internalType":"bool"}],"stateMutability":"view"},{"type":"function","name":"manualBaseFeeBool","inputs":[],"outputs":[{"name":"","type":"bool","internalType":"bool"}],"stateMutability":"view"},{"type":"function","name":"maxAcceptableBaseFee","inputs":[],"outputs":[{"name":"","type":"uint256","internalType":"uint256"}],"stateMutability":"view"},{"type":"function","name":"pendingGovernance","inputs":[],"outputs":[{"name":"","type":"address","internalType":"address"}],"stateMutability":"view"},{"type":"function","name":"setAuthorized","inputs":[{"name":"_target","type":"address","internalType":"address"},{"name":"_value","type":"bool","internalType":"bool"}],"outputs":[],"stateMutability":"nonpayable"},{"type":"function","name":"setBaseFeeProvider","inputs":[{"name":"_baseFeeProvider","type":"address","internalType":"address"}],"outputs":[],"stateMutability":"nonpayable"},{"type":"function","name":"setManualBaseFeeBool","inputs":[{"name":"_manualBaseFeeBool","type":"bool","internalType":"bool"}],"outputs":[],"stateMutability":"nonpayable"},{"type":"function","name":"setMaxAcceptableBaseFee","inputs":[{"name":"_maxAcceptableBaseFee","type":"uint256","internalType":"uint256"}],"outputs":[],"stateMutability":"nonpayable"},{"type":"function","name":"setPendingGovernance","inputs":[{"name":"_governance","type":"address","internalType":"address"}],"outputs":[],"stateMutability":"nonpayable"},{"type":"event","name":"NewGovernance","inputs":[{"name":"governance","type":"address","indexed":true,"internalType":"address"}],"anonymous":false},{"type":"event","name":"NewProvider","inputs":[{"name":"provider","type":"address","indexed":true,"internalType":"address"}],"anonymous":false},{"type":"event","name":"UpdatedAuthorization","inputs":[{"name":"target","type":"address","indexed":true,"internalType":"address"},{"name":"authorized","type":"bool","indexed":false,"internalType":"bool"}],"anonymous":false},{"type":"event","name":"UpdatedManualBaseFee","inputs":[{"name":"manualFee","type":"bool","indexed":false,"internalType":"bool"}],"anonymous":false},{"type":"event","name":"UpdatedMaxBaseFee","inputs":[{"name":"baseFee","type":"uint256","indexed":false,"internalType":"uint256"}],"anonymous":false}],"bytecode":{"object":"0x608060405234801561001057600080fd5b50600280546001600160a01b031916331790556005805460ff191660011790556106408061003f6000396000f3fe608060405234801561001057600080fd5b50600436106100cf5760003560e01c80634f62fb861161008c578063bf95ab4911610066578063bf95ab4914610192578063e10efcdd146101a9578063f19e207e146101bc578063f39c38a0146101df57600080fd5b80634f62fb861461015f5780635aa6e6751461016c578063711bf9b21461017f57600080fd5b80630abb6035146100d4578063238efcbc146100e9578063244edd79146100f157806334a9e75c146101045780633909e1ae1461012157806347003cb714610134575b600080fd5b6100e76100e2366004610558565b6101f2565b005b6100e761021c565b6100e76100ff366004610558565b6102a9565b61010c6102f9565b60405190151581526020015b60405180910390f35b6100e761012f36600461058a565b610397565b600054610147906001600160a01b031681565b6040516001600160a01b039091168152602001610118565b60055461010c9060ff1681565b600254610147906001600160a01b031681565b6100e761018d3660046105a5565b6103e7565b61019b60015481565b604051908152602001610118565b6100e76101b73660046105d8565b61044e565b61010c6101ca366004610558565b60046020526000908152604090205460ff1681565b600354610147906001600160a01b031681565b6101fa61048b565b600380546001600160a01b0319166001600160a01b0392909216919091179055565b6003546001600160a01b031633146102695760405162461bcd60e51b815260206004820152600b60248201526a08585d5d1a1bdc9a5e995960aa1b60448201526064015b60405180910390fd5b600280546001600160a01b031916339081179091556040517f4f386975ea1c2f7cf1845b08bee00626fbb624ecad16254d63d9bb9ba86526de90600090a2565b6102b161048b565b600080546001600160a01b0319166001600160a01b038316908117825560405190917f3ac461748dd21b3c9c3faa9c85712c1a04cd3eebcfee2a026acaaa82b1094ec091a250565b600080546001600160a01b0316610314575060055460ff1690565b60008060009054906101000a90046001600160a01b03166001600160a01b0316639436dce46040518163ffffffff1660e01b8152600401602060405180830381865afa158015610368573d6000803e3d6000fd5b505050506040513d601f19601f8201168201806040525081019061038c91906105f1565b600154101592915050565b61039f6104d5565b6005805460ff19168215159081179091556040519081527f182fa601a3bf72179118750b74939977b97571ddef8172b735bca99e693feca6906020015b60405180910390a150565b6103ef61048b565b6001600160a01b038216600081815260046020908152604091829020805460ff191685151590811790915591519182527f8d6437292b994fc738dc2a2d36adca80c5c3516dde0ca63fedcbb70101b21a31910160405180910390a25050565b6104566104d5565b60018190556040518181527f7dcfcc373856c123e2e781d90a483279c6f026653a768c30832d6dc9f749a4af906020016103dc565b6002546001600160a01b031633146104d35760405162461bcd60e51b815260206004820152600b60248201526a21676f7665726e616e636560a81b6044820152606401610260565b565b3360009081526004602052604090205460ff1615156001148061050257506002546001600160a01b031633145b6104d35760405162461bcd60e51b815260206004820152600b60248201526a08585d5d1a1bdc9a5e995960aa1b6044820152606401610260565b80356001600160a01b038116811461055357600080fd5b919050565b60006020828403121561056a57600080fd5b6105738261053c565b9392505050565b8035801515811461055357600080fd5b60006020828403121561059c57600080fd5b6105738261057a565b600080604083850312156105b857600080fd5b6105c18361053c565b91506105cf6020840161057a565b90509250929050565b6000602082840312156105ea57600080fd5b5035919050565b60006020828403121561060357600080fd5b505191905056fea26469706673582212209efaf18af543af358c4774f1894f8814ca0873f8a719c973e1c7a45ead1a1e7b64736f6c634300080f0033","linkReferences":{}},"methodIdentifiers":{"acceptGovernance()":"238efcbc","authorizedAddresses(address)":"f19e207e","baseFeeProvider()":"47003cb7","governance()":"5aa6e675","isCurrentBaseFeeAcceptable()":"34a9e75c","manualBaseFeeBool()":"4f62fb86","maxAcceptableBaseFee()":"bf95ab49","pendingGovernance()":"f39c38a0","setAuthorized(address,bool)":"711bf9b2","setBaseFeeProvider(address)":"244edd79","setManualBaseFeeBool(bool)":"3909e1ae","setMaxAcceptableBaseFee(uint256)":"e10efcdd","setPendingGovernance(address)":"0abb6035"},"id":26}