{"abi":[{"type":"constructor","inputs":[],"stateMutability":"nonpayable"},{"type":"function","name":"acceptGovernance","inputs":[],"outputs":[],"stateMutability":"nonpayable"},{"type":"function","name":"authorizedAddresses","inputs":[{"name":"","type":"address","internalType":"address"}],"outputs":[{"name":"","type":"bool","internalType":"bool"}],"stateMutability":"view"},{"type":"function","name":"baseFeeProvider","inputs":[],"outputs":[{"name":"","type":"address","internalType":"address"}],"stateMutability":"view"},{"type":"function","name":"governance","inputs":[],"outputs":[{"name":"","type":"address","internalType":"address"}],"stateMutability":"view"},{"type":"function","name":"isCurrentBaseFeeAcceptable","inputs":[],"outputs":[{"name":"","type":"bool","internalType":"bool"}],"stateMutability":"view"},{"type":"function","name":"manualBaseFeeBool","inputs":[],"outputs":[{"name":"","type":"bool","internalType":"bool"}],"stateMutability":"view"},{"type":"function","name":"maxAcceptableBaseFee","inputs":[],"outputs":[{"name":"","type":"uint256","internalType":"uint256"}],"stateMutability":"view"},{"type":"function","name":"pendingGovernance","inputs":[],"outputs":[{"name":"","type":"address","internalType":"address"}],"stateMutability":"view"},{"type":"function","name":"setAuthorized","inputs":[{"name":"_target","type":"address","internalType":"address"},{"name":"_value","type":"bool","internalType":"bool"}],"outputs":[],"stateMutability":"nonpayable"},{"type":"function","name":"setBaseFeeProvider","inputs":[{"name":"_baseFeeProvider","type":"address","internalType":"address"}],"outputs":[],"stateMutability":"nonpayable"},{"type":"function","name":"setManualBaseFeeBool","inputs":[{"name":"_manualBaseFeeBool","type":"bool","internalType":"bool"}],"outputs":[],"stateMutability":"nonpayable"},{"type":"function","name":"setMaxAcceptableBaseFee","inputs":[{"name":"_maxAcceptableBaseFee","type":"uint256","internalType":"uint256"}],"outputs":[],"stateMutability":"nonpayable"},{"type":"function","name":"setPendingGovernance","inputs":[{"name":"_governance","type":"address","internalType":"address"}],"outputs":[],"stateMutability":"nonpayable"},{"type":"event","name":"NewGovernance","inputs":[{"name":"governance","type":"address","indexed":true,"internalType":"address"}],"anonymous":false},{"type":"event","name":"NewProvider","inputs":[{"name":"provider","type":"address","indexed":true,"internalType":"address"}],"anonymous":false},{"type":"event","name":"UpdatedAuthorization","inputs":[{"name":"target","type":"address","indexed":true,"internalType":"address"},{"name":"authorized","type":"bool","indexed":false,"internalType":"bool"}],"anonymous":false},{"type":"event","name":"UpdatedManualBaseFee","inputs":[{"name":"manualFee","type":"bool","indexed":false,"internalType":"bool"}],"anonymous":false},{"type":"event","name":"UpdatedMaxBaseFee","inputs":[{"name":"baseFee","type":"uint256","indexed":false,"internalType":"uint256"}],"anonymous":false}],"bytecode":{"object":"0x608060405234801561001057600080fd5b5033600260006101000a81548173ffffffffffffffffffffffffffffffffffffffff021916908373ffffffffffffffffffffffffffffffffffffffff1602179055506001600560006101000a81548160ff021916908315150217905550610c408061007c6000396000f3fe608060405234801561001057600080fd5b50600436106100cf5760003560e01c80634f62fb861161008c578063bf95ab4911610066578063bf95ab49146101c6578063e10efcdd146101e4578063f19e207e14610200578063f39c38a014610230576100cf565b80634f62fb861461016e5780635aa6e6751461018c578063711bf9b2146101aa576100cf565b80630abb6035146100d4578063238efcbc146100f0578063244edd79146100fa57806334a9e75c146101165780633909e1ae1461013457806347003cb714610150575b600080fd5b6100ee60048036038101906100e9919061092c565b61024e565b005b6100f861029a565b005b610114600480360381019061010f919061092c565b6103b0565b005b61011e61043e565b60405161012b9190610974565b60405180910390f35b61014e600480360381019061014991906109bb565b61054b565b005b6101586105a7565b60405161016591906109f7565b60405180910390f35b6101766105cb565b6040516101839190610974565b60405180910390f35b6101946105de565b6040516101a191906109f7565b60405180910390f35b6101c460048036038101906101bf9190610a12565b610604565b005b6101ce6106b5565b6040516101db9190610a6b565b60405180910390f35b6101fe60048036038101906101f99190610ab2565b6106bb565b005b61021a6004803603810190610215919061092c565b610704565b6040516102279190610974565b60405180910390f35b610238610724565b60405161024591906109f7565b60405180910390f35b61025661074a565b80600360006101000a81548173ffffffffffffffffffffffffffffffffffffffff021916908373ffffffffffffffffffffffffffffffffffffffff16021790555050565b600360009054906101000a900473ffffffffffffffffffffffffffffffffffffffff1673ffffffffffffffffffffffffffffffffffffffff163373ffffffffffffffffffffffffffffffffffffffff161461032a576040517f08c379a000000000000000000000000000000000000000000000000000000000815260040161032190610b3c565b60405180910390fd5b33600260006101000a81548173ffffffffffffffffffffffffffffffffffffffff021916908373ffffffffffffffffffffffffffffffffffffffff1602179055503373ffffffffffffffffffffffffffffffffffffffff167f4f386975ea1c2f7cf1845b08bee00626fbb624ecad16254d63d9bb9ba86526de60405160405180910390a2565b6103b861074a565b806000806101000a81548173ffffffffffffffffffffffffffffffffffffffff021916908373ffffffffffffffffffffffffffffffffffffffff1602179055508073ffffffffffffffffffffffffffffffffffffffff167f3ac461748dd21b3c9c3faa9c85712c1a04cd3eebcfee2a026acaaa82b1094ec060405160405180910390a250565b60008073ffffffffffffffffffffffffffffffffffffffff1660008054906101000a900473ffffffffffffffffffffffffffffffffffffffff1673ffffffffffffffffffffffffffffffffffffffff16036104aa57600560009054906101000a900460ff169050610548565b60008060009054906101000a900473ffffffffffffffffffffffffffffffffffffffff1673ffffffffffffffffffffffffffffffffffffffff16639436dce46040518163ffffffff1660e01b8152600401602060405180830381865afa158015610518573d6000803e3d6000fd5b505050506040513d601f19601f8201168201806040525081019061053c9190610b71565b90506001548111159150505b90565b6105536107dc565b80600560006101000a81548160ff0219169083151502179055507f182fa601a3bf72179118750b74939977b97571ddef8172b735bca99e693feca68160405161059c9190610974565b60405180910390a150565b60008054906101000a900473ffffffffffffffffffffffffffffffffffffffff1681565b600560009054906101000a900460ff1681565b600260009054906101000a900473ffffffffffffffffffffffffffffffffffffffff1681565b61060c61074a565b80600460008473ffffffffffffffffffffffffffffffffffffffff1673ffffffffffffffffffffffffffffffffffffffff16815260200190815260200160002060006101000a81548160ff0219169083151502179055508173ffffffffffffffffffffffffffffffffffffffff167f8d6437292b994fc738dc2a2d36adca80c5c3516dde0ca63fedcbb70101b21a31826040516106a99190610974565b60405180910390a25050565b60015481565b6106c36107dc565b806001819055507f7dcfcc373856c123e2e781d90a483279c6f026653a768c30832d6dc9f749a4af816040516106f99190610a6b565b60405180910390a150565b60046020528060005260406000206000915054906101000a900460ff1681565b600360009054906101000a900473ffffffffffffffffffffffffffffffffffffffff1681565b600260009054906101000a900473ffffffffffffffffffffffffffffffffffffffff1673ffffffffffffffffffffffffffffffffffffffff163373ffffffffffffffffffffffffffffffffffffffff16146107da576040517f08c379a00000000000000000000000000000000000000000000000000000000081526004016107d190610bea565b60405180910390fd5b565b60011515600460003373ffffffffffffffffffffffffffffffffffffffff1673ffffffffffffffffffffffffffffffffffffffff16815260200190815260200160002060009054906101000a900460ff16151514806108885750600260009054906101000a900473ffffffffffffffffffffffffffffffffffffffff1673ffffffffffffffffffffffffffffffffffffffff163373ffffffffffffffffffffffffffffffffffffffff16145b6108c7576040517f08c379a00000000000000000000000000000000000000000000000000000000081526004016108be90610b3c565b60405180910390fd5b565b600080fd5b600073ffffffffffffffffffffffffffffffffffffffff82169050919050565b60006108f9826108ce565b9050919050565b610909816108ee565b811461091457600080fd5b50565b60008135905061092681610900565b92915050565b600060208284031215610942576109416108c9565b5b600061095084828501610917565b91505092915050565b60008115159050919050565b61096e81610959565b82525050565b60006020820190506109896000830184610965565b92915050565b61099881610959565b81146109a357600080fd5b50565b6000813590506109b58161098f565b92915050565b6000602082840312156109d1576109d06108c9565b5b60006109df848285016109a6565b91505092915050565b6109f1816108ee565b82525050565b6000602082019050610a0c60008301846109e8565b92915050565b60008060408385031215610a2957610a286108c9565b5b6000610a3785828601610917565b9250506020610a48858286016109a6565b9150509250929050565b6000819050919050565b610a6581610a52565b82525050565b6000602082019050610a806000830184610a5c565b92915050565b610a8f81610a52565b8114610a9a57600080fd5b50565b600081359050610aac81610a86565b92915050565b600060208284031215610ac857610ac76108c9565b5b6000610ad684828501610a9d565b91505092915050565b600082825260208201905092915050565b7f21617574686f72697a6564000000000000000000000000000000000000000000600082015250565b6000610b26600b83610adf565b9150610b3182610af0565b602082019050919050565b60006020820190508181036000830152610b5581610b19565b9050919050565b600081519050610b6b81610a86565b92915050565b600060208284031215610b8757610b866108c9565b5b6000610b9584828501610b5c565b91505092915050565b7f21676f7665726e616e6365000000000000000000000000000000000000000000600082015250565b6000610bd4600b83610adf565b9150610bdf82610b9e565b602082019050919050565b60006020820190508181036000830152610c0381610bc7565b905091905056fea26469706673582212201eaa466d7ab90dacea29c4114e44750fae75050ed82b937da0d09228951c747b64736f6c634300080f0033","linkReferences":{}},"methodIdentifiers":{"acceptGovernance()":"238efcbc","authorizedAddresses(address)":"f19e207e","baseFeeProvider()":"47003cb7","governance()":"5aa6e675","isCurrentBaseFeeAcceptable()":"34a9e75c","manualBaseFeeBool()":"4f62fb86","maxAcceptableBaseFee()":"bf95ab49","pendingGovernance()":"f39c38a0","setAuthorized(address,bool)":"711bf9b2","setBaseFeeProvider(address)":"244edd79","setManualBaseFeeBool(bool)":"3909e1ae","setMaxAcceptableBaseFee(uint256)":"e10efcdd","setPendingGovernance(address)":"0abb6035"},"id":8}