{"abi":[{"type":"constructor","inputs":[{"name":"_asset","type":"address","internalType":"contract IERC20Metadata"},{"name":"_name","type":"string","internalType":"string"},{"name":"_symbol","type":"string","internalType":"string"}],"stateMutability":"nonpayable"},{"type":"function","name":"MAX_BPS","inputs":[],"outputs":[{"name":"","type":"uint256","internalType":"uint256"}],"stateMutability":"view"},{"type":"function","name":"addStrategy","inputs":[{"name":"_strategy","type":"address","internalType":"address"},{"name":"_debtRatio","type":"uint256","internalType":"uint256"},{"name":"_minDebtPerHarvest","type":"uint256","internalType":"uint256"},{"name":"_maxDebtPerHarvest","type":"uint256","internalType":"uint256"},{"name":"_performanceFee","type":"uint256","internalType":"uint256"}],"outputs":[],"stateMutability":"nonpayable"},{"type":"function","name":"allowance","inputs":[{"name":"owner","type":"address","internalType":"address"},{"name":"spender","type":"address","internalType":"address"}],"outputs":[{"name":"","type":"uint256","internalType":"uint256"}],"stateMutability":"view"},{"type":"function","name":"apiVersion","inputs":[],"outputs":[{"name":"","type":"string","internalType":"string"}],"stateMutability":"pure"},{"type":"function","name":"approve","inputs":[{"name":"spender","type":"address","internalType":"address"},{"name":"amount","type":"uint256","internalType":"uint256"}],"outputs":[{"name":"","type":"bool","internalType":"bool"}],"stateMutability":"nonpayable"},{"type":"function","name":"asset","inputs":[],"outputs":[{"name":"","type":"address","internalType":"address"}],"stateMutability":"view"},{"type":"function","name":"balanceOf","inputs":[{"name":"account","type":"address","internalType":"address"}],"outputs":[{"name":"","type":"uint256","internalType":"uint256"}],"stateMutability":"view"},{"type":"function","name":"convertToAssets","inputs":[{"name":"shares","type":"uint256","internalType":"uint256"}],"outputs":[{"name":"assets","type":"uint256","internalType":"uint256"}],"stateMutability":"view"},{"type":"function","name":"convertToShares","inputs":[{"name":"assets","type":"uint256","internalType":"uint256"}],"outputs":[{"name":"shares","type":"uint256","internalType":"uint256"}],"stateMutability":"view"},{"type":"function","name":"creditAvailable","inputs":[],"outputs":[{"name":"","type":"uint256","internalType":"uint256"}],"stateMutability":"pure"},{"type":"function","name":"debtOutstanding","inputs":[],"outputs":[{"name":"","type":"uint256","internalType":"uint256"}],"stateMutability":"pure"},{"type":"function","name":"decimals","inputs":[],"outputs":[{"name":"","type":"uint8","internalType":"uint8"}],"stateMutability":"view"},{"type":"function","name":"decreaseAllowance","inputs":[{"name":"spender","type":"address","internalType":"address"},{"name":"subtractedValue","type":"uint256","internalType":"uint256"}],"outputs":[{"name":"","type":"bool","internalType":"bool"}],"stateMutability":"nonpayable"},{"type":"function","name":"deposit","inputs":[{"name":"amount","type":"uint256","internalType":"uint256"},{"name":"recipient","type":"address","internalType":"address"}],"outputs":[{"name":"","type":"uint256","internalType":"uint256"}],"stateMutability":"nonpayable"},{"type":"function","name":"deposit","inputs":[{"name":"amount","type":"uint256","internalType":"uint256"}],"outputs":[{"name":"","type":"uint256","internalType":"uint256"}],"stateMutability":"nonpayable"},{"type":"function","name":"depositLimit","inputs":[],"outputs":[{"name":"","type":"uint256","internalType":"uint256"}],"stateMutability":"pure"},{"type":"function","name":"executeXcm","inputs":[{"name":"destination","type":"bytes","internalType":"bytes"},{"name":"message","type":"bytes","internalType":"bytes"}],"outputs":[],"stateMutability":"nonpayable"},{"type":"function","name":"expectedReturn","inputs":[],"outputs":[{"name":"","type":"uint256","internalType":"uint256"}],"stateMutability":"pure"},{"type":"function","name":"governance","inputs":[],"outputs":[{"name":"","type":"address","internalType":"address"}],"stateMutability":"view"},{"type":"function","name":"guardian","inputs":[],"outputs":[{"name":"","type":"address","internalType":"address"}],"stateMutability":"view"},{"type":"function","name":"increaseAllowance","inputs":[{"name":"spender","type":"address","internalType":"address"},{"name":"addedValue","type":"uint256","internalType":"uint256"}],"outputs":[{"name":"","type":"bool","internalType":"bool"}],"stateMutability":"nonpayable"},{"type":"function","name":"management","inputs":[],"outputs":[{"name":"","type":"address","internalType":"address"}],"stateMutability":"view"},{"type":"function","name":"maxDeposit","inputs":[{"name":"","type":"address","internalType":"address"}],"outputs":[{"name":"","type":"uint256","internalType":"uint256"}],"stateMutability":"view"},{"type":"function","name":"maxMint","inputs":[{"name":"","type":"address","internalType":"address"}],"outputs":[{"name":"","type":"uint256","internalType":"uint256"}],"stateMutability":"view"},{"type":"function","name":"maxRedeem","inputs":[{"name":"owner","type":"address","internalType":"address"}],"outputs":[{"name":"","type":"uint256","internalType":"uint256"}],"stateMutability":"view"},{"type":"function","name":"maxWithdraw","inputs":[{"name":"owner","type":"address","internalType":"address"}],"outputs":[{"name":"","type":"uint256","internalType":"uint256"}],"stateMutability":"view"},{"type":"function","name":"mint","inputs":[{"name":"shares","type":"uint256","internalType":"uint256"},{"name":"receiver","type":"address","internalType":"address"}],"outputs":[{"name":"","type":"uint256","internalType":"uint256"}],"stateMutability":"nonpayable"},{"type":"function","name":"name","inputs":[],"outputs":[{"name":"","type":"string","internalType":"string"}],"stateMutability":"view"},{"type":"function","name":"owner","inputs":[],"outputs":[{"name":"","type":"address","internalType":"address"}],"stateMutability":"view"},{"type":"function","name":"performanceFee","inputs":[],"outputs":[{"name":"","type":"uint256","internalType":"uint256"}],"stateMutability":"view"},{"type":"function","name":"previewDeposit","inputs":[{"name":"assets","type":"uint256","internalType":"uint256"}],"outputs":[{"name":"","type":"uint256","internalType":"uint256"}],"stateMutability":"view"},{"type":"function","name":"previewMint","inputs":[{"name":"shares","type":"uint256","internalType":"uint256"}],"outputs":[{"name":"","type":"uint256","internalType":"uint256"}],"stateMutability":"view"},{"type":"function","name":"previewRedeem","inputs":[{"name":"shares","type":"uint256","internalType":"uint256"}],"outputs":[{"name":"","type":"uint256","internalType":"uint256"}],"stateMutability":"view"},{"type":"function","name":"previewWithdraw","inputs":[{"name":"assets","type":"uint256","internalType":"uint256"}],"outputs":[{"name":"","type":"uint256","internalType":"uint256"}],"stateMutability":"view"},{"type":"function","name":"pricePerShare","inputs":[],"outputs":[{"name":"","type":"uint256","internalType":"uint256"}],"stateMutability":"view"},{"type":"function","name":"redeem","inputs":[{"name":"shares","type":"uint256","internalType":"uint256"},{"name":"receiver","type":"address","internalType":"address"},{"name":"owner","type":"address","internalType":"address"}],"outputs":[{"name":"","type":"uint256","internalType":"uint256"}],"stateMutability":"nonpayable"},{"type":"function","name":"renounceOwnership","inputs":[],"outputs":[],"stateMutability":"nonpayable"},{"type":"function","name":"report","inputs":[{"name":"_gain","type":"uint256","internalType":"uint256"},{"name":"_loss","type":"uint256","internalType":"uint256"},{"name":"_debtPayment","type":"uint256","internalType":"uint256"}],"outputs":[{"name":"","type":"uint256","internalType":"uint256"}],"stateMutability":"nonpayable"},{"type":"function","name":"reportWithProof","inputs":[{"name":"_totalAssets","type":"uint256","internalType":"uint256"},{"name":"pA","type":"uint256[2]","internalType":"uint256[2]"},{"name":"pB","type":"uint256[2][2]","internalType":"uint256[2][2]"},{"name":"pC","type":"uint256[2]","internalType":"uint256[2]"},{"name":"pubSignals","type":"uint256[5]","internalType":"uint256[5]"}],"outputs":[],"stateMutability":"nonpayable"},{"type":"function","name":"setVerifier","inputs":[{"name":"_verifier","type":"address","internalType":"address"}],"outputs":[],"stateMutability":"nonpayable"},{"type":"function","name":"strategies","inputs":[{"name":"","type":"address","internalType":"address"}],"outputs":[{"name":"performanceFee","type":"uint256","internalType":"uint256"},{"name":"activation","type":"uint256","internalType":"uint256"},{"name":"debtRatio","type":"uint256","internalType":"uint256"},{"name":"minDebtPerHarvest","type":"uint256","internalType":"uint256"},{"name":"maxDebtPerHarvest","type":"uint256","internalType":"uint256"},{"name":"lastReport","type":"uint256","internalType":"uint256"},{"name":"totalDebt","type":"uint256","internalType":"uint256"},{"name":"totalGain","type":"uint256","internalType":"uint256"},{"name":"totalLoss","type":"uint256","internalType":"uint256"}],"stateMutability":"view"},{"type":"function","name":"symbol","inputs":[],"outputs":[{"name":"","type":"string","internalType":"string"}],"stateMutability":"view"},{"type":"function","name":"token","inputs":[],"outputs":[{"name":"","type":"address","internalType":"address"}],"stateMutability":"view"},{"type":"function","name":"totalAssets","inputs":[],"outputs":[{"name":"","type":"uint256","internalType":"uint256"}],"stateMutability":"view"},{"type":"function","name":"totalDebt","inputs":[],"outputs":[{"name":"","type":"uint256","internalType":"uint256"}],"stateMutability":"view"},{"type":"function","name":"totalSupply","inputs":[],"outputs":[{"name":"","type":"uint256","internalType":"uint256"}],"stateMutability":"view"},{"type":"function","name":"transfer","inputs":[{"name":"to","type":"address","internalType":"address"},{"name":"amount","type":"uint256","internalType":"uint256"}],"outputs":[{"name":"","type":"bool","internalType":"bool"}],"stateMutability":"nonpayable"},{"type":"function","name":"transferFrom","inputs":[{"name":"from","type":"address","internalType":"address"},{"name":"to","type":"address","internalType":"address"},{"name":"amount","type":"uint256","internalType":"uint256"}],"outputs":[{"name":"","type":"bool","internalType":"bool"}],"stateMutability":"nonpayable"},{"type":"function","name":"transferOwnership","inputs":[{"name":"newOwner","type":"address","internalType":"address"}],"outputs":[],"stateMutability":"nonpayable"},{"type":"function","name":"verifier","inputs":[],"outputs":[{"name":"","type":"address","internalType":"address"}],"stateMutability":"view"},{"type":"function","name":"withdraw","inputs":[{"name":"shares","type":"uint256","internalType":"uint256"},{"name":"recipient","type":"address","internalType":"address"}],"outputs":[{"name":"","type":"uint256","internalType":"uint256"}],"stateMutability":"nonpayable"},{"type":"function","name":"withdraw","inputs":[{"name":"assets","type":"uint256","internalType":"uint256"},{"name":"receiver","type":"address","internalType":"address"},{"name":"owner","type":"address","internalType":"address"}],"outputs":[{"name":"","type":"uint256","internalType":"uint256"}],"stateMutability":"nonpayable"},{"type":"function","name":"withdrawalQueue","inputs":[{"name":"","type":"uint256","internalType":"uint256"}],"outputs":[{"name":"","type":"address","internalType":"address"}],"stateMutability":"view"},{"type":"event","name":"Approval","inputs":[{"name":"owner","type":"address","indexed":true,"internalType":"address"},{"name":"spender","type":"address","indexed":true,"internalType":"address"},{"name":"value","type":"uint256","indexed":false,"internalType":"uint256"}],"anonymous":false},{"type":"event","name":"Deposit","inputs":[{"name":"caller","type":"address","indexed":true,"internalType":"address"},{"name":"owner","type":"address","indexed":true,"internalType":"address"},{"name":"assets","type":"uint256","indexed":false,"internalType":"uint256"},{"name":"shares","type":"uint256","indexed":false,"internalType":"uint256"}],"anonymous":false},{"type":"event","name":"OwnershipTransferred","inputs":[{"name":"previousOwner","type":"address","indexed":true,"internalType":"address"},{"name":"newOwner","type":"address","indexed":true,"internalType":"address"}],"anonymous":false},{"type":"event","name":"StrategyAdded","inputs":[{"name":"strategy","type":"address","indexed":true,"internalType":"address"},{"name":"debtRatio","type":"uint256","indexed":false,"internalType":"uint256"}],"anonymous":false},{"type":"event","name":"StrategyRemoved","inputs":[{"name":"strategy","type":"address","indexed":true,"internalType":"address"}],"anonymous":false},{"type":"event","name":"StrategyReported","inputs":[{"name":"strategy","type":"address","indexed":true,"internalType":"address"},{"name":"gain","type":"uint256","indexed":false,"internalType":"uint256"},{"name":"loss","type":"uint256","indexed":false,"internalType":"uint256"},{"name":"debtPaid","type":"uint256","indexed":false,"internalType":"uint256"}],"anonymous":false},{"type":"event","name":"Transfer","inputs":[{"name":"from","type":"address","indexed":true,"internalType":"address"},{"name":"to","type":"address","indexed":true,"internalType":"address"},{"name":"value","type":"uint256","indexed":false,"internalType":"uint256"}],"anonymous":false},{"type":"event","name":"VerifiedReport","inputs":[{"name":"totalAssets","type":"uint256","indexed":false,"internalType":"uint256"},{"name":"timestamp","type":"uint256","indexed":false,"internalType":"uint256"}],"anonymous":false},{"type":"event","name":"Withdraw","inputs":[{"name":"caller","type":"address","indexed":true,"internalType":"address"},{"name":"receiver","type":"address","indexed":true,"internalType":"address"},{"name":"owner","type":"address","indexed":true,"internalType":"address"},{"name":"assets","type":"uint256","indexed":false,"internalType":"uint256"},{"name":"shares","type":"uint256","indexed":false,"internalType":"uint256"}],"anonymous":false},{"type":"event","name":"XcmSent","inputs":[{"name":"destination","type":"bytes","indexed":false,"internalType":"bytes"},{"name":"message","type":"bytes","indexed":false,"internalType":"bytes"}],"anonymous":false}],"bytecode":{"object":"0x60a06040526103e86009553480156200001757600080fd5b5060405162002d0c38038062002d0c8339810160408190526200003a916200019c565b82828260036200004b8382620002b5565b5060046200005a8282620002b5565b5050506001600160a01b031660805262000074336200007d565b50505062000381565b600580546001600160a01b038381166001600160a01b0319831681179093556040519116919082907f8be0079c531659141344cd1fd0a4f28419497f9722a3daafe3b4186f6b6457e090600090a35050565b634e487b7160e01b600052604160045260246000fd5b600082601f830112620000f757600080fd5b81516001600160401b0380821115620001145762000114620000cf565b604051601f8301601f19908116603f011681019082821181831017156200013f576200013f620000cf565b816040528381526020925086838588010111156200015c57600080fd5b600091505b8382101562000180578582018301518183018401529082019062000161565b83821115620001925760008385830101525b9695505050505050565b600080600060608486031215620001b257600080fd5b83516001600160a01b0381168114620001ca57600080fd5b60208501519093506001600160401b0380821115620001e857600080fd5b620001f687838801620000e5565b935060408601519150808211156200020d57600080fd5b506200021c86828701620000e5565b9150509250925092565b600181811c908216806200023b57607f821691505b6020821081036200025c57634e487b7160e01b600052602260045260246000fd5b50919050565b601f821115620002b057600081815260208120601f850160051c810160208610156200028b5750805b601f850160051c820191505b81811015620002ac5782815560010162000297565b5050505b505050565b81516001600160401b03811115620002d157620002d1620000cf565b620002e981620002e2845462000226565b8462000262565b602080601f831160018114620003215760008415620003085750858301515b600019600386901b1c1916600185901b178555620002ac565b600085815260208120601f198616915b82811015620003525788860151825594840194600190910190840162000331565b5085821015620003715787850151600019600388901b60f8161c191681555b5050505050600190811b01905550565b608051612937620003d56000396000818161045e0152818161074501528181610c9301528181610f6c015281816112ce015281816114ce015281816118d4015281816119d00152611e5101526129376000f3fe608060405234801561001057600080fd5b50600436106103265760003560e01c806387788782116101b8578063bf3759b511610104578063dd62ed3e116100a2578063f2fde38b1161007c578063f2fde38b146106f8578063fc0c546a1461045c578063fc7b9c181461070b578063fd967f471461071457600080fd5b8063dd62ed3e146106dd578063ecf70858146106f0578063ef8b30f71461069157600080fd5b8063c822adda116100de578063c822adda146106a4578063ce96cb77146106b7578063d3406abd146103b7578063d905777e146106ca57600080fd5b8063bf3759b5146103b7578063c63d75b61461067c578063c6e6f5921461069157600080fd5b8063a1d9bafc11610171578063b3d7f6b91161014b578063b3d7f6b914610630578063b460af9414610643578063b6b55f2514610656578063ba0876521461066957600080fd5b8063a1d9bafc146105f7578063a457c2d71461060a578063a9059cbb1461061d57600080fd5b806387788782146105ba57806388a8d602146105485780638da5cb5b146105c357806394bf804d146105d457806395d89b41146105e757806399530b06146105ef57600080fd5b8063313ce567116102775780634cdad506116102305780635aa6e6751161020a5780635aa6e675146105485780636e553f651461057657806370a0823114610589578063715018a6146105b257600080fd5b80634cdad5061461036e57806354295982146105505780635437988d1461056357600080fd5b8063313ce5671461044d57806338d52e0f1461045c578063395093511461048257806339ebf82314610495578063402d267d14610535578063452a93201461054857600080fd5b8063112c1f9b116102e457806323b872dd116102be57806323b872dd146103db57806325829410146103ee57806327893ab51461040f5780632b7ac3f31461042257600080fd5b8063112c1f9b146103b757806314b4e26e146103be57806318160ddd146103d357600080fd5b8062f714ce1461032b57806301e1d1141461035157806306fdde031461035957806307a2d13a1461036e578063095ea7b3146103815780630a28a477146103a4575b600080fd5b61033e6103393660046122a0565b61071d565b6040519081526020015b60405180910390f35b61033e61073b565b6103616107e0565b60405161034891906122f8565b61033e61037c36600461232b565b610872565b61039461038f366004612344565b61087f565b6040519015158152602001610348565b61033e6103b236600461232b565b610897565b600061033e565b6103d16103cc36600461236e565b6108a4565b005b60025461033e565b6103946103e93660046123b0565b610aa5565b60408051808201909152600581526418171a171b60d91b6020820152610361565b6103d161041d366004612435565b610acb565b600a54610435906001600160a01b031681565b6040516001600160a01b039091168152602001610348565b60405160128152602001610348565b7f0000000000000000000000000000000000000000000000000000000000000000610435565b610394610490366004612344565b610b74565b6104f16104a33660046124a1565b60066020528060005260406000206000915090508060000154908060010154908060020154908060030154908060040154908060050154908060060154908060070154908060080154905089565b60408051998a5260208a0198909852968801959095526060870193909352608086019190915260a085015260c084015260e083015261010082015261012001610348565b61033e6105433660046124a1565b610b96565b610435610bb4565b6103d161055e3660046124cd565b610bc8565b6103d16105713660046124a1565b610d7d565b61033e6105843660046122a0565b610da7565b61033e6105973660046124a1565b6001600160a01b031660009081526020819052604090205490565b6103d1610db3565b61033e60095481565b6005546001600160a01b0316610435565b61033e6105e23660046122a0565b610dc7565b610361610de1565b61033e610df0565b61033e61060536600461253f565b610e44565b610394610618366004612344565b610fe2565b61039461062b366004612344565b611068565b61033e61063e36600461232b565b611076565b61033e61065136600461256b565b611083565b61033e61066436600461232b565b6110ff565b61033e61067736600461256b565b61110b565b61033e61068a3660046124a1565b5060001990565b61033e61069f36600461232b565b61117f565b6104356106b236600461232b565b61118c565b61033e6106c53660046124a1565b6111b6565b61033e6106d83660046124a1565b6111da565b61033e6106eb3660046125a7565b6111f8565b60001961033e565b6103d16107063660046124a1565b611223565b61033e60085481565b61033e61271081565b600061073261072b84610872565b8333611083565b90505b92915050565b60006008546107677f000000000000000000000000000000000000000000000000000000000000000090565b6040516370a0823160e01b81523060048201526001600160a01b0391909116906370a0823190602401602060405180830381865afa1580156107ad573d6000803e3d6000fd5b505050506040513d601f19601f820116820180604052508101906107d191906125d1565b6107db9190612600565b905090565b6060600380546107ef90612618565b80601f016020809104026020016040519081016040528092919081815260200182805461081b90612618565b80156108685780601f1061083d57610100808354040283529160200191610868565b820191906000526020600020905b81548152906001019060200180831161084b57829003601f168201915b5050505050905090565b600061073582600061129c565b60003361088d818585611370565b5060019392505050565b6000610735826001611494565b6108ac61154e565b6001600160a01b0385166108fa5760405162461bcd60e51b815260206004820152601060248201526f496e76616c696420737472617465677960801b60448201526064015b60405180910390fd5b6001600160a01b0385166000908152600660205260409020600101541561094c5760405162461bcd60e51b815260206004820152600660248201526545786973747360d01b60448201526064016108f1565b6040518061012001604052808281526020014281526020018581526020018481526020018381526020014281526020016000815260200160008152602001600081525060066000876001600160a01b03166001600160a01b03168152602001908152602001600020600082015181600001556020820151816001015560408201518160020155606082015181600301556080820151816004015560a0820151816005015560c0820151816006015560e0820151816007015561010082015181600801559050506007859080600181540180825580915050600190039060005260206000200160009091909190916101000a8154816001600160a01b0302191690836001600160a01b03160217905550846001600160a01b03167f2f564a83158ad1831793ad3e69257b52f39ece5d49cb0d8746708ecb9ef964da85604051610a9691815260200190565b60405180910390a25050505050565b600033610ab38582856115a8565b610abe858585611622565b60019150505b9392505050565b610ad361154e565b604051637f0a3bf960e01b8152620a000090637f0a3bf990610aff90879087908790879060040161267b565b600060405180830381600087803b158015610b1957600080fd5b505af1158015610b2d573d6000803e3d6000fd5b505050507f50332e75544dc8985c608696cb932a0b259cd5706c9bc0daf8b44cdc05aa22ba84848484604051610b66949392919061267b565b60405180910390a150505050565b60003361088d818585610b8783836111f8565b610b919190612600565b611370565b6000610ba06117f0565b610bab576000610735565b60001992915050565b60006107db6005546001600160a01b031690565b600a546001600160a01b031615610c8f57600a546040516334baeab960e01b81526001600160a01b03909116906334baeab990610c0f9087908790879087906004016126a2565b602060405180830381865afa158015610c2c573d6000803e3d6000fd5b505050506040513d601f19601f82011682018060405250810190610c5091906126fa565b610c8f5760405162461bcd60e51b815260206004820152601060248201526f24b73b30b634b2102d2590283937b7b360811b60448201526064016108f1565b60007f00000000000000000000000000000000000000000000000000000000000000006040516370a0823160e01b81523060048201526001600160a01b0391909116906370a0823190602401602060405180830381865afa158015610cf8573d6000803e3d6000fd5b505050506040513d601f19601f82011682018060405250810190610d1c91906125d1565b9050808610610d3757610d2f818761271c565b600855610d3d565b60006008555b604080518781524260208201527f5fbfcc3f7e7fdee52255b0fb9acb949a073e4960bfac7f4ac85013f8a9092c4b910160405180910390a1505050505050565b610d8561154e565b600a80546001600160a01b0319166001600160a01b0392909216919091179055565b6000610732838361180a565b610dbb61154e565b610dc5600061187d565b565b600080610dd384611076565b9050610732338483876118cf565b6060600480546107ef90612618565b600080610dfc60025490565b90508015610e325780610e116012600a612817565b610e1961073b565b610e239190612826565b610e2d919061285b565b610e3e565b610e3e6012600a612817565b91505090565b33600090815260066020526040812060010154610e8f5760405162461bcd60e51b815260206004820152600960248201526821737472617465677960b81b60448201526064016108f1565b33600090815260066020526040812060078101805491928792610eb3908490612600565b9250508190555083816008016000828254610ece9190612600565b90915550506006810154610ee28585612600565b11610f3057610ef18484612600565b816006016000828254610f04919061271c565b90915550610f1490508484612600565b60086000828254610f25919061271c565b90915550610f539050565b806006015460086000828254610f46919061271c565b9091555050600060068201555b4260058201558215610f9457610f946001600160a01b037f000000000000000000000000000000000000000000000000000000000000000016333086611961565b604080518681526020810186905290810184905233907f6fbdf847c78f04eac7a7a77e1073af6eeec604ee0b495240579dccf57fcf2d889060600160405180910390a2506000949350505050565b60003381610ff082866111f8565b9050838110156110505760405162461bcd60e51b815260206004820152602560248201527f45524332303a2064656372656173656420616c6c6f77616e63652062656c6f77604482015264207a65726f60d81b60648201526084016108f1565b61105d8286868403611370565b506001949350505050565b60003361088d818585611622565b600061073582600161129c565b600061108e826111b6565b8411156110dd5760405162461bcd60e51b815260206004820152601f60248201527f455243343632363a207769746864726177206d6f7265207468616e206d61780060448201526064016108f1565b60006110e885610897565b90506110f733858588856119cc565b949350505050565b60006107358233610da7565b6000611116826111da565b8411156111655760405162461bcd60e51b815260206004820152601d60248201527f455243343632363a2072656465656d206d6f7265207468616e206d617800000060448201526064016108f1565b600061117085610872565b90506110f733858584896119cc565b6000610735826000611494565b6007818154811061119c57600080fd5b6000918252602090912001546001600160a01b0316905081565b6001600160a01b03811660009081526020819052604081205461073590600061129c565b6001600160a01b038116600090815260208190526040812054610735565b6001600160a01b03918216600090815260016020908152604080832093909416825291909152205490565b61122b61154e565b6001600160a01b0381166112905760405162461bcd60e51b815260206004820152602660248201527f4f776e61626c653a206e6577206f776e657220697320746865207a65726f206160448201526564647265737360d01b60648201526084016108f1565b6112998161187d565b50565b6000806112a860025490565b905080156112c9576112c46112bb61073b565b85908386611c0b565b6110f7565b6110f77f00000000000000000000000000000000000000000000000000000000000000006001600160a01b031663313ce5676040518163ffffffff1660e01b8152600401602060405180830381865afa15801561132a573d6000803e3d6000fd5b505050506040513d601f19601f8201168201806040525081019061134e919061287d565b61135990600a612817565b60125b61136790600a612817565b86919086611c0b565b6001600160a01b0383166113d25760405162461bcd60e51b8152602060048201526024808201527f45524332303a20617070726f76652066726f6d20746865207a65726f206164646044820152637265737360e01b60648201526084016108f1565b6001600160a01b0382166114335760405162461bcd60e51b815260206004820152602260248201527f45524332303a20617070726f766520746f20746865207a65726f206164647265604482015261737360f01b60648201526084016108f1565b6001600160a01b0383811660008181526001602090815260408083209487168084529482529182902085905590518481527f8c5be1e5ebec7d5bd14f71427d1e84f3dd0314c0f7b2291e5b200ac8c7c3b925910160405180910390a3505050565b6000806114a060025490565b90508315806114ad575080155b6114bd576112c48161136761073b565b6110f76114cc6012600a612817565b7f00000000000000000000000000000000000000000000000000000000000000006001600160a01b031663313ce5676040518163ffffffff1660e01b8152600401602060405180830381865afa15801561152a573d6000803e3d6000fd5b505050506040513d601f19601f8201168201806040525081019061135c919061287d565b6005546001600160a01b03163314610dc55760405162461bcd60e51b815260206004820181905260248201527f4f776e61626c653a2063616c6c6572206973206e6f7420746865206f776e657260448201526064016108f1565b60006115b484846111f8565b9050600019811461161c578181101561160f5760405162461bcd60e51b815260206004820152601d60248201527f45524332303a20696e73756666696369656e7420616c6c6f77616e636500000060448201526064016108f1565b61161c8484848403611370565b50505050565b6001600160a01b0383166116865760405162461bcd60e51b815260206004820152602560248201527f45524332303a207472616e736665722066726f6d20746865207a65726f206164604482015264647265737360d81b60648201526084016108f1565b6001600160a01b0382166116e85760405162461bcd60e51b815260206004820152602360248201527f45524332303a207472616e7366657220746f20746865207a65726f206164647260448201526265737360e81b60648201526084016108f1565b6001600160a01b038316600090815260208190526040902054818110156117605760405162461bcd60e51b815260206004820152602660248201527f45524332303a207472616e7366657220616d6f756e7420657863656564732062604482015265616c616e636560d01b60648201526084016108f1565b6001600160a01b03808516600090815260208190526040808220858503905591851681529081208054849290611797908490612600565b92505081905550826001600160a01b0316846001600160a01b03167fddf252ad1be2c89b69c2b068fc378daa952ba7f163c4a11628f55a4df523b3ef846040516117e391815260200190565b60405180910390a361161c565b6000806117fb61073b565b11806107db5750506002541590565b600061181582610b96565b8311156118645760405162461bcd60e51b815260206004820152601e60248201527f455243343632363a206465706f736974206d6f7265207468616e206d6178000060448201526064016108f1565b600061186f8461117f565b9050610732338486846118cf565b600580546001600160a01b038381166001600160a01b0319831681179093556040519116919082907f8be0079c531659141344cd1fd0a4f28419497f9722a3daafe3b4186f6b6457e090600090a35050565b6118fb7f0000000000000000000000000000000000000000000000000000000000000000853085611961565b6119058382611c6d565b826001600160a01b0316846001600160a01b03167fdcbc1c05240f31ff3ad067ef1ee35ce4997762752e3a095284754544f4c709d78484604051611953929190918252602082015260400190565b60405180910390a350505050565b6040516001600160a01b038085166024830152831660448201526064810182905261161c9085906323b872dd60e01b906084015b60408051601f198184030181529190526020810180516001600160e01b03166001600160e01b031990931692909217909152611d4c565b60007f00000000000000000000000000000000000000000000000000000000000000006040516370a0823160e01b81523060048201526001600160a01b0391909116906370a0823190602401602060405180830381865afa158015611a35573d6000803e3d6000fd5b505050506040513d601f19601f82011682018060405250810190611a5991906125d1565b905080831115611bf6576000611a6f828561271c565b905060005b600754811015611bb9578115611bb957600060078281548110611a9957611a996128a0565b600091825260208083209091015460408051630efbb5cb60e41b815290516001600160a01b039092169450849263efbb5cb0926004808401938290030181865afa158015611aeb573d6000803e3d6000fd5b505050506040513d601f19601f82011682018060405250810190611b0f91906125d1565b90506000848211611b205781611b22565b845b90508015611ba357604051632e1a7d4d60e01b8152600481018290526001600160a01b03841690632e1a7d4d906024016020604051808303816000875af1158015611b71573d6000803e3d6000fd5b505050506040513d601f19601f82011682018060405250810190611b9591906125d1565b50611ba0818661271c565b94505b5050508080611bb1906128b6565b915050611a74565b508015611bf45760405162461bcd60e51b81526020600482015260096024820152684c697175696469747960b81b60448201526064016108f1565b505b611c038686868686611e1e565b505050505050565b600080611c19868686611ede565b90506001836002811115611c2f57611c2f6128cf565b148015611c4c575060008480611c4757611c47612845565b868809115b15611c5f57611c5c600182612600565b90505b95945050505050565b505050565b6001600160a01b038216611cc35760405162461bcd60e51b815260206004820152601f60248201527f45524332303a206d696e7420746f20746865207a65726f20616464726573730060448201526064016108f1565b8060026000828254611cd59190612600565b90915550506001600160a01b03821660009081526020819052604081208054839290611d02908490612600565b90915550506040518181526001600160a01b038316906000907fddf252ad1be2c89b69c2b068fc378daa952ba7f163c4a11628f55a4df523b3ef9060200160405180910390a35050565b6000611da1826040518060400160405280602081526020017f5361666545524332303a206c6f772d6c6576656c2063616c6c206661696c6564815250856001600160a01b0316611f8d9092919063ffffffff16565b805190915015611c685780806020019051810190611dbf91906126fa565b611c685760405162461bcd60e51b815260206004820152602a60248201527f5361666545524332303a204552433230206f7065726174696f6e20646964206e6044820152691bdd081cdd58d8d9595960b21b60648201526084016108f1565b826001600160a01b0316856001600160a01b031614611e4257611e428386836115a8565b611e4c8382611f9c565b611e777f000000000000000000000000000000000000000000000000000000000000000085846120ea565b826001600160a01b0316846001600160a01b0316866001600160a01b03167ffbde797d201c681b91056529119e0b02407c7bb96a4a2c75c01fc9667232c8db8585604051611ecf929190918252602082015260400190565b60405180910390a45050505050565b6000808060001985870985870292508281108382030391505080600003611f1857838281611f0e57611f0e612845565b0492505050610ac4565b808411611f2457600080fd5b60008486880960026001871981018816978890046003810283188082028403028082028403028082028403028082028403028082028403029081029092039091026000889003889004909101858311909403939093029303949094049190911702949350505050565b60606110f7848460008561211a565b6001600160a01b038216611ffc5760405162461bcd60e51b815260206004820152602160248201527f45524332303a206275726e2066726f6d20746865207a65726f206164647265736044820152607360f81b60648201526084016108f1565b6001600160a01b038216600090815260208190526040902054818110156120705760405162461bcd60e51b815260206004820152602260248201527f45524332303a206275726e20616d6f756e7420657863656564732062616c616e604482015261636560f01b60648201526084016108f1565b6001600160a01b038316600090815260208190526040812083830390556002805484929061209f90849061271c565b90915550506040518281526000906001600160a01b038516907fddf252ad1be2c89b69c2b068fc378daa952ba7f163c4a11628f55a4df523b3ef9060200160405180910390a3505050565b6040516001600160a01b038316602482015260448101829052611c6890849063a9059cbb60e01b90606401611995565b60608247101561217b5760405162461bcd60e51b815260206004820152602660248201527f416464726573733a20696e73756666696369656e742062616c616e636520666f6044820152651c8818d85b1b60d21b60648201526084016108f1565b6001600160a01b0385163b6121d25760405162461bcd60e51b815260206004820152601d60248201527f416464726573733a2063616c6c20746f206e6f6e2d636f6e747261637400000060448201526064016108f1565b600080866001600160a01b031685876040516121ee91906128e5565b60006040518083038185875af1925050503d806000811461222b576040519150601f19603f3d011682016040523d82523d6000602084013e612230565b606091505b509150915061224082828661224b565b979650505050505050565b6060831561225a575081610ac4565b82511561226a5782518084602001fd5b8160405162461bcd60e51b81526004016108f191906122f8565b80356001600160a01b038116811461229b57600080fd5b919050565b600080604083850312156122b357600080fd5b823591506122c360208401612284565b90509250929050565b60005b838110156122e75781810151838201526020016122cf565b8381111561161c5750506000910152565b60208152600082518060208401526123178160408501602087016122cc565b601f01601f19169190910160400192915050565b60006020828403121561233d57600080fd5b5035919050565b6000806040838503121561235757600080fd5b61236083612284565b946020939093013593505050565b600080600080600060a0868803121561238657600080fd5b61238f86612284565b97602087013597506040870135966060810135965060800135945092505050565b6000806000606084860312156123c557600080fd5b6123ce84612284565b92506123dc60208501612284565b9150604084013590509250925092565b60008083601f8401126123fe57600080fd5b50813567ffffffffffffffff81111561241657600080fd5b60208301915083602082850101111561242e57600080fd5b9250929050565b6000806000806040858703121561244b57600080fd5b843567ffffffffffffffff8082111561246357600080fd5b61246f888389016123ec565b9096509450602087013591508082111561248857600080fd5b50612495878288016123ec565b95989497509550505050565b6000602082840312156124b357600080fd5b61073282612284565b806040810183101561073557600080fd5b60008060008060006101c08087890312156124e757600080fd5b863595506124f888602089016124bc565b945060e087018881111561250b57600080fd5b60608801945061251b89826124bc565b93505087818801111561252d57600080fd5b50610120860190509295509295909350565b60008060006060848603121561255457600080fd5b505081359360208301359350604090920135919050565b60008060006060848603121561258057600080fd5b8335925061259060208501612284565b915061259e60408501612284565b90509250925092565b600080604083850312156125ba57600080fd5b6125c383612284565b91506122c360208401612284565b6000602082840312156125e357600080fd5b5051919050565b634e487b7160e01b600052601160045260246000fd5b60008219821115612613576126136125ea565b500190565b600181811c9082168061262c57607f821691505b60208210810361264c57634e487b7160e01b600052602260045260246000fd5b50919050565b81835281816020850137506000828201602090810191909152601f909101601f19169091010190565b60408152600061268f604083018688612652565b8281036020840152612240818587612652565b6101a081016040808784376000838201818152879190815b60028110156126da578484833790840182815292840192906001016126ba565b5050828760c087013760a086610100870137835250909695505050505050565b60006020828403121561270c57600080fd5b8151801515811461073257600080fd5b60008282101561272e5761272e6125ea565b500390565b600181815b8085111561276e578160001904821115612754576127546125ea565b8085161561276157918102915b93841c9390800290612738565b509250929050565b60008261278557506001610735565b8161279257506000610735565b81600181146127a857600281146127b2576127ce565b6001915050610735565b60ff8411156127c3576127c36125ea565b50506001821b610735565b5060208310610133831016604e8410600b84101617156127f1575081810a610735565b6127fb8383612733565b806000190482111561280f5761280f6125ea565b029392505050565b600061073260ff841683612776565b6000816000190483118215151615612840576128406125ea565b500290565b634e487b7160e01b600052601260045260246000fd5b60008261287857634e487b7160e01b600052601260045260246000fd5b500490565b60006020828403121561288f57600080fd5b815160ff8116811461073257600080fd5b634e487b7160e01b600052603260045260246000fd5b6000600182016128c8576128c86125ea565b5060010190565b634e487b7160e01b600052602160045260246000fd5b600082516128f78184602087016122cc565b919091019291505056fea2646970667358221220f3e9b5f9774e4c04fc273d8670e9b5761ca36a2bc815bbe42c69aa31d0af874264736f6c634300080f0033","linkReferences":{}},"methodIdentifiers":{"MAX_BPS()":"fd967f47","addStrategy(address,uint256,uint256,uint256,uint256)":"14b4e26e","allowance(address,address)":"dd62ed3e","apiVersion()":"25829410","approve(address,uint256)":"095ea7b3","asset()":"38d52e0f","balanceOf(address)":"70a08231","convertToAssets(uint256)":"07a2d13a","convertToShares(uint256)":"c6e6f592","creditAvailable()":"112c1f9b","debtOutstanding()":"bf3759b5","decimals()":"313ce567","decreaseAllowance(address,uint256)":"a457c2d7","deposit(uint256)":"b6b55f25","deposit(uint256,address)":"6e553f65","depositLimit()":"ecf70858","executeXcm(bytes,bytes)":"27893ab5","expectedReturn()":"d3406abd","governance()":"5aa6e675","guardian()":"452a9320","increaseAllowance(address,uint256)":"39509351","management()":"88a8d602","maxDeposit(address)":"402d267d","maxMint(address)":"c63d75b6","maxRedeem(address)":"d905777e","maxWithdraw(address)":"ce96cb77","mint(uint256,address)":"94bf804d","name()":"06fdde03","owner()":"8da5cb5b","performanceFee()":"87788782","previewDeposit(uint256)":"ef8b30f7","previewMint(uint256)":"b3d7f6b9","previewRedeem(uint256)":"4cdad506","previewWithdraw(uint256)":"0a28a477","pricePerShare()":"99530b06","redeem(uint256,address,address)":"ba087652","renounceOwnership()":"715018a6","report(uint256,uint256,uint256)":"a1d9bafc","reportWithProof(uint256,uint256[2],uint256[2][2],uint256[2],uint256[5])":"54295982","setVerifier(address)":"5437988d","strategies(address)":"39ebf823","symbol()":"95d89b41","token()":"fc0c546a","totalAssets()":"01e1d114","totalDebt()":"fc7b9c18","totalSupply()":"18160ddd","transfer(address,uint256)":"a9059cbb","transferFrom(address,address,uint256)":"23b872dd","transferOwnership(address)":"f2fde38b","verifier()":"2b7ac3f3","withdraw(uint256,address)":"00f714ce","withdraw(uint256,address,address)":"b460af94","withdrawalQueue(uint256)":"c822adda"},"id":24}