{"abi":[{"type":"constructor","inputs":[],"stateMutability":"nonpayable"},{"type":"function","name":"check","inputs":[{"name":"profit","type":"uint256","internalType":"uint256"},{"name":"loss","type":"uint256","internalType":"uint256"},{"name":"debtPayment","type":"uint256","internalType":"uint256"},{"name":"debtOutstanding","type":"uint256","internalType":"uint256"},{"name":"totalDebt","type":"uint256","internalType":"uint256"}],"outputs":[{"name":"","type":"bool","internalType":"bool"}],"stateMutability":"view"},{"type":"function","name":"checks","inputs":[{"name":"","type":"address","internalType":"address"}],"outputs":[{"name":"","type":"address","internalType":"address"}],"stateMutability":"view"},{"type":"function","name":"governance","inputs":[],"outputs":[{"name":"","type":"address","internalType":"address"}],"stateMutability":"view"},{"type":"function","name":"lossLimitRatio","inputs":[],"outputs":[{"name":"","type":"uint256","internalType":"uint256"}],"stateMutability":"view"},{"type":"function","name":"management","inputs":[],"outputs":[{"name":"","type":"address","internalType":"address"}],"stateMutability":"view"},{"type":"function","name":"profitLimitRatio","inputs":[],"outputs":[{"name":"","type":"uint256","internalType":"uint256"}],"stateMutability":"view"},{"type":"function","name":"setCheck","inputs":[{"name":"_strategy","type":"address","internalType":"address"},{"name":"_check","type":"address","internalType":"address"}],"outputs":[],"stateMutability":"nonpayable"},{"type":"function","name":"setGovernance","inputs":[{"name":"_governance","type":"address","internalType":"address"}],"outputs":[],"stateMutability":"nonpayable"},{"type":"function","name":"setManagement","inputs":[{"name":"_management","type":"address","internalType":"address"}],"outputs":[],"stateMutability":"nonpayable"},{"type":"function","name":"setProfitLimitRatio","inputs":[{"name":"_profitLimitRatio","type":"uint256","internalType":"uint256"}],"outputs":[],"stateMutability":"nonpayable"},{"type":"function","name":"setStrategyLimits","inputs":[{"name":"_strategy","type":"address","internalType":"address"},{"name":"_profitLimitRatio","type":"uint256","internalType":"uint256"},{"name":"_lossLimitRatio","type":"uint256","internalType":"uint256"}],"outputs":[],"stateMutability":"nonpayable"},{"type":"function","name":"setlossLimitRatio","inputs":[{"name":"_lossLimitRatio","type":"uint256","internalType":"uint256"}],"outputs":[],"stateMutability":"nonpayable"},{"type":"function","name":"strategiesLimits","inputs":[{"name":"","type":"address","internalType":"address"}],"outputs":[{"name":"profitLimitRatio","type":"uint256","internalType":"uint256"},{"name":"lossLimitRatio","type":"uint256","internalType":"uint256"},{"name":"exists","type":"bool","internalType":"bool"}],"stateMutability":"view"}],"bytecode":{"object":"0x608060405234801561001057600080fd5b50600380546001600160a01b03199081163390811790925560048054909116909117905561012c60005560646001556108248061004e6000396000f3fe608060405234801561001057600080fd5b50600436106100ce5760003560e01c80637d9699321161008c578063ab033ea911610066578063ab033ea9146101ad578063c70fa00b146101c0578063c9354337146101e3578063d4a22bde1461023157600080fd5b80637d9699321461017e57806388a8d60214610187578063950b3d731461019a57600080fd5b8062fd31f0146100d35780630ef5ee02146100e85780631afdc5a2146100fb57806327fff0db1461010e5780634a5d0943146101545780635aa6e6751461016b575b600080fd5b6100e66100e1366004610683565b610244565b005b6100e66100f63660046106b6565b6102ff565b6100e66101093660046106cf565b610351565b61013761011c366004610702565b6005602052600090815260409020546001600160a01b031681565b6040516001600160a01b0390911681526020015b60405180910390f35b61015d60005481565b60405190815260200161014b565b600354610137906001600160a01b031681565b61015d60015481565b600454610137906001600160a01b031681565b6100e66101a83660046106b6565b6103be565b6100e66101bb366004610702565b610410565b6101d36101ce36600461071d565b61046f565b604051901515815260200161014b565b6102146101f1366004610702565b600260208190526000918252604090912080546001820154919092015460ff1683565b60408051938452602084019290925215159082015260600161014b565b6100e661023f366004610702565b61048a565b6003546001600160a01b031633148061026757506004546001600160a01b031633145b61028c5760405162461bcd60e51b815260040161028390610758565b60405180910390fd5b612710811061029a57600080fd5b61271082106102a857600080fd5b60408051606081018252928352602080840192835260018483018181526001600160a01b03969096166000908152600292839052929092209351845591519083015591519101805460ff1916911515919091179055565b6003546001600160a01b031633148061032257506004546001600160a01b031633145b61033e5760405162461bcd60e51b815260040161028390610758565b612710811061034c57600080fd5b600155565b6003546001600160a01b031633148061037457506004546001600160a01b031633145b6103905760405162461bcd60e51b815260040161028390610758565b6001600160a01b03918216600090815260056020526040902080546001600160a01b03191691909216179055565b6003546001600160a01b03163314806103e157506004546001600160a01b031633145b6103fd5760405162461bcd60e51b815260040161028390610758565b612710811061040b57600080fd5b600055565b6003546001600160a01b0316331461043a5760405162461bcd60e51b815260040161028390610758565b6001600160a01b03811661044d57600080fd5b600380546001600160a01b0319166001600160a01b0392909216919091179055565b600061047e86868686866104e9565b90505b95945050505050565b6003546001600160a01b031633146104b45760405162461bcd60e51b815260040161028390610758565b6001600160a01b0381166104c757600080fd5b600480546001600160a01b0319166001600160a01b0392909216919091179055565b336000908152600560205260408120546001600160a01b03168061051a576105128787856105a9565b915050610481565b60405163e53ec13f60e01b8152600481018890526024810187905260448101869052606481018590523360848201526001600160a01b0382169063e53ec13f9060a401602060405180830381865afa15801561057a573d6000803e3d6000fd5b505050506040513d601f19601f8201168201806040525081019061059e919061077d565b979650505050505050565b3360009081526002602081815260408084208151606081018352815481526001820154938101939093529092015460ff161580159282019290925290829081906105fb57505080516020820151610604565b50506000546001545b612710610611838761079f565b61061b91906107cc565b87111561062e5760009350505050610660565b61271061063b828761079f565b61064591906107cc565b8611156106585760009350505050610660565b600193505050505b9392505050565b80356001600160a01b038116811461067e57600080fd5b919050565b60008060006060848603121561069857600080fd5b6106a184610667565b95602085013595506040909401359392505050565b6000602082840312156106c857600080fd5b5035919050565b600080604083850312156106e257600080fd5b6106eb83610667565b91506106f960208401610667565b90509250929050565b60006020828403121561071457600080fd5b61066082610667565b600080600080600060a0868803121561073557600080fd5b505083359560208501359550604085013594606081013594506080013592509050565b6020808252600b908201526a08585d5d1a1bdc9a5e995960aa1b604082015260600190565b60006020828403121561078f57600080fd5b8151801515811461066057600080fd5b60008160001904831182151516156107c757634e487b7160e01b600052601160045260246000fd5b500290565b6000826107e957634e487b7160e01b600052601260045260246000fd5b50049056fea2646970667358221220d8538ff862e0481188445b34348b959ab509f4597eac35ee1802e2dc74533d5664736f6c634300080f0033","linkReferences":{}},"methodIdentifiers":{"check(uint256,uint256,uint256,uint256,uint256)":"c70fa00b","checks(address)":"27fff0db","governance()":"5aa6e675","lossLimitRatio()":"7d969932","management()":"88a8d602","profitLimitRatio()":"4a5d0943","setCheck(address,address)":"1afdc5a2","setGovernance(address)":"ab033ea9","setManagement(address)":"d4a22bde","setProfitLimitRatio(uint256)":"950b3d73","setStrategyLimits(address,uint256,uint256)":"00fd31f0","setlossLimitRatio(uint256)":"0ef5ee02","strategiesLimits(address)":"c9354337"},"id":27}