{"abi":[{"type":"constructor","inputs":[],"stateMutability":"nonpayable"},{"type":"function","name":"check","inputs":[{"name":"profit","type":"uint256","internalType":"uint256"},{"name":"loss","type":"uint256","internalType":"uint256"},{"name":"debtPayment","type":"uint256","internalType":"uint256"},{"name":"debtOutstanding","type":"uint256","internalType":"uint256"},{"name":"totalDebt","type":"uint256","internalType":"uint256"}],"outputs":[{"name":"","type":"bool","internalType":"bool"}],"stateMutability":"view"},{"type":"function","name":"checks","inputs":[{"name":"","type":"address","internalType":"address"}],"outputs":[{"name":"","type":"address","internalType":"address"}],"stateMutability":"view"},{"type":"function","name":"governance","inputs":[],"outputs":[{"name":"","type":"address","internalType":"address"}],"stateMutability":"view"},{"type":"function","name":"lossLimitRatio","inputs":[],"outputs":[{"name":"","type":"uint256","internalType":"uint256"}],"stateMutability":"view"},{"type":"function","name":"management","inputs":[],"outputs":[{"name":"","type":"address","internalType":"address"}],"stateMutability":"view"},{"type":"function","name":"profitLimitRatio","inputs":[],"outputs":[{"name":"","type":"uint256","internalType":"uint256"}],"stateMutability":"view"},{"type":"function","name":"setCheck","inputs":[{"name":"_strategy","type":"address","internalType":"address"},{"name":"_check","type":"address","internalType":"address"}],"outputs":[],"stateMutability":"nonpayable"},{"type":"function","name":"setGovernance","inputs":[{"name":"_governance","type":"address","internalType":"address"}],"outputs":[],"stateMutability":"nonpayable"},{"type":"function","name":"setManagement","inputs":[{"name":"_management","type":"address","internalType":"address"}],"outputs":[],"stateMutability":"nonpayable"},{"type":"function","name":"setProfitLimitRatio","inputs":[{"name":"_profitLimitRatio","type":"uint256","internalType":"uint256"}],"outputs":[],"stateMutability":"nonpayable"},{"type":"function","name":"setStrategyLimits","inputs":[{"name":"_strategy","type":"address","internalType":"address"},{"name":"_profitLimitRatio","type":"uint256","internalType":"uint256"},{"name":"_lossLimitRatio","type":"uint256","internalType":"uint256"}],"outputs":[],"stateMutability":"nonpayable"},{"type":"function","name":"setlossLimitRatio","inputs":[{"name":"_lossLimitRatio","type":"uint256","internalType":"uint256"}],"outputs":[],"stateMutability":"nonpayable"},{"type":"function","name":"strategiesLimits","inputs":[{"name":"","type":"address","internalType":"address"}],"outputs":[{"name":"profitLimitRatio","type":"uint256","internalType":"uint256"},{"name":"lossLimitRatio","type":"uint256","internalType":"uint256"},{"name":"exists","type":"bool","internalType":"bool"}],"stateMutability":"view"}],"bytecode":{"object":"0x608060405234801561001057600080fd5b5033600360006101000a81548173ffffffffffffffffffffffffffffffffffffffff021916908373ffffffffffffffffffffffffffffffffffffffff16021790555033600460006101000a81548173ffffffffffffffffffffffffffffffffffffffff021916908373ffffffffffffffffffffffffffffffffffffffff16021790555061012c60008190555060646001819055506111d7806100b36000396000f3fe608060405234801561001057600080fd5b50600436106100ce5760003560e01c80637d9699321161008c578063ab033ea911610066578063ab033ea9146101eb578063c70fa00b14610207578063c935433714610237578063d4a22bde14610269576100ce565b80637d9699321461019357806388a8d602146101b1578063950b3d73146101cf576100ce565b8062fd31f0146100d35780630ef5ee02146100ef5780631afdc5a21461010b57806327fff0db146101275780634a5d0943146101575780635aa6e67514610175575b600080fd5b6100ed60048036038101906100e89190610d66565b610285565b005b61010960048036038101906101049190610db9565b610422565b005b61012560048036038101906101209190610de6565b610522565b005b610141600480360381019061013c9190610e26565b61068c565b60405161014e9190610e62565b60405180910390f35b61015f6106bf565b60405161016c9190610e8c565b60405180910390f35b61017d6106c5565b60405161018a9190610e62565b60405180910390f35b61019b6106eb565b6040516101a89190610e8c565b60405180910390f35b6101b96106f1565b6040516101c69190610e62565b60405180910390f35b6101e960048036038101906101e49190610db9565b610717565b005b61020560048036038101906102009190610e26565b610817565b005b610221600480360381019061021c9190610ea7565b610924565b60405161022e9190610f3d565b60405180910390f35b610251600480360381019061024c9190610e26565b61093e565b60405161026093929190610f58565b60405180910390f35b610283600480360381019061027e9190610e26565b610975565b005b600360009054906101000a900473ffffffffffffffffffffffffffffffffffffffff1673ffffffffffffffffffffffffffffffffffffffff163373ffffffffffffffffffffffffffffffffffffffff16148061032e5750600460009054906101000a900473ffffffffffffffffffffffffffffffffffffffff1673ffffffffffffffffffffffffffffffffffffffff163373ffffffffffffffffffffffffffffffffffffffff16145b61036d576040517f08c379a000000000000000000000000000000000000000000000000000000000815260040161036490610fec565b60405180910390fd5b612710811061037b57600080fd5b612710821061038957600080fd5b604051806060016040528083815260200182815260200160011515815250600260008573ffffffffffffffffffffffffffffffffffffffff1673ffffffffffffffffffffffffffffffffffffffff168152602001908152602001600020600082015181600001556020820151816001015560408201518160020160006101000a81548160ff021916908315150217905550905050505050565b600360009054906101000a900473ffffffffffffffffffffffffffffffffffffffff1673ffffffffffffffffffffffffffffffffffffffff163373ffffffffffffffffffffffffffffffffffffffff1614806104cb5750600460009054906101000a900473ffffffffffffffffffffffffffffffffffffffff1673ffffffffffffffffffffffffffffffffffffffff163373ffffffffffffffffffffffffffffffffffffffff16145b61050a576040517f08c379a000000000000000000000000000000000000000000000000000000000815260040161050190610fec565b60405180910390fd5b612710811061051857600080fd5b8060018190555050565b600360009054906101000a900473ffffffffffffffffffffffffffffffffffffffff1673ffffffffffffffffffffffffffffffffffffffff163373ffffffffffffffffffffffffffffffffffffffff1614806105cb5750600460009054906101000a900473ffffffffffffffffffffffffffffffffffffffff1673ffffffffffffffffffffffffffffffffffffffff163373ffffffffffffffffffffffffffffffffffffffff16145b61060a576040517f08c379a000000000000000000000000000000000000000000000000000000000815260040161060190610fec565b60405180910390fd5b80600560008473ffffffffffffffffffffffffffffffffffffffff1673ffffffffffffffffffffffffffffffffffffffff16815260200190815260200160002060006101000a81548173ffffffffffffffffffffffffffffffffffffffff021916908373ffffffffffffffffffffffffffffffffffffffff1602179055505050565b60056020528060005260406000206000915054906101000a900473ffffffffffffffffffffffffffffffffffffffff1681565b60005481565b600360009054906101000a900473ffffffffffffffffffffffffffffffffffffffff1681565b60015481565b600460009054906101000a900473ffffffffffffffffffffffffffffffffffffffff1681565b600360009054906101000a900473ffffffffffffffffffffffffffffffffffffffff1673ffffffffffffffffffffffffffffffffffffffff163373ffffffffffffffffffffffffffffffffffffffff1614806107c05750600460009054906101000a900473ffffffffffffffffffffffffffffffffffffffff1673ffffffffffffffffffffffffffffffffffffffff163373ffffffffffffffffffffffffffffffffffffffff16145b6107ff576040517f08c379a00000000000000000000000000000000000000000000000000000000081526004016107f690610fec565b60405180910390fd5b612710811061080d57600080fd5b8060008190555050565b600360009054906101000a900473ffffffffffffffffffffffffffffffffffffffff1673ffffffffffffffffffffffffffffffffffffffff163373ffffffffffffffffffffffffffffffffffffffff16146108a7576040517f08c379a000000000000000000000000000000000000000000000000000000000815260040161089e90610fec565b60405180910390fd5b600073ffffffffffffffffffffffffffffffffffffffff168173ffffffffffffffffffffffffffffffffffffffff16036108e057600080fd5b80600360006101000a81548173ffffffffffffffffffffffffffffffffffffffff021916908373ffffffffffffffffffffffffffffffffffffffff16021790555050565b60006109338686868686610a82565b905095945050505050565b60026020528060005260406000206000915090508060000154908060010154908060020160009054906101000a900460ff16905083565b600360009054906101000a900473ffffffffffffffffffffffffffffffffffffffff1673ffffffffffffffffffffffffffffffffffffffff163373ffffffffffffffffffffffffffffffffffffffff1614610a05576040517f08c379a00000000000000000000000000000000000000000000000000000000081526004016109fc90610fec565b60405180910390fd5b600073ffffffffffffffffffffffffffffffffffffffff168173ffffffffffffffffffffffffffffffffffffffff1603610a3e57600080fd5b80600460006101000a81548173ffffffffffffffffffffffffffffffffffffffff021916908373ffffffffffffffffffffffffffffffffffffffff16021790555050565b600080600560003373ffffffffffffffffffffffffffffffffffffffff1673ffffffffffffffffffffffffffffffffffffffff16815260200190815260200160002060009054906101000a900473ffffffffffffffffffffffffffffffffffffffff169050600073ffffffffffffffffffffffffffffffffffffffff168173ffffffffffffffffffffffffffffffffffffffff1603610b2e57610b26878785610bbd565b915050610bb4565b8073ffffffffffffffffffffffffffffffffffffffff1663e53ec13f88888888336040518663ffffffff1660e01b8152600401610b6f95949392919061100c565b602060405180830381865afa158015610b8c573d6000803e3d6000fd5b505050506040513d601f19601f82011682018060405250810190610bb0919061108b565b9150505b95945050505050565b600080600260003373ffffffffffffffffffffffffffffffffffffffff1673ffffffffffffffffffffffffffffffffffffffff16815260200190815260200160002060405180606001604052908160008201548152602001600182015481526020016002820160009054906101000a900460ff1615151515815250509050600080826040015115610c5b578260000151915082602001519050610c66565b600054915060015490505b6127108286610c7591906110e7565b610c7f9190611170565b871115610c925760009350505050610cc6565b6127108186610ca191906110e7565b610cab9190611170565b861115610cbe5760009350505050610cc6565b600193505050505b9392505050565b600080fd5b600073ffffffffffffffffffffffffffffffffffffffff82169050919050565b6000610cfd82610cd2565b9050919050565b610d0d81610cf2565b8114610d1857600080fd5b50565b600081359050610d2a81610d04565b92915050565b6000819050919050565b610d4381610d30565b8114610d4e57600080fd5b50565b600081359050610d6081610d3a565b92915050565b600080600060608486031215610d7f57610d7e610ccd565b5b6000610d8d86828701610d1b565b9350506020610d9e86828701610d51565b9250506040610daf86828701610d51565b9150509250925092565b600060208284031215610dcf57610dce610ccd565b5b6000610ddd84828501610d51565b91505092915050565b60008060408385031215610dfd57610dfc610ccd565b5b6000610e0b85828601610d1b565b9250506020610e1c85828601610d1b565b9150509250929050565b600060208284031215610e3c57610e3b610ccd565b5b6000610e4a84828501610d1b565b91505092915050565b610e5c81610cf2565b82525050565b6000602082019050610e776000830184610e53565b92915050565b610e8681610d30565b82525050565b6000602082019050610ea16000830184610e7d565b92915050565b600080600080600060a08688031215610ec357610ec2610ccd565b5b6000610ed188828901610d51565b9550506020610ee288828901610d51565b9450506040610ef388828901610d51565b9350506060610f0488828901610d51565b9250506080610f1588828901610d51565b9150509295509295909350565b60008115159050919050565b610f3781610f22565b82525050565b6000602082019050610f526000830184610f2e565b92915050565b6000606082019050610f6d6000830186610e7d565b610f7a6020830185610e7d565b610f876040830184610f2e565b949350505050565b600082825260208201905092915050565b7f21617574686f72697a6564000000000000000000000000000000000000000000600082015250565b6000610fd6600b83610f8f565b9150610fe182610fa0565b602082019050919050565b6000602082019050818103600083015261100581610fc9565b9050919050565b600060a0820190506110216000830188610e7d565b61102e6020830187610e7d565b61103b6040830186610e7d565b6110486060830185610e7d565b6110556080830184610e53565b9695505050505050565b61106881610f22565b811461107357600080fd5b50565b6000815190506110858161105f565b92915050565b6000602082840312156110a1576110a0610ccd565b5b60006110af84828501611076565b91505092915050565b7f4e487b7100000000000000000000000000000000000000000000000000000000600052601160045260246000fd5b60006110f282610d30565b91506110fd83610d30565b9250817fffffffffffffffffffffffffffffffffffffffffffffffffffffffffffffffff0483118215151615611136576111356110b8565b5b828202905092915050565b7f4e487b7100000000000000000000000000000000000000000000000000000000600052601260045260246000fd5b600061117b82610d30565b915061118683610d30565b92508261119657611195611141565b5b82820490509291505056fea26469706673582212202fab30aea83716da732a7155af6afcb953c955fb161947216aabb75fc3ac11a064736f6c634300080f0033","linkReferences":{}},"methodIdentifiers":{"check(uint256,uint256,uint256,uint256,uint256)":"c70fa00b","checks(address)":"27fff0db","governance()":"5aa6e675","lossLimitRatio()":"7d969932","management()":"88a8d602","profitLimitRatio()":"4a5d0943","setCheck(address,address)":"1afdc5a2","setGovernance(address)":"ab033ea9","setManagement(address)":"d4a22bde","setProfitLimitRatio(uint256)":"950b3d73","setStrategyLimits(address,uint256,uint256)":"00fd31f0","setlossLimitRatio(uint256)":"0ef5ee02","strategiesLimits(address)":"c9354337"},"id":9}