{"abi":[{"type":"constructor","inputs":[{"name":"_decimals","type":"uint8","internalType":"uint8"}],"stateMutability":"nonpayable"},{"type":"function","name":"_blocked","inputs":[{"name":"","type":"address","internalType":"address"}],"outputs":[{"name":"","type":"bool","internalType":"bool"}],"stateMutability":"view"},{"type":"function","name":"_setBlocked","inputs":[{"name":"user","type":"address","internalType":"address"},{"name":"value","type":"bool","internalType":"bool"}],"outputs":[],"stateMutability":"nonpayable"},{"type":"function","name":"allowance","inputs":[{"name":"","type":"address","internalType":"address"},{"name":"","type":"address","internalType":"address"}],"outputs":[{"name":"","type":"uint256","internalType":"uint256"}],"stateMutability":"view"},{"type":"function","name":"approve","inputs":[{"name":"spender","type":"address","internalType":"address"},{"name":"amount","type":"uint256","internalType":"uint256"}],"outputs":[],"stateMutability":"nonpayable"},{"type":"function","name":"balanceOf","inputs":[{"name":"","type":"address","internalType":"address"}],"outputs":[{"name":"","type":"uint256","internalType":"uint256"}],"stateMutability":"view"},{"type":"function","name":"decimals","inputs":[],"outputs":[{"name":"","type":"uint8","internalType":"uint8"}],"stateMutability":"view"},{"type":"function","name":"name","inputs":[],"outputs":[{"name":"","type":"string","internalType":"string"}],"stateMutability":"view"},{"type":"function","name":"symbol","inputs":[],"outputs":[{"name":"","type":"string","internalType":"string"}],"stateMutability":"view"},{"type":"function","name":"totalSupply","inputs":[],"outputs":[{"name":"","type":"uint256","internalType":"uint256"}],"stateMutability":"view"},{"type":"function","name":"transfer","inputs":[{"name":"receiver","type":"address","internalType":"address"},{"name":"amount","type":"uint256","internalType":"uint256"}],"outputs":[],"stateMutability":"nonpayable"},{"type":"function","name":"transferFrom","inputs":[{"name":"sender","type":"address","internalType":"address"},{"name":"receiver","type":"address","internalType":"address"},{"name":"amount","type":"uint256","internalType":"uint256"}],"outputs":[],"stateMutability":"nonpayable"},{"type":"event","name":"Approval","inputs":[{"name":"owner","type":"address","indexed":true,"internalType":"address"},{"name":"spender","type":"address","indexed":true,"internalType":"address"},{"name":"value","type":"uint256","indexed":false,"internalType":"uint256"}],"anonymous":false},{"type":"event","name":"Transfer","inputs":[{"name":"from","type":"address","indexed":true,"internalType":"address"},{"name":"to","type":"address","indexed":true,"internalType":"address"},{"name":"value","type":"uint256","indexed":false,"internalType":"uint256"}],"anonymous":false}],"bytecode":{"object":"0x60806040523480156200001157600080fd5b5060405162000b6038038062000b608339810160408190526200003491620000fa565b60408051808201909152600f81526e20aaa920903a32b9ba103a37b5b2b760891b6020820152600090620000699082620001cb565b50604080518082019091526004815263151154d560e21b6020820152600190620000949082620001cb565b506002805460ff191660ff8316908117909155620000b490600a620003ac565b620000c290617530620003ba565b33600090815260046020526040902055620000e260ff8216600a620003ac565b620000f090617530620003ba565b60035550620003dc565b6000602082840312156200010d57600080fd5b815160ff811681146200011f57600080fd5b9392505050565b634e487b7160e01b600052604160045260246000fd5b600181811c908216806200015157607f821691505b6020821081036200017257634e487b7160e01b600052602260045260246000fd5b50919050565b601f821115620001c657600081815260208120601f850160051c81016020861015620001a15750805b601f850160051c820191505b81811015620001c257828155600101620001ad565b5050505b505050565b81516001600160401b03811115620001e757620001e762000126565b620001ff81620001f884546200013c565b8462000178565b602080601f8311600181146200023757600084156200021e5750858301515b600019600386901b1c1916600185901b178555620001c2565b600085815260208120601f198616915b82811015620002685788860151825594840194600190910190840162000247565b5085821015620002875787850151600019600388901b60f8161c191681555b5050505050600190811b01905550565b634e487b7160e01b600052601160045260246000fd5b600181815b80851115620002ee578160001904821115620002d257620002d262000297565b80851615620002e057918102915b93841c9390800290620002b2565b509250929050565b6000826200030757506001620003a6565b816200031657506000620003a6565b81600181146200032f57600281146200033a576200035a565b6001915050620003a6565b60ff8411156200034e576200034e62000297565b50506001821b620003a6565b5060208310610133831016604e8410600b84101617156200037f575081810a620003a6565b6200038b8383620002ad565b8060001904821115620003a257620003a262000297565b0290505b92915050565b60006200011f8383620002f6565b6000816000190483118215151615620003d757620003d762000297565b500290565b61077480620003ec6000396000f3fe608060405234801561001057600080fd5b50600436106100a95760003560e01c8063313ce56711610071578063313ce5671461013e57806370a082311461015d57806395d89b411461017d578063a51c68d514610185578063a9059cbb146101be578063dd62ed3e146101d157600080fd5b806306fdde03146100ae578063095ea7b3146100cc57806313f73eaa146100e157806318160ddd1461011457806323b872dd1461012b575b600080fd5b6100b66101fc565b6040516100c39190610507565b60405180910390f35b6100df6100da366004610578565b61028a565b005b6101046100ef3660046105a2565b60066020526000908152604090205460ff1681565b60405190151581526020016100c3565b61011d60035481565b6040519081526020016100c3565b6100df6101393660046105c4565b6102ea565b60025461014b9060ff1681565b60405160ff90911681526020016100c3565b61011d61016b3660046105a2565b60046020526000908152604090205481565b6100b6610428565b6100df610193366004610600565b6001600160a01b03919091166000908152600660205260409020805460ff1916911515919091179055565b6100df6101cc366004610578565b610435565b61011d6101df36600461063c565b600560209081526000928352604080842090915290825290205481565b600080546102099061066f565b80601f01602080910402602001604051908101604052809291908181526020018280546102359061066f565b80156102825780601f1061025757610100808354040283529160200191610282565b820191906000526020600020905b81548152906001019060200180831161026557829003601f168201915b505050505081565b3360008181526005602090815260408083206001600160a01b03871680855290835292819020859055518481529192917f8c5be1e5ebec7d5bd14f71427d1e84f3dd0314c0f7b2291e5b200ac8c7c3b92591015b60405180910390a35050565b6001600160a01b03821660009081526006602052604090205460ff161561032c5760405162461bcd60e51b8152600401610323906106a9565b60405180910390fd5b6001600160a01b038316600090815260056020908152604080832033845290915290205461035b90829061070f565b6001600160a01b03841660008181526005602090815260408083203384528252808320949094559181526004909152205461039790829061070f565b6001600160a01b0380851660009081526004602052604080822093909355908416815220546103c7908290610726565b6001600160a01b0380841660008181526004602052604090819020939093559151908516907fddf252ad1be2c89b69c2b068fc378daa952ba7f163c4a11628f55a4df523b3ef9061041b9085815260200190565b60405180910390a3505050565b600180546102099061066f565b6001600160a01b03821660009081526006602052604090205460ff161561046e5760405162461bcd60e51b8152600401610323906106a9565b3360009081526004602052604090205461048990829061070f565b33600090815260046020526040808220929092556001600160a01b038416815220546104b6908290610726565b6001600160a01b0383166000818152600460205260409081902092909255905133907fddf252ad1be2c89b69c2b068fc378daa952ba7f163c4a11628f55a4df523b3ef906102de9085815260200190565b600060208083528351808285015260005b8181101561053457858101830151858201604001528201610518565b81811115610546576000604083870101525b50601f01601f1916929092016040019392505050565b80356001600160a01b038116811461057357600080fd5b919050565b6000806040838503121561058b57600080fd5b6105948361055c565b946020939093013593505050565b6000602082840312156105b457600080fd5b6105bd8261055c565b9392505050565b6000806000606084860312156105d957600080fd5b6105e28461055c565b92506105f06020850161055c565b9150604084013590509250925092565b6000806040838503121561061357600080fd5b61061c8361055c565b91506020830135801515811461063157600080fd5b809150509250929050565b6000806040838503121561064f57600080fd5b6106588361055c565b91506106666020840161055c565b90509250929050565b600181811c9082168061068357607f821691505b6020821081036106a357634e487b7160e01b600052602260045260246000fd5b50919050565b60208082526030908201527f546f6b656e207472616e7366657220726566757365642e20526563656976657260408201526f081a5cc81bdb88189b1858dadb1a5cdd60821b606082015260800190565b634e487b7160e01b600052601160045260246000fd5b600082821015610721576107216106f9565b500390565b60008219821115610739576107396106f9565b50019056fea26469706673582212201d9141a38ff10653e150872cbc6cbc896f8dc46093b4bb8d06d16c767517901864736f6c634300080f0033","linkReferences":{}},"methodIdentifiers":{"_blocked(address)":"13f73eaa","_setBlocked(address,bool)":"a51c68d5","allowance(address,address)":"dd62ed3e","approve(address,uint256)":"095ea7b3","balanceOf(address)":"70a08231","decimals()":"313ce567","name()":"06fdde03","symbol()":"95d89b41","totalSupply()":"18160ddd","transfer(address,uint256)":"a9059cbb","transferFrom(address,address,uint256)":"23b872dd"},"id":30}