{"abi":[{"type":"constructor","inputs":[{"name":"_decimals","type":"uint8","internalType":"uint8"}],"stateMutability":"nonpayable"},{"type":"function","name":"_blocked","inputs":[{"name":"","type":"address","internalType":"address"}],"outputs":[{"name":"","type":"bool","internalType":"bool"}],"stateMutability":"view"},{"type":"function","name":"_setBlocked","inputs":[{"name":"user","type":"address","internalType":"address"},{"name":"value","type":"bool","internalType":"bool"}],"outputs":[],"stateMutability":"nonpayable"},{"type":"function","name":"allowance","inputs":[{"name":"owner","type":"address","internalType":"address"},{"name":"spender","type":"address","internalType":"address"}],"outputs":[{"name":"","type":"uint256","internalType":"uint256"}],"stateMutability":"view"},{"type":"function","name":"approve","inputs":[{"name":"spender","type":"address","internalType":"address"},{"name":"amount","type":"uint256","internalType":"uint256"}],"outputs":[{"name":"","type":"bool","internalType":"bool"}],"stateMutability":"nonpayable"},{"type":"function","name":"balanceOf","inputs":[{"name":"account","type":"address","internalType":"address"}],"outputs":[{"name":"","type":"uint256","internalType":"uint256"}],"stateMutability":"view"},{"type":"function","name":"decimals","inputs":[],"outputs":[{"name":"","type":"uint8","internalType":"uint8"}],"stateMutability":"view"},{"type":"function","name":"decreaseAllowance","inputs":[{"name":"spender","type":"address","internalType":"address"},{"name":"subtractedValue","type":"uint256","internalType":"uint256"}],"outputs":[{"name":"","type":"bool","internalType":"bool"}],"stateMutability":"nonpayable"},{"type":"function","name":"increaseAllowance","inputs":[{"name":"spender","type":"address","internalType":"address"},{"name":"addedValue","type":"uint256","internalType":"uint256"}],"outputs":[{"name":"","type":"bool","internalType":"bool"}],"stateMutability":"nonpayable"},{"type":"function","name":"name","inputs":[],"outputs":[{"name":"","type":"string","internalType":"string"}],"stateMutability":"view"},{"type":"function","name":"symbol","inputs":[],"outputs":[{"name":"","type":"string","internalType":"string"}],"stateMutability":"view"},{"type":"function","name":"totalSupply","inputs":[],"outputs":[{"name":"","type":"uint256","internalType":"uint256"}],"stateMutability":"view"},{"type":"function","name":"transfer","inputs":[{"name":"","type":"address","internalType":"address"},{"name":"","type":"uint256","internalType":"uint256"}],"outputs":[{"name":"","type":"bool","internalType":"bool"}],"stateMutability":"nonpayable"},{"type":"function","name":"transferFrom","inputs":[{"name":"","type":"address","internalType":"address"},{"name":"","type":"address","internalType":"address"},{"name":"","type":"uint256","internalType":"uint256"}],"outputs":[{"name":"","type":"bool","internalType":"bool"}],"stateMutability":"nonpayable"},{"type":"event","name":"Approval","inputs":[{"name":"owner","type":"address","indexed":true,"internalType":"address"},{"name":"spender","type":"address","indexed":true,"internalType":"address"},{"name":"value","type":"uint256","indexed":false,"internalType":"uint256"}],"anonymous":false},{"type":"event","name":"Transfer","inputs":[{"name":"from","type":"address","indexed":true,"internalType":"address"},{"name":"to","type":"address","indexed":true,"internalType":"address"},{"name":"value","type":"uint256","indexed":false,"internalType":"uint256"}],"anonymous":false}],"bytecode":{"object":"0x60a06040523480156200001157600080fd5b5060405162000c8b38038062000c8b83398101604081905262000034916200026e565b806040518060400160405280600f81526020016e20aaa920903a32b9ba103a37b5b2b760891b81525060405180604001604052806004815260200163151154d560e21b81525081600390816200008b91906200033e565b5060046200009a82826200033e565b50505060ff81166080819052620000ce903390620000ba90600a6200051f565b620000c8906175306200052d565b620000d6565b50506200056a565b6001600160a01b038216620001325760405162461bcd60e51b815260206004820152601f60248201527f45524332303a206d696e7420746f20746865207a65726f20616464726573730060448201526064015b60405180910390fd5b6200014060008383620001cd565b80600260008282546200015491906200054f565b90915550506001600160a01b03821660009081526020819052604081208054839290620001839084906200054f565b90915550506040518181526001600160a01b038316906000907fddf252ad1be2c89b69c2b068fc378daa952ba7f163c4a11628f55a4df523b3ef9060200160405180910390a35050565b6001600160a01b03821660009081526005602052604090205460ff1615620002515760405162461bcd60e51b815260206004820152603060248201527f546f6b656e207472616e7366657220726566757365642e20526563656976657260448201526f081a5cc81bdb88189b1858dadb1a5cdd60821b606482015260840162000129565b620002698383836200026960201b620003de1760201c565b505050565b6000602082840312156200028157600080fd5b815160ff811681146200029357600080fd5b9392505050565b634e487b7160e01b600052604160045260246000fd5b600181811c90821680620002c557607f821691505b602082108103620002e657634e487b7160e01b600052602260045260246000fd5b50919050565b601f8211156200026957600081815260208120601f850160051c81016020861015620003155750805b601f850160051c820191505b81811015620003365782815560010162000321565b505050505050565b81516001600160401b038111156200035a576200035a6200029a565b62000372816200036b8454620002b0565b84620002ec565b602080601f831160018114620003aa5760008415620003915750858301515b600019600386901b1c1916600185901b17855562000336565b600085815260208120601f198616915b82811015620003db57888601518255948401946001909101908401620003ba565b5085821015620003fa5787850151600019600388901b60f8161c191681555b5050505050600190811b01905550565b634e487b7160e01b600052601160045260246000fd5b600181815b80851115620004615781600019048211156200044557620004456200040a565b808516156200045357918102915b93841c939080029062000425565b509250929050565b6000826200047a5750600162000519565b81620004895750600062000519565b8160018114620004a25760028114620004ad57620004cd565b600191505062000519565b60ff841115620004c157620004c16200040a565b50506001821b62000519565b5060208310610133831016604e8410600b8410161715620004f2575081810a62000519565b620004fe838362000420565b80600019048211156200051557620005156200040a565b0290505b92915050565b600062000293838362000469565b60008160001904831182151516156200054a576200054a6200040a565b500290565b600082198211156200056557620005656200040a565b500190565b60805161070562000586600039600061016801526107056000f3fe608060405234801561001057600080fd5b50600436106100cf5760003560e01c8063395093511161008c578063a457c2d711610066578063a457c2d7146101d6578063a51c68d5146101e9578063a9059cbb14610224578063dd62ed3e1461023a57600080fd5b8063395093511461019257806370a08231146101a557806395d89b41146101ce57600080fd5b806306fdde03146100d4578063095ea7b3146100f257806313f73eaa1461011557806318160ddd1461013857806323b872dd1461014a578063313ce56714610161575b600080fd5b6100dc61024d565b6040516100e99190610507565b60405180910390f35b610105610100366004610578565b6102df565b60405190151581526020016100e9565b6101056101233660046105a2565b60056020526000908152604090205460ff1681565b6002545b6040519081526020016100e9565b6101056101583660046105c4565b60009392505050565b60405160ff7f00000000000000000000000000000000000000000000000000000000000000001681526020016100e9565b6101056101a0366004610578565b6102f7565b61013c6101b33660046105a2565b6001600160a01b031660009081526020819052604090205490565b6100dc610319565b6101056101e4366004610578565b610328565b6102226101f7366004610600565b6001600160a01b03919091166000908152600560205260409020805460ff1916911515919091179055565b005b610105610232366004610578565b600092915050565b61013c61024836600461063c565b6103b3565b60606003805461025c9061066f565b80601f01602080910402602001604051908101604052809291908181526020018280546102889061066f565b80156102d55780601f106102aa576101008083540402835291602001916102d5565b820191906000526020600020905b8154815290600101906020018083116102b857829003601f168201915b5050505050905090565b6000336102ed8185856103e3565b5060019392505050565b6000336102ed81858561030a83836103b3565b61031491906106a9565b6103e3565b60606004805461025c9061066f565b6000338161033682866103b3565b90508381101561039b5760405162461bcd60e51b815260206004820152602560248201527f45524332303a2064656372656173656420616c6c6f77616e63652062656c6f77604482015264207a65726f60d81b60648201526084015b60405180910390fd5b6103a882868684036103e3565b506001949350505050565b6001600160a01b03918216600090815260016020908152604080832093909416825291909152205490565b505050565b6001600160a01b0383166104455760405162461bcd60e51b8152602060048201526024808201527f45524332303a20617070726f76652066726f6d20746865207a65726f206164646044820152637265737360e01b6064820152608401610392565b6001600160a01b0382166104a65760405162461bcd60e51b815260206004820152602260248201527f45524332303a20617070726f766520746f20746865207a65726f206164647265604482015261737360f01b6064820152608401610392565b6001600160a01b0383811660008181526001602090815260408083209487168084529482529182902085905590518481527f8c5be1e5ebec7d5bd14f71427d1e84f3dd0314c0f7b2291e5b200ac8c7c3b925910160405180910390a3505050565b600060208083528351808285015260005b8181101561053457858101830151858201604001528201610518565b81811115610546576000604083870101525b50601f01601f1916929092016040019392505050565b80356001600160a01b038116811461057357600080fd5b919050565b6000806040838503121561058b57600080fd5b6105948361055c565b946020939093013593505050565b6000602082840312156105b457600080fd5b6105bd8261055c565b9392505050565b6000806000606084860312156105d957600080fd5b6105e28461055c565b92506105f06020850161055c565b9150604084013590509250925092565b6000806040838503121561061357600080fd5b61061c8361055c565b91506020830135801515811461063157600080fd5b809150509250929050565b6000806040838503121561064f57600080fd5b6106588361055c565b91506106666020840161055c565b90509250929050565b600181811c9082168061068357607f821691505b6020821081036106a357634e487b7160e01b600052602260045260246000fd5b50919050565b600082198211156106ca57634e487b7160e01b600052601160045260246000fd5b50019056fea26469706673582212207ac0b53a74f71c15b2c914f45b828a911bb959f94346d954cef6e1c26cefde3c64736f6c634300080f0033","linkReferences":{}},"methodIdentifiers":{"_blocked(address)":"13f73eaa","_setBlocked(address,bool)":"a51c68d5","allowance(address,address)":"dd62ed3e","approve(address,uint256)":"095ea7b3","balanceOf(address)":"70a08231","decimals()":"313ce567","decreaseAllowance(address,uint256)":"a457c2d7","increaseAllowance(address,uint256)":"39509351","name()":"06fdde03","symbol()":"95d89b41","totalSupply()":"18160ddd","transfer(address,uint256)":"a9059cbb","transferFrom(address,address,uint256)":"23b872dd"},"id":30}