{"abi":[{"type":"constructor","inputs":[{"name":"decimals_","type":"uint8","internalType":"uint8"}],"stateMutability":"nonpayable"},{"type":"function","name":"_blocked","inputs":[{"name":"","type":"address","internalType":"address"}],"outputs":[{"name":"","type":"bool","internalType":"bool"}],"stateMutability":"view"},{"type":"function","name":"_setBlocked","inputs":[{"name":"user","type":"address","internalType":"address"},{"name":"value","type":"bool","internalType":"bool"}],"outputs":[],"stateMutability":"nonpayable"},{"type":"function","name":"allowance","inputs":[{"name":"owner","type":"address","internalType":"address"},{"name":"spender","type":"address","internalType":"address"}],"outputs":[{"name":"","type":"uint256","internalType":"uint256"}],"stateMutability":"view"},{"type":"function","name":"approve","inputs":[{"name":"spender","type":"address","internalType":"address"},{"name":"amount","type":"uint256","internalType":"uint256"}],"outputs":[{"name":"","type":"bool","internalType":"bool"}],"stateMutability":"nonpayable"},{"type":"function","name":"balanceOf","inputs":[{"name":"account","type":"address","internalType":"address"}],"outputs":[{"name":"","type":"uint256","internalType":"uint256"}],"stateMutability":"view"},{"type":"function","name":"decimals","inputs":[],"outputs":[{"name":"","type":"uint8","internalType":"uint8"}],"stateMutability":"view"},{"type":"function","name":"decreaseAllowance","inputs":[{"name":"spender","type":"address","internalType":"address"},{"name":"subtractedValue","type":"uint256","internalType":"uint256"}],"outputs":[{"name":"","type":"bool","internalType":"bool"}],"stateMutability":"nonpayable"},{"type":"function","name":"increaseAllowance","inputs":[{"name":"spender","type":"address","internalType":"address"},{"name":"addedValue","type":"uint256","internalType":"uint256"}],"outputs":[{"name":"","type":"bool","internalType":"bool"}],"stateMutability":"nonpayable"},{"type":"function","name":"name","inputs":[],"outputs":[{"name":"","type":"string","internalType":"string"}],"stateMutability":"view"},{"type":"function","name":"symbol","inputs":[],"outputs":[{"name":"","type":"string","internalType":"string"}],"stateMutability":"view"},{"type":"function","name":"totalSupply","inputs":[],"outputs":[{"name":"","type":"uint256","internalType":"uint256"}],"stateMutability":"view"},{"type":"function","name":"transfer","inputs":[{"name":"to","type":"address","internalType":"address"},{"name":"amount","type":"uint256","internalType":"uint256"}],"outputs":[{"name":"","type":"bool","internalType":"bool"}],"stateMutability":"nonpayable"},{"type":"function","name":"transferFrom","inputs":[{"name":"from","type":"address","internalType":"address"},{"name":"to","type":"address","internalType":"address"},{"name":"amount","type":"uint256","internalType":"uint256"}],"outputs":[{"name":"","type":"bool","internalType":"bool"}],"stateMutability":"nonpayable"},{"type":"event","name":"Approval","inputs":[{"name":"owner","type":"address","indexed":true,"internalType":"address"},{"name":"spender","type":"address","indexed":true,"internalType":"address"},{"name":"value","type":"uint256","indexed":false,"internalType":"uint256"}],"anonymous":false},{"type":"event","name":"Transfer","inputs":[{"name":"from","type":"address","indexed":true,"internalType":"address"},{"name":"to","type":"address","indexed":true,"internalType":"address"},{"name":"value","type":"uint256","indexed":false,"internalType":"uint256"}],"anonymous":false}],"bytecode":{"object":"0x60a06040523480156200001157600080fd5b506040516200201638038062002016833981810160405281019062000037919062000382565b6040518060400160405280600f81526020017f41555241207465737420746f6b656e00000000000000000000000000000000008152506040518060400160405280600481526020017f54455354000000000000000000000000000000000000000000000000000000008152508160039081620000b491906200062e565b508060049081620000c691906200062e565b5050508060ff1660808160ff168152505062000109338260ff16600a620000ee919062000898565b617530620000fd9190620008e9565b6200011060201b60201c565b5062000af0565b600073ffffffffffffffffffffffffffffffffffffffff168273ffffffffffffffffffffffffffffffffffffffff160362000182576040517f08c379a00000000000000000000000000000000000000000000000000000000081526004016200017990620009ab565b60405180910390fd5b62000196600083836200028860201b60201c565b8060026000828254620001aa9190620009cd565b92505081905550806000808473ffffffffffffffffffffffffffffffffffffffff1673ffffffffffffffffffffffffffffffffffffffff1681526020019081526020016000206000828254620002019190620009cd565b925050819055508173ffffffffffffffffffffffffffffffffffffffff16600073ffffffffffffffffffffffffffffffffffffffff167fddf252ad1be2c89b69c2b068fc378daa952ba7f163c4a11628f55a4df523b3ef8360405162000268919062000a3b565b60405180910390a362000284600083836200033560201b60201c565b5050565b600560008373ffffffffffffffffffffffffffffffffffffffff1673ffffffffffffffffffffffffffffffffffffffff16815260200190815260200160002060009054906101000a900460ff161562000318576040517f08c379a00000000000000000000000000000000000000000000000000000000081526004016200030f9062000ace565b60405180910390fd5b620003308383836200033a60201b620006ab1760201c565b505050565b505050565b505050565b600080fd5b600060ff82169050919050565b6200035c8162000344565b81146200036857600080fd5b50565b6000815190506200037c8162000351565b92915050565b6000602082840312156200039b576200039a6200033f565b5b6000620003ab848285016200036b565b91505092915050565b600081519050919050565b7f4e487b7100000000000000000000000000000000000000000000000000000000600052604160045260246000fd5b7f4e487b7100000000000000000000000000000000000000000000000000000000600052602260045260246000fd5b600060028204905060018216806200043657607f821691505b6020821081036200044c576200044b620003ee565b5b50919050565b60008190508160005260206000209050919050565b60006020601f8301049050919050565b600082821b905092915050565b600060088302620004b67fffffffffffffffffffffffffffffffffffffffffffffffffffffffffffffffff8262000477565b620004c2868362000477565b95508019841693508086168417925050509392505050565b6000819050919050565b6000819050919050565b60006200050f620005096200050384620004da565b620004e4565b620004da565b9050919050565b6000819050919050565b6200052b83620004ee565b620005436200053a8262000516565b84845462000484565b825550505050565b600090565b6200055a6200054b565b6200056781848462000520565b505050565b5b818110156200058f576200058360008262000550565b6001810190506200056d565b5050565b601f821115620005de57620005a88162000452565b620005b38462000467565b81016020851015620005c3578190505b620005db620005d28562000467565b8301826200056c565b50505b505050565b600082821c905092915050565b60006200060360001984600802620005e3565b1980831691505092915050565b60006200061e8383620005f0565b9150826002028217905092915050565b6200063982620003b4565b67ffffffffffffffff811115620006555762000654620003bf565b5b6200066182546200041d565b6200066e82828562000593565b600060209050601f831160018114620006a6576000841562000691578287015190505b6200069d858262000610565b8655506200070d565b601f198416620006b68662000452565b60005b82811015620006e057848901518255600182019150602085019450602081019050620006b9565b86831015620007005784890151620006fc601f891682620005f0565b8355505b6001600288020188555050505b505050505050565b7f4e487b7100000000000000000000000000000000000000000000000000000000600052601160045260246000fd5b60008160011c9050919050565b6000808291508390505b6001851115620007a3578086048111156200077b576200077a62000715565b5b60018516156200078b5780820291505b80810290506200079b8562000744565b94506200075b565b94509492505050565b600082620007be576001905062000891565b81620007ce576000905062000891565b8160018114620007e75760028114620007f25762000828565b600191505062000891565b60ff84111562000807576200080662000715565b5b8360020a91508482111562000821576200082062000715565b5b5062000891565b5060208310610133831016604e8410600b8410161715620008625782820a9050838111156200085c576200085b62000715565b5b62000891565b62000871848484600162000751565b925090508184048111156200088b576200088a62000715565b5b81810290505b9392505050565b6000620008a582620004da565b9150620008b283620004da565b9250620008e17fffffffffffffffffffffffffffffffffffffffffffffffffffffffffffffffff8484620007ac565b905092915050565b6000620008f682620004da565b91506200090383620004da565b9250817fffffffffffffffffffffffffffffffffffffffffffffffffffffffffffffffff04831182151516156200093f576200093e62000715565b5b828202905092915050565b600082825260208201905092915050565b7f45524332303a206d696e7420746f20746865207a65726f206164647265737300600082015250565b600062000993601f836200094a565b9150620009a0826200095b565b602082019050919050565b60006020820190508181036000830152620009c68162000984565b9050919050565b6000620009da82620004da565b9150620009e783620004da565b9250827fffffffffffffffffffffffffffffffffffffffffffffffffffffffffffffffff0382111562000a1f5762000a1e62000715565b5b828201905092915050565b62000a3581620004da565b82525050565b600060208201905062000a52600083018462000a2a565b92915050565b7f546f6b656e207472616e7366657220726566757365642e20526563656976657260008201527f206973206f6e20626c61636b6c69737400000000000000000000000000000000602082015250565b600062000ab66030836200094a565b915062000ac38262000a58565b604082019050919050565b6000602082019050818103600083015262000ae98162000aa7565b9050919050565b60805161150a62000b0c60003960006103fa015261150a6000f3fe608060405234801561001057600080fd5b50600436106100cf5760003560e01c8063395093511161008c578063a457c2d711610066578063a457c2d71461023c578063a51c68d51461026c578063a9059cbb14610288578063dd62ed3e146102b8576100cf565b806339509351146101be57806370a08231146101ee57806395d89b411461021e576100cf565b806306fdde03146100d4578063095ea7b3146100f257806313f73eaa1461012257806318160ddd1461015257806323b872dd14610170578063313ce567146101a0575b600080fd5b6100dc6102e8565b6040516100e99190610cc7565b60405180910390f35b61010c60048036038101906101079190610d82565b61037a565b6040516101199190610ddd565b60405180910390f35b61013c60048036038101906101379190610df8565b61039d565b6040516101499190610ddd565b60405180910390f35b61015a6103bd565b6040516101679190610e34565b60405180910390f35b61018a60048036038101906101859190610e4f565b6103c7565b6040516101979190610ddd565b60405180910390f35b6101a86103f6565b6040516101b59190610ebe565b60405180910390f35b6101d860048036038101906101d39190610d82565b61041e565b6040516101e59190610ddd565b60405180910390f35b61020860048036038101906102039190610df8565b610455565b6040516102159190610e34565b60405180910390f35b61022661049d565b6040516102339190610cc7565b60405180910390f35b61025660048036038101906102519190610d82565b61052f565b6040516102639190610ddd565b60405180910390f35b61028660048036038101906102819190610f05565b6105a6565b005b6102a2600480360381019061029d9190610d82565b610601565b6040516102af9190610ddd565b60405180910390f35b6102d260048036038101906102cd9190610f45565b610624565b6040516102df9190610e34565b60405180910390f35b6060600380546102f790610fb4565b80601f016020809104026020016040519081016040528092919081815260200182805461032390610fb4565b80156103705780601f1061034557610100808354040283529160200191610370565b820191906000526020600020905b81548152906001019060200180831161035357829003601f168201915b5050505050905090565b6000806103856106b0565b90506103928185856106b8565b600191505092915050565b60056020528060005260406000206000915054906101000a900460ff1681565b6000600254905090565b6000806103d26106b0565b90506103df858285610881565b6103ea85858561090d565b60019150509392505050565b60007f0000000000000000000000000000000000000000000000000000000000000000905090565b6000806104296106b0565b905061044a81858561043b8589610624565b6104459190611014565b6106b8565b600191505092915050565b60008060008373ffffffffffffffffffffffffffffffffffffffff1673ffffffffffffffffffffffffffffffffffffffff168152602001908152602001600020549050919050565b6060600480546104ac90610fb4565b80601f01602080910402602001604051908101604052809291908181526020018280546104d890610fb4565b80156105255780601f106104fa57610100808354040283529160200191610525565b820191906000526020600020905b81548152906001019060200180831161050857829003601f168201915b5050505050905090565b60008061053a6106b0565b905060006105488286610624565b90508381101561058d576040517f08c379a0000000000000000000000000000000000000000000000000000000008152600401610584906110dc565b60405180910390fd5b61059a82868684036106b8565b60019250505092915050565b80600560008473ffffffffffffffffffffffffffffffffffffffff1673ffffffffffffffffffffffffffffffffffffffff16815260200190815260200160002060006101000a81548160ff0219169083151502179055505050565b60008061060c6106b0565b905061061981858561090d565b600191505092915050565b6000600160008473ffffffffffffffffffffffffffffffffffffffff1673ffffffffffffffffffffffffffffffffffffffff16815260200190815260200160002060008373ffffffffffffffffffffffffffffffffffffffff1673ffffffffffffffffffffffffffffffffffffffff16815260200190815260200160002054905092915050565b505050565b600033905090565b600073ffffffffffffffffffffffffffffffffffffffff168373ffffffffffffffffffffffffffffffffffffffff1603610727576040517f08c379a000000000000000000000000000000000000000000000000000000000815260040161071e9061116e565b60405180910390fd5b600073ffffffffffffffffffffffffffffffffffffffff168273ffffffffffffffffffffffffffffffffffffffff1603610796576040517f08c379a000000000000000000000000000000000000000000000000000000000815260040161078d90611200565b60405180910390fd5b80600160008573ffffffffffffffffffffffffffffffffffffffff1673ffffffffffffffffffffffffffffffffffffffff16815260200190815260200160002060008473ffffffffffffffffffffffffffffffffffffffff1673ffffffffffffffffffffffffffffffffffffffff168152602001908152602001600020819055508173ffffffffffffffffffffffffffffffffffffffff168373ffffffffffffffffffffffffffffffffffffffff167f8c5be1e5ebec7d5bd14f71427d1e84f3dd0314c0f7b2291e5b200ac8c7c3b925836040516108749190610e34565b60405180910390a3505050565b600061088d8484610624565b90507fffffffffffffffffffffffffffffffffffffffffffffffffffffffffffffffff811461090757818110156108f9576040517f08c379a00000000000000000000000000000000000000000000000000000000081526004016108f09061126c565b60405180910390fd5b61090684848484036106b8565b5b50505050565b600073ffffffffffffffffffffffffffffffffffffffff168373ffffffffffffffffffffffffffffffffffffffff160361097c576040517f08c379a0000000000000000000000000000000000000000000000000000000008152600401610973906112fe565b60405180910390fd5b600073ffffffffffffffffffffffffffffffffffffffff168273ffffffffffffffffffffffffffffffffffffffff16036109eb576040517f08c379a00000000000000000000000000000000000000000000000000000000081526004016109e290611390565b60405180910390fd5b6109f6838383610b8c565b60008060008573ffffffffffffffffffffffffffffffffffffffff1673ffffffffffffffffffffffffffffffffffffffff16815260200190815260200160002054905081811015610a7c576040517f08c379a0000000000000000000000000000000000000000000000000000000008152600401610a7390611422565b60405180910390fd5b8181036000808673ffffffffffffffffffffffffffffffffffffffff1673ffffffffffffffffffffffffffffffffffffffff16815260200190815260200160002081905550816000808573ffffffffffffffffffffffffffffffffffffffff1673ffffffffffffffffffffffffffffffffffffffff1681526020019081526020016000206000828254610b0f9190611014565b925050819055508273ffffffffffffffffffffffffffffffffffffffff168473ffffffffffffffffffffffffffffffffffffffff167fddf252ad1be2c89b69c2b068fc378daa952ba7f163c4a11628f55a4df523b3ef84604051610b739190610e34565b60405180910390a3610b86848484610c29565b50505050565b600560008373ffffffffffffffffffffffffffffffffffffffff1673ffffffffffffffffffffffffffffffffffffffff16815260200190815260200160002060009054906101000a900460ff1615610c19576040517f08c379a0000000000000000000000000000000000000000000000000000000008152600401610c10906114b4565b60405180910390fd5b610c248383836106ab565b505050565b505050565b600081519050919050565b600082825260208201905092915050565b60005b83811015610c68578082015181840152602081019050610c4d565b83811115610c77576000848401525b50505050565b6000601f19601f8301169050919050565b6000610c9982610c2e565b610ca38185610c39565b9350610cb3818560208601610c4a565b610cbc81610c7d565b840191505092915050565b60006020820190508181036000830152610ce18184610c8e565b905092915050565b600080fd5b600073ffffffffffffffffffffffffffffffffffffffff82169050919050565b6000610d1982610cee565b9050919050565b610d2981610d0e565b8114610d3457600080fd5b50565b600081359050610d4681610d20565b92915050565b6000819050919050565b610d5f81610d4c565b8114610d6a57600080fd5b50565b600081359050610d7c81610d56565b92915050565b60008060408385031215610d9957610d98610ce9565b5b6000610da785828601610d37565b9250506020610db885828601610d6d565b9150509250929050565b60008115159050919050565b610dd781610dc2565b82525050565b6000602082019050610df26000830184610dce565b92915050565b600060208284031215610e0e57610e0d610ce9565b5b6000610e1c84828501610d37565b91505092915050565b610e2e81610d4c565b82525050565b6000602082019050610e496000830184610e25565b92915050565b600080600060608486031215610e6857610e67610ce9565b5b6000610e7686828701610d37565b9350506020610e8786828701610d37565b9250506040610e9886828701610d6d565b9150509250925092565b600060ff82169050919050565b610eb881610ea2565b82525050565b6000602082019050610ed36000830184610eaf565b92915050565b610ee281610dc2565b8114610eed57600080fd5b50565b600081359050610eff81610ed9565b92915050565b60008060408385031215610f1c57610f1b610ce9565b5b6000610f2a85828601610d37565b9250506020610f3b85828601610ef0565b9150509250929050565b60008060408385031215610f5c57610f5b610ce9565b5b6000610f6a85828601610d37565b9250506020610f7b85828601610d37565b9150509250929050565b7f4e487b7100000000000000000000000000000000000000000000000000000000600052602260045260246000fd5b60006002820490506001821680610fcc57607f821691505b602082108103610fdf57610fde610f85565b5b50919050565b7f4e487b7100000000000000000000000000000000000000000000000000000000600052601160045260246000fd5b600061101f82610d4c565b915061102a83610d4c565b9250827fffffffffffffffffffffffffffffffffffffffffffffffffffffffffffffffff0382111561105f5761105e610fe5565b5b828201905092915050565b7f45524332303a2064656372656173656420616c6c6f77616e63652062656c6f7760008201527f207a65726f000000000000000000000000000000000000000000000000000000602082015250565b60006110c6602583610c39565b91506110d18261106a565b604082019050919050565b600060208201905081810360008301526110f5816110b9565b9050919050565b7f45524332303a20617070726f76652066726f6d20746865207a65726f2061646460008201527f7265737300000000000000000000000000000000000000000000000000000000602082015250565b6000611158602483610c39565b9150611163826110fc565b604082019050919050565b600060208201905081810360008301526111878161114b565b9050919050565b7f45524332303a20617070726f766520746f20746865207a65726f20616464726560008201527f7373000000000000000000000000000000000000000000000000000000000000602082015250565b60006111ea602283610c39565b91506111f58261118e565b604082019050919050565b60006020820190508181036000830152611219816111dd565b9050919050565b7f45524332303a20696e73756666696369656e7420616c6c6f77616e6365000000600082015250565b6000611256601d83610c39565b915061126182611220565b602082019050919050565b6000602082019050818103600083015261128581611249565b9050919050565b7f45524332303a207472616e736665722066726f6d20746865207a65726f20616460008201527f6472657373000000000000000000000000000000000000000000000000000000602082015250565b60006112e8602583610c39565b91506112f38261128c565b604082019050919050565b60006020820190508181036000830152611317816112db565b9050919050565b7f45524332303a207472616e7366657220746f20746865207a65726f206164647260008201527f6573730000000000000000000000000000000000000000000000000000000000602082015250565b600061137a602383610c39565b91506113858261131e565b604082019050919050565b600060208201905081810360008301526113a98161136d565b9050919050565b7f45524332303a207472616e7366657220616d6f756e742065786365656473206260008201527f616c616e63650000000000000000000000000000000000000000000000000000602082015250565b600061140c602683610c39565b9150611417826113b0565b604082019050919050565b6000602082019050818103600083015261143b816113ff565b9050919050565b7f546f6b656e207472616e7366657220726566757365642e20526563656976657260008201527f206973206f6e20626c61636b6c69737400000000000000000000000000000000602082015250565b600061149e603083610c39565b91506114a982611442565b604082019050919050565b600060208201905081810360008301526114cd81611491565b905091905056fea2646970667358221220107880311ef62242b9a36efe1952e9a1ff1c5a82fb44465f594c6f353600903364736f6c634300080f0033","linkReferences":{}},"methodIdentifiers":{"_blocked(address)":"13f73eaa","_setBlocked(address,bool)":"a51c68d5","allowance(address,address)":"dd62ed3e","approve(address,uint256)":"095ea7b3","balanceOf(address)":"70a08231","decimals()":"313ce567","decreaseAllowance(address,uint256)":"a457c2d7","increaseAllowance(address,uint256)":"39509351","name()":"06fdde03","symbol()":"95d89b41","totalSupply()":"18160ddd","transfer(address,uint256)":"a9059cbb","transferFrom(address,address,uint256)":"23b872dd"},"id":11}