{"abi":[{"type":"constructor","inputs":[{"name":"_decimals","type":"uint8","internalType":"uint8"}],"stateMutability":"nonpayable"},{"type":"function","name":"_blocked","inputs":[{"name":"","type":"address","internalType":"address"}],"outputs":[{"name":"","type":"bool","internalType":"bool"}],"stateMutability":"view"},{"type":"function","name":"_setBlocked","inputs":[{"name":"user","type":"address","internalType":"address"},{"name":"value","type":"bool","internalType":"bool"}],"outputs":[],"stateMutability":"nonpayable"},{"type":"function","name":"allowance","inputs":[{"name":"","type":"address","internalType":"address"},{"name":"","type":"address","internalType":"address"}],"outputs":[{"name":"","type":"uint256","internalType":"uint256"}],"stateMutability":"view"},{"type":"function","name":"approve","inputs":[{"name":"spender","type":"address","internalType":"address"},{"name":"amount","type":"uint256","internalType":"uint256"}],"outputs":[],"stateMutability":"nonpayable"},{"type":"function","name":"balanceOf","inputs":[{"name":"","type":"address","internalType":"address"}],"outputs":[{"name":"","type":"uint256","internalType":"uint256"}],"stateMutability":"view"},{"type":"function","name":"decimals","inputs":[],"outputs":[{"name":"","type":"uint8","internalType":"uint8"}],"stateMutability":"view"},{"type":"function","name":"name","inputs":[],"outputs":[{"name":"","type":"string","internalType":"string"}],"stateMutability":"view"},{"type":"function","name":"symbol","inputs":[],"outputs":[{"name":"","type":"string","internalType":"string"}],"stateMutability":"view"},{"type":"function","name":"totalSupply","inputs":[],"outputs":[{"name":"","type":"uint256","internalType":"uint256"}],"stateMutability":"view"},{"type":"function","name":"transfer","inputs":[{"name":"receiver","type":"address","internalType":"address"},{"name":"amount","type":"uint256","internalType":"uint256"}],"outputs":[],"stateMutability":"nonpayable"},{"type":"function","name":"transferFrom","inputs":[{"name":"sender","type":"address","internalType":"address"},{"name":"receiver","type":"address","internalType":"address"},{"name":"amount","type":"uint256","internalType":"uint256"}],"outputs":[],"stateMutability":"nonpayable"},{"type":"event","name":"Approval","inputs":[{"name":"owner","type":"address","indexed":true,"internalType":"address"},{"name":"spender","type":"address","indexed":true,"internalType":"address"},{"name":"value","type":"uint256","indexed":false,"internalType":"uint256"}],"anonymous":false},{"type":"event","name":"Transfer","inputs":[{"name":"from","type":"address","indexed":true,"internalType":"address"},{"name":"to","type":"address","indexed":true,"internalType":"address"},{"name":"value","type":"uint256","indexed":false,"internalType":"uint256"}],"anonymous":false}],"bytecode":{"object":"0x60806040523480156200001157600080fd5b50604051620016ef380380620016ef8339818101604052810190620000379190620001b5565b6040518060400160405280600f81526020017f41555241207465737420746f6b656e0000000000000000000000000000000000815250600090816200007d919062000461565b506040518060400160405280600481526020017f544553540000000000000000000000000000000000000000000000000000000081525060019081620000c4919062000461565b5080600260006101000a81548160ff021916908360ff1602179055508060ff16600a620000f29190620006cb565b6175306200010191906200071c565b600460003373ffffffffffffffffffffffffffffffffffffffff1673ffffffffffffffffffffffffffffffffffffffff168152602001908152602001600020819055508060ff16600a620001569190620006cb565b6175306200016591906200071c565b600381905550506200077d565b600080fd5b600060ff82169050919050565b6200018f8162000177565b81146200019b57600080fd5b50565b600081519050620001af8162000184565b92915050565b600060208284031215620001ce57620001cd62000172565b5b6000620001de848285016200019e565b91505092915050565b600081519050919050565b7f4e487b7100000000000000000000000000000000000000000000000000000000600052604160045260246000fd5b7f4e487b7100000000000000000000000000000000000000000000000000000000600052602260045260246000fd5b600060028204905060018216806200026957607f821691505b6020821081036200027f576200027e62000221565b5b50919050565b60008190508160005260206000209050919050565b60006020601f8301049050919050565b600082821b905092915050565b600060088302620002e97fffffffffffffffffffffffffffffffffffffffffffffffffffffffffffffffff82620002aa565b620002f58683620002aa565b95508019841693508086168417925050509392505050565b6000819050919050565b6000819050919050565b6000620003426200033c62000336846200030d565b62000317565b6200030d565b9050919050565b6000819050919050565b6200035e8362000321565b620003766200036d8262000349565b848454620002b7565b825550505050565b600090565b6200038d6200037e565b6200039a81848462000353565b505050565b5b81811015620003c257620003b660008262000383565b600181019050620003a0565b5050565b601f8211156200041157620003db8162000285565b620003e6846200029a565b81016020851015620003f6578190505b6200040e62000405856200029a565b8301826200039f565b50505b505050565b600082821c905092915050565b6000620004366000198460080262000416565b1980831691505092915050565b600062000451838362000423565b9150826002028217905092915050565b6200046c82620001e7565b67ffffffffffffffff811115620004885762000487620001f2565b5b62000494825462000250565b620004a1828285620003c6565b600060209050601f831160018114620004d95760008415620004c4578287015190505b620004d0858262000443565b86555062000540565b601f198416620004e98662000285565b60005b828110156200051357848901518255600182019150602085019450602081019050620004ec565b868310156200053357848901516200052f601f89168262000423565b8355505b6001600288020188555050505b505050505050565b7f4e487b7100000000000000000000000000000000000000000000000000000000600052601160045260246000fd5b60008160011c9050919050565b6000808291508390505b6001851115620005d657808604811115620005ae57620005ad62000548565b5b6001851615620005be5780820291505b8081029050620005ce8562000577565b94506200058e565b94509492505050565b600082620005f15760019050620006c4565b81620006015760009050620006c4565b81600181146200061a576002811462000625576200065b565b6001915050620006c4565b60ff8411156200063a576200063962000548565b5b8360020a91508482111562000654576200065362000548565b5b50620006c4565b5060208310610133831016604e8410600b8410161715620006955782820a9050838111156200068f576200068e62000548565b5b620006c4565b620006a4848484600162000584565b92509050818404811115620006be57620006bd62000548565b5b81810290505b9392505050565b6000620006d8826200030d565b9150620006e5836200030d565b9250620007147fffffffffffffffffffffffffffffffffffffffffffffffffffffffffffffffff8484620005df565b905092915050565b600062000729826200030d565b915062000736836200030d565b9250817fffffffffffffffffffffffffffffffffffffffffffffffffffffffffffffffff048311821515161562000772576200077162000548565b5b828202905092915050565b610f62806200078d6000396000f3fe608060405234801561001057600080fd5b50600436106100a95760003560e01c8063313ce56711610071578063313ce5671461015257806370a082311461017057806395d89b41146101a0578063a51c68d5146101be578063a9059cbb146101da578063dd62ed3e146101f6576100a9565b806306fdde03146100ae578063095ea7b3146100cc57806313f73eaa146100e857806318160ddd1461011857806323b872dd14610136575b600080fd5b6100b6610226565b6040516100c39190610ac3565b60405180910390f35b6100e660048036038101906100e19190610b7e565b6102b4565b005b61010260048036038101906100fd9190610bbe565b61039e565b60405161010f9190610c06565b60405180910390f35b6101206103be565b60405161012d9190610c30565b60405180910390f35b610150600480360381019061014b9190610c4b565b6103c4565b005b61015a6106df565b6040516101679190610cba565b60405180910390f35b61018a60048036038101906101859190610bbe565b6106f2565b6040516101979190610c30565b60405180910390f35b6101a861070a565b6040516101b59190610ac3565b60405180910390f35b6101d860048036038101906101d39190610d01565b610798565b005b6101f460048036038101906101ef9190610b7e565b6107f3565b005b610210600480360381019061020b9190610d41565b610a05565b60405161021d9190610c30565b60405180910390f35b6000805461023390610db0565b80601f016020809104026020016040519081016040528092919081815260200182805461025f90610db0565b80156102ac5780601f10610281576101008083540402835291602001916102ac565b820191906000526020600020905b81548152906001019060200180831161028f57829003601f168201915b505050505081565b80600560003373ffffffffffffffffffffffffffffffffffffffff1673ffffffffffffffffffffffffffffffffffffffff16815260200190815260200160002060008473ffffffffffffffffffffffffffffffffffffffff1673ffffffffffffffffffffffffffffffffffffffff168152602001908152602001600020819055508173ffffffffffffffffffffffffffffffffffffffff163373ffffffffffffffffffffffffffffffffffffffff167f8c5be1e5ebec7d5bd14f71427d1e84f3dd0314c0f7b2291e5b200ac8c7c3b925836040516103929190610c30565b60405180910390a35050565b60066020528060005260406000206000915054906101000a900460ff1681565b60035481565b600660008373ffffffffffffffffffffffffffffffffffffffff1673ffffffffffffffffffffffffffffffffffffffff16815260200190815260200160002060009054906101000a900460ff1615610451576040517f08c379a000000000000000000000000000000000000000000000000000000000815260040161044890610e53565b60405180910390fd5b80600560008573ffffffffffffffffffffffffffffffffffffffff1673ffffffffffffffffffffffffffffffffffffffff16815260200190815260200160002060003373ffffffffffffffffffffffffffffffffffffffff1673ffffffffffffffffffffffffffffffffffffffff168152602001908152602001600020546104d99190610ea2565b600560008573ffffffffffffffffffffffffffffffffffffffff1673ffffffffffffffffffffffffffffffffffffffff16815260200190815260200160002060003373ffffffffffffffffffffffffffffffffffffffff1673ffffffffffffffffffffffffffffffffffffffff1681526020019081526020016000208190555080600460008573ffffffffffffffffffffffffffffffffffffffff1673ffffffffffffffffffffffffffffffffffffffff168152602001908152602001600020546105a49190610ea2565b600460008573ffffffffffffffffffffffffffffffffffffffff1673ffffffffffffffffffffffffffffffffffffffff1681526020019081526020016000208190555080600460008473ffffffffffffffffffffffffffffffffffffffff1673ffffffffffffffffffffffffffffffffffffffff168152602001908152602001600020546106329190610ed6565b600460008473ffffffffffffffffffffffffffffffffffffffff1673ffffffffffffffffffffffffffffffffffffffff168152602001908152602001600020819055508173ffffffffffffffffffffffffffffffffffffffff168373ffffffffffffffffffffffffffffffffffffffff167fddf252ad1be2c89b69c2b068fc378daa952ba7f163c4a11628f55a4df523b3ef836040516106d29190610c30565b60405180910390a3505050565b600260009054906101000a900460ff1681565b60046020528060005260406000206000915090505481565b6001805461071790610db0565b80601f016020809104026020016040519081016040528092919081815260200182805461074390610db0565b80156107905780601f1061076557610100808354040283529160200191610790565b820191906000526020600020905b81548152906001019060200180831161077357829003601f168201915b505050505081565b80600660008473ffffffffffffffffffffffffffffffffffffffff1673ffffffffffffffffffffffffffffffffffffffff16815260200190815260200160002060006101000a81548160ff0219169083151502179055505050565b600660008373ffffffffffffffffffffffffffffffffffffffff1673ffffffffffffffffffffffffffffffffffffffff16815260200190815260200160002060009054906101000a900460ff1615610880576040517f08c379a000000000000000000000000000000000000000000000000000000000815260040161087790610e53565b60405180910390fd5b80600460003373ffffffffffffffffffffffffffffffffffffffff1673ffffffffffffffffffffffffffffffffffffffff168152602001908152602001600020546108cb9190610ea2565b600460003373ffffffffffffffffffffffffffffffffffffffff1673ffffffffffffffffffffffffffffffffffffffff1681526020019081526020016000208190555080600460008473ffffffffffffffffffffffffffffffffffffffff1673ffffffffffffffffffffffffffffffffffffffff168152602001908152602001600020546109599190610ed6565b600460008473ffffffffffffffffffffffffffffffffffffffff1673ffffffffffffffffffffffffffffffffffffffff168152602001908152602001600020819055508173ffffffffffffffffffffffffffffffffffffffff163373ffffffffffffffffffffffffffffffffffffffff167fddf252ad1be2c89b69c2b068fc378daa952ba7f163c4a11628f55a4df523b3ef836040516109f99190610c30565b60405180910390a35050565b6005602052816000526040600020602052806000526040600020600091509150505481565b600081519050919050565b600082825260208201905092915050565b60005b83811015610a64578082015181840152602081019050610a49565b83811115610a73576000848401525b50505050565b6000601f19601f8301169050919050565b6000610a9582610a2a565b610a9f8185610a35565b9350610aaf818560208601610a46565b610ab881610a79565b840191505092915050565b60006020820190508181036000830152610add8184610a8a565b905092915050565b600080fd5b600073ffffffffffffffffffffffffffffffffffffffff82169050919050565b6000610b1582610aea565b9050919050565b610b2581610b0a565b8114610b3057600080fd5b50565b600081359050610b4281610b1c565b92915050565b6000819050919050565b610b5b81610b48565b8114610b6657600080fd5b50565b600081359050610b7881610b52565b92915050565b60008060408385031215610b9557610b94610ae5565b5b6000610ba385828601610b33565b9250506020610bb485828601610b69565b9150509250929050565b600060208284031215610bd457610bd3610ae5565b5b6000610be284828501610b33565b91505092915050565b60008115159050919050565b610c0081610beb565b82525050565b6000602082019050610c1b6000830184610bf7565b92915050565b610c2a81610b48565b82525050565b6000602082019050610c456000830184610c21565b92915050565b600080600060608486031215610c6457610c63610ae5565b5b6000610c7286828701610b33565b9350506020610c8386828701610b33565b9250506040610c9486828701610b69565b9150509250925092565b600060ff82169050919050565b610cb481610c9e565b82525050565b6000602082019050610ccf6000830184610cab565b92915050565b610cde81610beb565b8114610ce957600080fd5b50565b600081359050610cfb81610cd5565b92915050565b60008060408385031215610d1857610d17610ae5565b5b6000610d2685828601610b33565b9250506020610d3785828601610cec565b9150509250929050565b60008060408385031215610d5857610d57610ae5565b5b6000610d6685828601610b33565b9250506020610d7785828601610b33565b9150509250929050565b7f4e487b7100000000000000000000000000000000000000000000000000000000600052602260045260246000fd5b60006002820490506001821680610dc857607f821691505b602082108103610ddb57610dda610d81565b5b50919050565b7f546f6b656e207472616e7366657220726566757365642e20526563656976657260008201527f206973206f6e20626c61636b6c69737400000000000000000000000000000000602082015250565b6000610e3d603083610a35565b9150610e4882610de1565b604082019050919050565b60006020820190508181036000830152610e6c81610e30565b9050919050565b7f4e487b7100000000000000000000000000000000000000000000000000000000600052601160045260246000fd5b6000610ead82610b48565b9150610eb883610b48565b925082821015610ecb57610eca610e73565b5b828203905092915050565b6000610ee182610b48565b9150610eec83610b48565b9250827fffffffffffffffffffffffffffffffffffffffffffffffffffffffffffffffff03821115610f2157610f20610e73565b5b82820190509291505056fea264697066735822122059f3272194276f08367a28d41e9c9333d4485fbde6911a419cad8973d836c46564736f6c634300080f0033","linkReferences":{}},"methodIdentifiers":{"_blocked(address)":"13f73eaa","_setBlocked(address,bool)":"a51c68d5","allowance(address,address)":"dd62ed3e","approve(address,uint256)":"095ea7b3","balanceOf(address)":"70a08231","decimals()":"313ce567","name()":"06fdde03","symbol()":"95d89b41","totalSupply()":"18160ddd","transfer(address,uint256)":"a9059cbb","transferFrom(address,address,uint256)":"23b872dd"},"id":11}