{"abi":[{"type":"constructor","inputs":[{"name":"_vault","type":"address","internalType":"address"}],"stateMutability":"nonpayable"},{"type":"function","name":"_setWant","inputs":[{"name":"_want","type":"address","internalType":"contract IERC20"}],"outputs":[],"stateMutability":"nonpayable"},{"type":"function","name":"_takeFunds","inputs":[{"name":"amount","type":"uint256","internalType":"uint256"}],"outputs":[],"stateMutability":"nonpayable"},{"type":"function","name":"_toggleDelegation","inputs":[],"outputs":[],"stateMutability":"nonpayable"},{"type":"function","name":"_toggleReentrancyExploit","inputs":[],"outputs":[],"stateMutability":"nonpayable"},{"type":"function","name":"apiVersion","inputs":[],"outputs":[{"name":"","type":"string","internalType":"string"}],"stateMutability":"pure"},{"type":"function","name":"baseFeeOracle","inputs":[],"outputs":[{"name":"","type":"address","internalType":"address"}],"stateMutability":"view"},{"type":"function","name":"creditThreshold","inputs":[],"outputs":[{"name":"","type":"uint256","internalType":"uint256"}],"stateMutability":"view"},{"type":"function","name":"delegateEverything","inputs":[],"outputs":[{"name":"","type":"bool","internalType":"bool"}],"stateMutability":"view"},{"type":"function","name":"delegatedAssets","inputs":[],"outputs":[{"name":"","type":"uint256","internalType":"uint256"}],"stateMutability":"view"},{"type":"function","name":"doHealthCheck","inputs":[],"outputs":[{"name":"","type":"bool","internalType":"bool"}],"stateMutability":"view"},{"type":"function","name":"doReentrancy","inputs":[],"outputs":[{"name":"","type":"bool","internalType":"bool"}],"stateMutability":"view"},{"type":"function","name":"emergencyExit","inputs":[],"outputs":[{"name":"","type":"bool","internalType":"bool"}],"stateMutability":"view"},{"type":"function","name":"estimatedTotalAssets","inputs":[],"outputs":[{"name":"","type":"uint256","internalType":"uint256"}],"stateMutability":"view"},{"type":"function","name":"ethToWant","inputs":[{"name":"amtInWei","type":"uint256","internalType":"uint256"}],"outputs":[{"name":"","type":"uint256","internalType":"uint256"}],"stateMutability":"pure"},{"type":"function","name":"forceHarvestTriggerOnce","inputs":[],"outputs":[{"name":"","type":"bool","internalType":"bool"}],"stateMutability":"view"},{"type":"function","name":"harvest","inputs":[],"outputs":[],"stateMutability":"nonpayable"},{"type":"function","name":"harvestTrigger","inputs":[{"name":"","type":"uint256","internalType":"uint256"}],"outputs":[{"name":"","type":"bool","internalType":"bool"}],"stateMutability":"view"},{"type":"function","name":"healthCheck","inputs":[],"outputs":[{"name":"","type":"address","internalType":"address"}],"stateMutability":"view"},{"type":"function","name":"isActive","inputs":[],"outputs":[{"name":"","type":"bool","internalType":"bool"}],"stateMutability":"view"},{"type":"function","name":"isBaseFeeAcceptable","inputs":[],"outputs":[{"name":"","type":"bool","internalType":"bool"}],"stateMutability":"view"},{"type":"function","name":"keeper","inputs":[],"outputs":[{"name":"","type":"address","internalType":"address"}],"stateMutability":"view"},{"type":"function","name":"maxReportDelay","inputs":[],"outputs":[{"name":"","type":"uint256","internalType":"uint256"}],"stateMutability":"view"},{"type":"function","name":"metadataURI","inputs":[],"outputs":[{"name":"","type":"string","internalType":"string"}],"stateMutability":"view"},{"type":"function","name":"migrate","inputs":[{"name":"_newStrategy","type":"address","internalType":"address"}],"outputs":[],"stateMutability":"nonpayable"},{"type":"function","name":"minReportDelay","inputs":[],"outputs":[{"name":"","type":"uint256","internalType":"uint256"}],"stateMutability":"view"},{"type":"function","name":"name","inputs":[],"outputs":[{"name":"","type":"string","internalType":"string"}],"stateMutability":"pure"},{"type":"function","name":"protectedToken","inputs":[],"outputs":[{"name":"","type":"address","internalType":"address"}],"stateMutability":"view"},{"type":"function","name":"rewards","inputs":[],"outputs":[{"name":"","type":"address","internalType":"address"}],"stateMutability":"view"},{"type":"function","name":"setBaseFeeOracle","inputs":[{"name":"_baseFeeOracle","type":"address","internalType":"address"}],"outputs":[],"stateMutability":"nonpayable"},{"type":"function","name":"setCreditThreshold","inputs":[{"name":"_creditThreshold","type":"uint256","internalType":"uint256"}],"outputs":[],"stateMutability":"nonpayable"},{"type":"function","name":"setDoHealthCheck","inputs":[{"name":"_doHealthCheck","type":"bool","internalType":"bool"}],"outputs":[],"stateMutability":"nonpayable"},{"type":"function","name":"setEmergencyExit","inputs":[],"outputs":[],"stateMutability":"nonpayable"},{"type":"function","name":"setForceHarvestTriggerOnce","inputs":[{"name":"_forceHarvestTriggerOnce","type":"bool","internalType":"bool"}],"outputs":[],"stateMutability":"nonpayable"},{"type":"function","name":"setHealthCheck","inputs":[{"name":"_healthCheck","type":"address","internalType":"address"}],"outputs":[],"stateMutability":"nonpayable"},{"type":"function","name":"setKeeper","inputs":[{"name":"_keeper","type":"address","internalType":"address"}],"outputs":[],"stateMutability":"nonpayable"},{"type":"function","name":"setMaxReportDelay","inputs":[{"name":"_delay","type":"uint256","internalType":"uint256"}],"outputs":[],"stateMutability":"nonpayable"},{"type":"function","name":"setMetadataURI","inputs":[{"name":"_metadataURI","type":"string","internalType":"string"}],"outputs":[],"stateMutability":"nonpayable"},{"type":"function","name":"setMinReportDelay","inputs":[{"name":"_delay","type":"uint256","internalType":"uint256"}],"outputs":[],"stateMutability":"nonpayable"},{"type":"function","name":"setRewards","inputs":[{"name":"_rewards","type":"address","internalType":"address"}],"outputs":[],"stateMutability":"nonpayable"},{"type":"function","name":"setStrategist","inputs":[{"name":"_strategist","type":"address","internalType":"address"}],"outputs":[],"stateMutability":"nonpayable"},{"type":"function","name":"strategist","inputs":[],"outputs":[{"name":"","type":"address","internalType":"address"}],"stateMutability":"view"},{"type":"function","name":"sweep","inputs":[{"name":"_token","type":"address","internalType":"address"}],"outputs":[],"stateMutability":"nonpayable"},{"type":"function","name":"tend","inputs":[],"outputs":[],"stateMutability":"nonpayable"},{"type":"function","name":"tendTrigger","inputs":[{"name":"","type":"uint256","internalType":"uint256"}],"outputs":[{"name":"","type":"bool","internalType":"bool"}],"stateMutability":"view"},{"type":"function","name":"vault","inputs":[],"outputs":[{"name":"","type":"address","internalType":"contract VaultAPI"}],"stateMutability":"view"},{"type":"function","name":"want","inputs":[],"outputs":[{"name":"","type":"address","internalType":"contract IERC20"}],"stateMutability":"view"},{"type":"function","name":"withdraw","inputs":[{"name":"_amountNeeded","type":"uint256","internalType":"uint256"}],"outputs":[{"name":"_loss","type":"uint256","internalType":"uint256"}],"stateMutability":"nonpayable"},{"type":"event","name":"EmergencyExitEnabled","inputs":[],"anonymous":false},{"type":"event","name":"ForcedHarvestTrigger","inputs":[{"name":"triggerState","type":"bool","indexed":false,"internalType":"bool"}],"anonymous":false},{"type":"event","name":"Harvested","inputs":[{"name":"profit","type":"uint256","indexed":false,"internalType":"uint256"},{"name":"loss","type":"uint256","indexed":false,"internalType":"uint256"},{"name":"debtPayment","type":"uint256","indexed":false,"internalType":"uint256"},{"name":"debtOutstanding","type":"uint256","indexed":false,"internalType":"uint256"}],"anonymous":false},{"type":"event","name":"SetDoHealthCheck","inputs":[{"name":"","type":"bool","indexed":false,"internalType":"bool"}],"anonymous":false},{"type":"event","name":"SetHealthCheck","inputs":[{"name":"","type":"address","indexed":false,"internalType":"address"}],"anonymous":false},{"type":"event","name":"UpdatedBaseFeeOracle","inputs":[{"name":"baseFeeOracle","type":"address","indexed":false,"internalType":"address"}],"anonymous":false},{"type":"event","name":"UpdatedCreditThreshold","inputs":[{"name":"creditThreshold","type":"uint256","indexed":false,"internalType":"uint256"}],"anonymous":false},{"type":"event","name":"UpdatedKeeper","inputs":[{"name":"newKeeper","type":"address","indexed":false,"internalType":"address"}],"anonymous":false},{"type":"event","name":"UpdatedMaxReportDelay","inputs":[{"name":"delay","type":"uint256","indexed":false,"internalType":"uint256"}],"anonymous":false},{"type":"event","name":"UpdatedMetadataURI","inputs":[{"name":"metadataURI","type":"string","indexed":false,"internalType":"string"}],"anonymous":false},{"type":"event","name":"UpdatedMinReportDelay","inputs":[{"name":"delay","type":"uint256","indexed":false,"internalType":"uint256"}],"anonymous":false},{"type":"event","name":"UpdatedRewards","inputs":[{"name":"rewards","type":"address","indexed":false,"internalType":"address"}],"anonymous":false},{"type":"event","name":"UpdatedStrategist","inputs":[{"name":"newStrategist","type":"address","indexed":false,"internalType":"address"}],"anonymous":false}],"bytecode":{"object":"0x60806040523480156200001157600080fd5b506040516200300938038062003009833981016040819052620000349162000678565b8062000043813380806200004b565b5050620008ac565b6006546001600160a01b031615620000aa5760405162461bcd60e51b815260206004820152601c60248201527f537472617465677920616c726561647920696e697469616c697a65640000000060448201526064015b60405180910390fd5b600280546001600160a01b0319166001600160a01b03861690811790915560408051637e062a3560e11b8152905163fc0c546a916004808201926020929091908290030181865afa15801562000104573d6000803e3d6000fd5b505050506040513d601f19601f820116820180604052508101906200012a919062000678565b600680546001600160a01b0319166001600160a01b03929092169182179055620001649085600019620002b6602090811b6200179017901c565b600380546001600160a01b038086166001600160a01b031992831617909255600480548584169083161781556005805485851693169290921790915562278d006008556002546040805163313ce56760e01b81529051919093169263313ce56792818101926020929091908290030181865afa158015620001e9573d6000803e3d6000fd5b505050506040513d601f19601f820116820180604052508101906200020f9190620006a3565b6200021c90600a620007d2565b6200022b90620f4240620007e0565b600a556002546004805460405163095ea7b360e01b81526001600160a01b039182169281019290925260001960248301529091169063095ea7b3906044016020604051808303816000875af115801562000289573d6000803e3d6000fd5b505050506040513d601f19601f82011682018060405250810190620002af919062000802565b5050505050565b801580620003345750604051636eb1769f60e11b81523060048201526001600160a01b03838116602483015284169063dd62ed3e90604401602060405180830381865afa1580156200030c573d6000803e3d6000fd5b505050506040513d601f19601f82011682018060405250810190620003329190620006a3565b155b620003a85760405162461bcd60e51b815260206004820152603660248201527f5361666545524332303a20617070726f76652066726f6d206e6f6e2d7a65726f60448201527f20746f206e6f6e2d7a65726f20616c6c6f77616e6365000000000000000000006064820152608401620000a1565b604080516001600160a01b038416602482015260448082018490528251808303909101815260649091019091526020810180516001600160e01b0390811663095ea7b360e01b17909152620004009185916200040516565b505050565b600062000461826040518060400160405280602081526020017f5361666545524332303a206c6f772d6c6576656c2063616c6c206661696c6564815250856001600160a01b0316620004e360201b620018dd179092919060201c565b80519091501562000400578080602001905181019062000482919062000802565b620004005760405162461bcd60e51b815260206004820152602a60248201527f5361666545524332303a204552433230206f7065726174696f6e20646964206e6044820152691bdd081cdd58d8d9595960b21b6064820152608401620000a1565b6060620004f48484600085620004fe565b90505b9392505050565b606082471015620005615760405162461bcd60e51b815260206004820152602660248201527f416464726573733a20696e73756666696369656e742062616c616e636520666f6044820152651c8818d85b1b60d21b6064820152608401620000a1565b6001600160a01b0385163b620005ba5760405162461bcd60e51b815260206004820152601d60248201527f416464726573733a2063616c6c20746f206e6f6e2d636f6e74726163740000006044820152606401620000a1565b600080866001600160a01b03168587604051620005d8919062000859565b60006040518083038185875af1925050503d806000811462000617576040519150601f19603f3d011682016040523d82523d6000602084013e6200061c565b606091505b5090925090506200062f8282866200063a565b979650505050505050565b606083156200064b575081620004f7565b8251156200065c5782518084602001fd5b8160405162461bcd60e51b8152600401620000a1919062000877565b6000602082840312156200068b57600080fd5b81516001600160a01b0381168114620004f757600080fd5b600060208284031215620006b657600080fd5b5051919050565b634e487b7160e01b600052601160045260246000fd5b600181815b8085111562000714578160001904821115620006f857620006f8620006bd565b808516156200070657918102915b93841c9390800290620006d8565b509250929050565b6000826200072d57506001620007cc565b816200073c57506000620007cc565b8160018114620007555760028114620007605762000780565b6001915050620007cc565b60ff841115620007745762000774620006bd565b50506001821b620007cc565b5060208310610133831016604e8410600b8410161715620007a5575081810a620007cc565b620007b18383620006d3565b8060001904821115620007c857620007c8620006bd565b0290505b92915050565b6000620004f783836200071c565b6000816000190483118215151615620007fd57620007fd620006bd565b500290565b6000602082840312156200081557600080fd5b81518015158114620004f757600080fd5b60005b838110156200084357818101518382015260200162000829565b8381111562000853576000848401525b50505050565b600082516200086d81846020870162000826565b9190910192915050565b60208152600082518060208401526200089881604085016020870162000826565b601f01601f19169190910160400192915050565b61274d80620008bc6000396000f3fe608060405234801561001057600080fd5b50600436106102955760003560e01c80638e6350e211610167578063ce5494bb116100ce578063efbb5cb011610087578063efbb5cb0146105b1578063f017c92f146105b9578063fba04a44146105cc578063fbfa77cf146105df578063fcf2d0ad146105f2578063fe2508a6146105fa57600080fd5b8063ce5494bb1461052c578063d0e8577d1461053f578063d64a42e91461056f578063d653943a14610582578063ec38a8621461058b578063ed882c2b1461059e57600080fd5b8063aa5480cf11610120578063aa5480cf146104b3578063ac00ff26146104bc578063aced1661146104cf578063b252720b146104e2578063b30db32c146104fa578063c7b9d5301461051957600080fd5b80638e6350e21461046757806395326e2d1461046f57806395e80c50146104775780639ec5a894146104805780639f450b5a14610493578063a763cf5b146104a657600080fd5b80632e1a7d4d1161020b578063650d1880116101c4578063650d1880146103f75780636718835f1461040b578063748747e614610418578063750521f51461042b578063780022a01461043e578063826cddf61461044f57600080fd5b80632e1a7d4d1461039757806339a172a8146103aa578063440368a3146103bd5780634641257d146103c557806352052af8146103cd5780635641ec03146103ea57600080fd5b806311bc82451161025d57806311bc8245146103065780631f1fcd51146103195780631fe4a6861461034457806322f3e2d414610357578063258294101461035f57806328b7ccf71461038057600080fd5b806301681a621461029a57806303aaab6f146102af57806303ee438c146102d657806306fdde03146102eb5780630ada4dab146102f3575b600080fd5b6102ad6102a83660046122b4565b61060d565b005b600b546102c190610100900460ff1681565b60405190151581526020015b60405180910390f35b6102de6107c2565b6040516102cd9190612301565b6102de610850565b6102ad610301366004612342565b610898565b6102ad6103143660046122b4565b6108e8565b60065461032c906001600160a01b031681565b6040516001600160a01b0390911681526020016102cd565b60035461032c906001600160a01b031681565b6102c1610954565b60408051808201909152600581526418171a171b60d91b60208201526102de565b61038960085481565b6040519081526020016102cd565b6103896103a536600461235f565b6109e2565b6102ad6103b836600461235f565b610a56565b6102ad610a93565b6102ad610b0f565b600b805461ff001981166101009182900460ff1615909102179055005b6009546102c19060ff1681565b6102c161040536600461235f565b50600090565b6001546102c19060ff1681565b6102ad6104263660046122b4565b610eb4565b6102ad610439366004612378565b610f1d565b61038961044c36600461235f565b90565b60095461032c9061010090046001600160a01b031681565b610389610f70565b6102c1610ffa565b61038960075481565b60045461032c906001600160a01b031681565b6102ad6104a13660046122b4565b61108f565b600b546102c19060ff1681565b610389600a5481565b6102ad6104ca366004612342565b6110ed565b60055461032c906001600160a01b031681565b60015461032c9061010090046001600160a01b031681565b600b805462ff0000198116620100009182900460ff1615909102179055005b6102ad6105273660046122b4565b61113d565b6102ad61053a3660046122b4565b6111a6565b6102ad61054d3660046122b4565b600680546001600160a01b0319166001600160a01b0392909216919091179055565b600b546102c19062010000900460ff1681565b61032c610bad81565b6102ad6105993660046122b4565b6112c5565b6102c16105ac36600461235f565b611423565b610389611573565b6102ad6105c736600461235f565b6115e0565b6102ad6105da36600461235f565b61161d565b60025461032c906001600160a01b031681565b6102ad611634565b6102ad61060836600461235f565b611753565b6106156118f6565b6006546001600160a01b03908116908216036106605760405162461bcd60e51b8152602060048201526005602482015264085dd85b9d60da1b60448201526064015b60405180910390fd5b6002546001600160a01b03908116908216036106a85760405162461bcd60e51b81526020600482015260076024820152662173686172657360c81b6044820152606401610657565b60006106b261191b565b905060005b8151811015610739578181815181106106d2576106d26123ea565b60200260200101516001600160a01b0316836001600160a01b0316036107275760405162461bcd60e51b815260206004820152600a602482015269085c1c9bdd1958dd195960b21b6044820152606401610657565b8061073181612416565b9150506106b7565b506107be610745611974565b6040516370a0823160e01b81523060048201526001600160a01b038516906370a0823190602401602060405180830381865afa158015610789573d6000803e3d6000fd5b505050506040513d601f19601f820116820180604052508101906107ad919061242f565b6001600160a01b03851691906119e2565b5050565b600080546107cf90612448565b80601f01602080910402602001604051908101604052809291908181526020018280546107fb90612448565b80156108485780601f1061081d57610100808354040283529160200191610848565b820191906000526020600020905b81548152906001019060200180831161082b57829003601f168201915b505050505081565b606061087460408051808201909152600581526418171a171b60d91b602082015290565b604051602001610884919061247c565b604051602081830303815290604052905090565b6108a0611a12565b600b805460ff19168215159081179091556040519081527f6ad28df1b554fa6cacd46ae82fa811748d53798feeb437ddf234bf3083953319906020015b60405180910390a150565b6108f0611a12565b6040516001600160a01b03821681527fc8db9c35f716b87af1fbb83f03c78646061931269301fd7ba6dcf189b4cdc2fc9060200160405180910390a1600180546001600160a01b0390921661010002610100600160a81b0319909216919091179055565b6002546040516339ebf82360e01b815230600482015260009182916001600160a01b03909116906339ebf8239060240161012060405180830381865afa1580156109a2573d6000803e3d6000fd5b505050506040513d601f19601f820116820180604052508101906109c691906124f1565b6040015111806109dd575060006109db611573565b115b905090565b6002546000906001600160a01b03163314610a285760405162461bcd60e51b8152602060048201526006602482015265085d985d5b1d60d21b6044820152606401610657565b6000610a3383611ab4565b600654909350909150610a50906001600160a01b031633836119e2565b50919050565b610a5e611cda565b60078190556040518181527fbb2c369a0355a34b02ab5fce0643150c87e1c8dfe7c918d465591879f57948b1906020016108dd565b610a9b611cf6565b6002546040805163bf3759b560e01b81529051610b0d926001600160a01b03169163bf3759b59160048083019260209291908290030181865afa158015610ae6573d6000803e3d6000fd5b505050506040513d601f19601f82011682018060405250810190610b0a919061242f565b50565b565b610b17611cf6565b6000806000600260009054906101000a90046001600160a01b03166001600160a01b031663bf3759b56040518163ffffffff1660e01b8152600401602060405180830381865afa158015610b6f573d6000803e3d6000fd5b505050506040513d601f19601f82011682018060405250810190610b93919061242f565b60095490915060009060ff1615610bf0576000610bae611e4b565b905082811015610bc957610bc2818461256c565b9350610bde565b82811115610bde57610bdb838261256c565b94505b610be8848461256c565b915050610c01565b610bf982611ec2565b919550935090505b600b805460ff19169055604051600081527f6ad28df1b554fa6cacd46ae82fa811748d53798feeb437ddf234bf30839533199060200160405180910390a16002546040516339ebf82360e01b81523060048201526000916001600160a01b0316906339ebf8239060240161012060405180830381865afa158015610c89573d6000803e3d6000fd5b505050506040513d601f19601f82011682018060405250810190610cad91906124f1565b60c001516002546040516328766ebf60e21b81526004810188905260248101879052604481018590529192506001600160a01b03169063a1d9bafc906064016020604051808303816000875af1158015610d0b573d6000803e3d6000fd5b505050506040513d601f19601f82011682018060405250810190610d2f919061242f565b925060015460ff168015610d52575060015461010090046001600160a01b031615155b15610e245760015460405163c70fa00b60e01b815260048101879052602481018690526044810184905260648101859052608481018390526101009091046001600160a01b03169063c70fa00b9060a401602060405180830381865afa158015610dc0573d6000803e3d6000fd5b505050506040513d601f19601f82011682018060405250810190610de49190612583565b610e1f5760405162461bcd60e51b815260206004820152600c60248201526b216865616c7468636865636b60a01b6044820152606401610657565b610e65565b604051600181527ff769f6bf659bbbdabf212d830720ce893eedc57f25ebb8e44edf5b300618a35b9060200160405180910390a16001805460ff1916811790555b6040805186815260208101869052908101839052606081018490527f4c0f499ffe6befa0ca7c826b0916cf87bea98de658013e76938489368d60d5099060800160405180910390a15050505050565b610ebc611cda565b6001600160a01b038116610ecf57600080fd5b600580546001600160a01b0319166001600160a01b0383169081179091556040519081527f2f202ddb4a2e345f6323ed90f8fc8559d770a7abbbeee84dde8aca3351fe7154906020016108dd565b610f25611cda565b6000610f328284836125ee565b507f300e67d5a415b6d015a471d9c7b95dd58f3e8290af965e84e0f845de2996dda68282604051610f649291906126af565b60405180910390a15050565b600b5460009062010000900460ff1615610405576002546040516339ebf82360e01b81523060048201526001600160a01b03909116906339ebf8239060240161012060405180830381865afa158015610fcd573d6000803e3d6000fd5b505050506040513d601f19601f82011682018060405250810190610ff191906124f1565b60c00151905090565b60095460009061010090046001600160a01b03166110185750600190565b600960019054906101000a90046001600160a01b03166001600160a01b03166334a9e75c6040518163ffffffff1660e01b8152600401602060405180830381865afa15801561106b573d6000803e3d6000fd5b505050506040513d601f19601f820116820180604052508101906109dd9190612583565b611097611a12565b60098054610100600160a81b0319166101006001600160a01b038416908102919091179091556040519081527f711be97287cb9ec921887b9be36e148e1a27c6b158547b22b9704ffc54447a0f906020016108dd565b6110f5611a12565b60405181151581527ff769f6bf659bbbdabf212d830720ce893eedc57f25ebb8e44edf5b300618a35b9060200160405180910390a16001805460ff1916911515919091179055565b611145611cda565b6001600160a01b03811661115857600080fd5b600380546001600160a01b0319166001600160a01b0383169081179091556040519081527f352ececae6d7d1e6d26bcf2c549dfd55be1637e9b22dc0cf3b71ddb36097a6b4906020016108dd565b6002546001600160a01b031633146111bd57600080fd5b6002546040805163fbfa77cf60e01b815290516001600160a01b039283169284169163fbfa77cf9160048083019260209291908290030181865afa158015611209573d6000803e3d6000fd5b505050506040513d601f19601f8201168201806040525081019061122d91906126de565b6001600160a01b03161461124057600080fd5b6006546040516370a0823160e01b8152306004820152610b0a9183916001600160a01b03909116906370a0823190602401602060405180830381865afa15801561128e573d6000803e3d6000fd5b505050506040513d601f19601f820116820180604052508101906112b2919061242f565b6006546001600160a01b031691906119e2565b6112cd61200e565b6001600160a01b0381166112e057600080fd5b6002546004805460405163095ea7b360e01b81526001600160a01b0391821692810192909252600060248301529091169063095ea7b3906044016020604051808303816000875af1158015611339573d6000803e3d6000fd5b505050506040513d601f19601f8201168201806040525081019061135d9190612583565b50600480546001600160a01b0319166001600160a01b03838116918217835560025460405163095ea7b360e01b8152938401929092526000196024840152169063095ea7b3906044016020604051808303816000875af11580156113c5573d6000803e3d6000fd5b505050506040513d601f19601f820116820180604052508101906113e99190612583565b506040516001600160a01b03821681527fafbb66abf8f3b719799940473a4052a3717cdd8e40fb6c8a3faadab316b1a069906020016108dd565b600061142d610954565b61143957506000919050565b611441610ffa565b61144d57506000919050565b600b5460ff161561146057506001919050565b6002546040516339ebf82360e01b81523060048201526000916001600160a01b0316906339ebf8239060240161012060405180830381865afa1580156114aa573d6000803e3d6000fd5b505050506040513d601f19601f820116820180604052508101906114ce91906124f1565b90506008548160a00151426114e3919061256c565b106114f15750600192915050565b600a54600260009054906101000a90046001600160a01b03166001600160a01b031663112c1f9b6040518163ffffffff1660e01b8152600401602060405180830381865afa158015611547573d6000803e3d6000fd5b505050506040513d601f19601f8201168201806040525081019061156b919061242f565b119392505050565b6006546040516370a0823160e01b81523060048201526000916001600160a01b0316906370a0823190602401602060405180830381865afa1580156115bc573d6000803e3d6000fd5b505050506040513d601f19601f820116820180604052508101906109dd919061242f565b6115e8611cda565b60088190556040518181527f5430e11864ad7aa9775b07d12657fe52df9aa2ba734355bd8ef8747be2c800c5906020016108dd565b600654610b0a906001600160a01b031633836119e2565b61163c612047565b6009805460ff191660011790556002546040516339ebf82360e01b81523060048201526001600160a01b03909116906339ebf8239060240161012060405180830381865afa158015611692573d6000803e3d6000fd5b505050506040513d601f19601f820116820180604052508101906116b691906124f1565b604001511561172857600260009054906101000a90046001600160a01b03166001600160a01b031663a0e4af9a6040518163ffffffff1660e01b8152600401600060405180830381600087803b15801561170f57600080fd5b505af1158015611723573d6000803e3d6000fd5b505050505b6040517f97e963041e952738788b9d4871d854d282065b8f90a464928d6528f2e9a4fd0b90600090a1565b61175b611a12565b600a8190556040518181527fe5ef7832c564a10cbe7b4f1e01ac33a406cb63fcf430a97a9af8616d150af5f3906020016108dd565b80158061180a5750604051636eb1769f60e11b81523060048201526001600160a01b03838116602483015284169063dd62ed3e90604401602060405180830381865afa1580156117e4573d6000803e3d6000fd5b505050506040513d601f19601f82011682018060405250810190611808919061242f565b155b6118755760405162461bcd60e51b815260206004820152603660248201527f5361666545524332303a20617070726f76652066726f6d206e6f6e2d7a65726f60448201527520746f206e6f6e2d7a65726f20616c6c6f77616e636560501b6064820152608401610657565b6040516001600160a01b0383166024820152604481018290526118d890849063095ea7b360e01b906064015b60408051601f198184030181529190526020810180516001600160e01b03166001600160e01b031990931692909217909152612063565b505050565b60606118ec8484600085612135565b90505b9392505050565b6118fe611974565b6001600160a01b0316336001600160a01b031614610b0d57600080fd5b6040805160018082528183019092526060916000919060208083019080368337019050509050610bad81600081518110611957576119576123ea565b6001600160a01b0390921660209283029190910190910152919050565b60025460408051635aa6e67560e01b815290516000926001600160a01b031691635aa6e6759160048083019260209291908290030181865afa1580156119be573d6000803e3d6000fd5b505050506040513d601f19601f820116820180604052508101906109dd91906126de565b6040516001600160a01b0383166024820152604481018290526118d890849063a9059cbb60e01b906064016118a1565b600260009054906101000a90046001600160a01b03166001600160a01b03166388a8d6026040518163ffffffff1660e01b8152600401602060405180830381865afa158015611a65573d6000803e3d6000fd5b505050506040513d601f19601f82011682018060405250810190611a8991906126de565b6001600160a01b0316336001600160a01b03161480611aab57506118fe611974565b610b0d57600080fd5b600b546000908190610100900460ff1615611bad576002546040516370a0823160e01b81523060048201526000916001600160a01b0316906370a0823190602401602060405180830381865afa158015611b12573d6000803e3d6000fd5b505050506040513d601f19601f82011682018060405250810190611b36919061242f565b600254604051627b8a6760e11b8152600481018390523060248201529192506001600160a01b03169062f714ce906044016020604051808303816000875af1158015611b86573d6000803e3d6000fd5b505050506040513d601f19601f82011682018060405250810190611baa919061242f565b50505b6002546040516339ebf82360e01b81523060048201526000916001600160a01b0316906339ebf8239060240161012060405180830381865afa158015611bf7573d6000803e3d6000fd5b505050506040513d601f19601f82011682018060405250810190611c1b91906124f1565b60c001516006546040516370a0823160e01b81523060048201529192506000916001600160a01b03909116906370a0823190602401602060405180830381865afa158015611c6d573d6000803e3d6000fd5b505050506040513d601f19601f82011682018060405250810190611c91919061242f565b905080851115611caf57925082611ca8818661256c565b9250611cd3565b80821115611ccf57611cc1818361256c565b925084831115611ccf578492505b8493505b5050915091565b6003546001600160a01b0316331480611aab57506118fe611974565b6005546001600160a01b0316331480611d1957506003546001600160a01b031633145b80611d3c5750611d27611974565b6001600160a01b0316336001600160a01b0316145b80611dce5750600260009054906101000a90046001600160a01b03166001600160a01b031663452a93206040518163ffffffff1660e01b8152600401602060405180830381865afa158015611d95573d6000803e3d6000fd5b505050506040513d601f19601f82011682018060405250810190611db991906126de565b6001600160a01b0316336001600160a01b0316145b80611aab5750600260009054906101000a90046001600160a01b03166001600160a01b03166388a8d6026040518163ffffffff1660e01b8152600401602060405180830381865afa158015611e27573d6000803e3d6000fd5b505050506040513d601f19601f820116820180604052508101906118fe91906126de565b6006546040516370a0823160e01b815230600482015260009182916001600160a01b03909116906370a0823190602401602060405180830381865afa158015611e98573d6000803e3d6000fd5b505050506040513d601f19601f82011682018060405250810190611ebc919061242f565b92915050565b6006546040516370a0823160e01b81523060048201526000918291829182916001600160a01b03909116906370a0823190602401602060405180830381865afa158015611f13573d6000803e3d6000fd5b505050506040513d601f19601f82011682018060405250810190611f37919061242f565b6002546040516339ebf82360e01b81523060048201529192506000916001600160a01b03909116906339ebf8239060240161012060405180830381865afa158015611f86573d6000803e3d6000fd5b505050506040513d601f19601f82011682018060405250810190611faa91906124f1565b60c00151905085821115611fcc57859250611fc5838361256c565b9150611fd3565b9091506000905b611fdd838261256c565b905080821115611ff857611ff1818361256c565b9450612005565b612002828261256c565b93505b50509193909250565b612016611974565b6001600160a01b0316336001600160a01b03161480611aab57506003546001600160a01b03163314610b0d57600080fd5b6003546001600160a01b0316331480611d3c5750611d27611974565b60006120b8826040518060400160405280602081526020017f5361666545524332303a206c6f772d6c6576656c2063616c6c206661696c6564815250856001600160a01b03166118dd9092919063ffffffff16565b8051909150156118d857808060200190518101906120d69190612583565b6118d85760405162461bcd60e51b815260206004820152602a60248201527f5361666545524332303a204552433230206f7065726174696f6e20646964206e6044820152691bdd081cdd58d8d9595960b21b6064820152608401610657565b6060824710156121965760405162461bcd60e51b815260206004820152602660248201527f416464726573733a20696e73756666696369656e742062616c616e636520666f6044820152651c8818d85b1b60d21b6064820152608401610657565b6001600160a01b0385163b6121ed5760405162461bcd60e51b815260206004820152601d60248201527f416464726573733a2063616c6c20746f206e6f6e2d636f6e74726163740000006044820152606401610657565b600080866001600160a01b0316858760405161220991906126fb565b60006040518083038185875af1925050503d8060008114612246576040519150601f19603f3d011682016040523d82523d6000602084013e61224b565b606091505b509150915061225b828286612266565b979650505050505050565b606083156122755750816118ef565b8251156122855782518084602001fd5b8160405162461bcd60e51b81526004016106579190612301565b6001600160a01b0381168114610b0a57600080fd5b6000602082840312156122c657600080fd5b81356118ef8161229f565b60005b838110156122ec5781810151838201526020016122d4565b838111156122fb576000848401525b50505050565b60208152600082518060208401526123208160408501602087016122d1565b601f01601f19169190910160400192915050565b8015158114610b0a57600080fd5b60006020828403121561235457600080fd5b81356118ef81612334565b60006020828403121561237157600080fd5b5035919050565b6000806020838503121561238b57600080fd5b823567ffffffffffffffff808211156123a357600080fd5b818501915085601f8301126123b757600080fd5b8135818111156123c657600080fd5b8660208285010111156123d857600080fd5b60209290920196919550909350505050565b634e487b7160e01b600052603260045260246000fd5b634e487b7160e01b600052601160045260246000fd5b60006001820161242857612428612400565b5060010190565b60006020828403121561244157600080fd5b5051919050565b600181811c9082168061245c57607f821691505b602082108103610a5057634e487b7160e01b600052602260045260246000fd5b6c02a32b9ba29ba3930ba32b3bc9609d1b8152600082516124a481600d8501602087016122d1565b91909101600d0192915050565b634e487b7160e01b600052604160045260246000fd5b604051610120810167ffffffffffffffff811182821017156124eb576124eb6124b1565b60405290565b6000610120828403121561250457600080fd5b61250c6124c7565b825181526020830151602082015260408301516040820152606083015160608201526080830151608082015260a083015160a082015260c083015160c082015260e083015160e08201526101008084015181830152508091505092915050565b60008282101561257e5761257e612400565b500390565b60006020828403121561259557600080fd5b81516118ef81612334565b601f8211156118d857600081815260208120601f850160051c810160208610156125c75750805b601f850160051c820191505b818110156125e6578281556001016125d3565b505050505050565b67ffffffffffffffff831115612606576126066124b1565b61261a836126148354612448565b836125a0565b6000601f84116001811461264e57600085156126365750838201355b600019600387901b1c1916600186901b1783556126a8565b600083815260209020601f19861690835b8281101561267f578685013582556020948501946001909201910161265f565b508682101561269c5760001960f88860031b161c19848701351681555b505060018560011b0183555b5050505050565b60208152816020820152818360408301376000818301604090810191909152601f909201601f19160101919050565b6000602082840312156126f057600080fd5b81516118ef8161229f565b6000825161270d8184602087016122d1565b919091019291505056fea26469706673582212209a735f9ea8b0f84b0599c1926c37252ab2ab92e9ebac7c2cde7fd0568c4547b364736f6c634300080f0033","linkReferences":{}},"methodIdentifiers":{"_setWant(address)":"d0e8577d","_takeFunds(uint256)":"fba04a44","_toggleDelegation()":"b30db32c","_toggleReentrancyExploit()":"52052af8","apiVersion()":"25829410","baseFeeOracle()":"826cddf6","creditThreshold()":"aa5480cf","delegateEverything()":"d64a42e9","delegatedAssets()":"8e6350e2","doHealthCheck()":"6718835f","doReentrancy()":"03aaab6f","emergencyExit()":"5641ec03","estimatedTotalAssets()":"efbb5cb0","ethToWant(uint256)":"780022a0","forceHarvestTriggerOnce()":"a763cf5b","harvest()":"4641257d","harvestTrigger(uint256)":"ed882c2b","healthCheck()":"b252720b","isActive()":"22f3e2d4","isBaseFeeAcceptable()":"95326e2d","keeper()":"aced1661","maxReportDelay()":"28b7ccf7","metadataURI()":"03ee438c","migrate(address)":"ce5494bb","minReportDelay()":"95e80c50","name()":"06fdde03","protectedToken()":"d653943a","rewards()":"9ec5a894","setBaseFeeOracle(address)":"9f450b5a","setCreditThreshold(uint256)":"fe2508a6","setDoHealthCheck(bool)":"ac00ff26","setEmergencyExit()":"fcf2d0ad","setForceHarvestTriggerOnce(bool)":"0ada4dab","setHealthCheck(address)":"11bc8245","setKeeper(address)":"748747e6","setMaxReportDelay(uint256)":"f017c92f","setMetadataURI(string)":"750521f5","setMinReportDelay(uint256)":"39a172a8","setRewards(address)":"ec38a862","setStrategist(address)":"c7b9d530","strategist()":"1fe4a686","sweep(address)":"01681a62","tend()":"440368a3","tendTrigger(uint256)":"650d1880","vault()":"fbfa77cf","want()":"1f1fcd51","withdraw(uint256)":"2e1a7d4d"},"id":29}