{"abi":[{"type":"constructor","inputs":[{"name":"_vault","type":"address","internalType":"address"}],"stateMutability":"nonpayable"},{"type":"function","name":"_setWant","inputs":[{"name":"_want","type":"address","internalType":"contract IERC20"}],"outputs":[],"stateMutability":"nonpayable"},{"type":"function","name":"_takeFunds","inputs":[{"name":"amount","type":"uint256","internalType":"uint256"}],"outputs":[],"stateMutability":"nonpayable"},{"type":"function","name":"_toggleDelegation","inputs":[],"outputs":[],"stateMutability":"nonpayable"},{"type":"function","name":"_toggleReentrancyExploit","inputs":[],"outputs":[],"stateMutability":"nonpayable"},{"type":"function","name":"apiVersion","inputs":[],"outputs":[{"name":"","type":"string","internalType":"string"}],"stateMutability":"pure"},{"type":"function","name":"baseFeeOracle","inputs":[],"outputs":[{"name":"","type":"address","internalType":"address"}],"stateMutability":"view"},{"type":"function","name":"creditThreshold","inputs":[],"outputs":[{"name":"","type":"uint256","internalType":"uint256"}],"stateMutability":"view"},{"type":"function","name":"delegateEverything","inputs":[],"outputs":[{"name":"","type":"bool","internalType":"bool"}],"stateMutability":"view"},{"type":"function","name":"delegatedAssets","inputs":[],"outputs":[{"name":"","type":"uint256","internalType":"uint256"}],"stateMutability":"view"},{"type":"function","name":"doHealthCheck","inputs":[],"outputs":[{"name":"","type":"bool","internalType":"bool"}],"stateMutability":"view"},{"type":"function","name":"doReentrancy","inputs":[],"outputs":[{"name":"","type":"bool","internalType":"bool"}],"stateMutability":"view"},{"type":"function","name":"emergencyExit","inputs":[],"outputs":[{"name":"","type":"bool","internalType":"bool"}],"stateMutability":"view"},{"type":"function","name":"estimatedTotalAssets","inputs":[],"outputs":[{"name":"","type":"uint256","internalType":"uint256"}],"stateMutability":"view"},{"type":"function","name":"ethToWant","inputs":[{"name":"amtInWei","type":"uint256","internalType":"uint256"}],"outputs":[{"name":"","type":"uint256","internalType":"uint256"}],"stateMutability":"view"},{"type":"function","name":"forceHarvestTriggerOnce","inputs":[],"outputs":[{"name":"","type":"bool","internalType":"bool"}],"stateMutability":"view"},{"type":"function","name":"harvest","inputs":[],"outputs":[],"stateMutability":"nonpayable"},{"type":"function","name":"harvestTrigger","inputs":[{"name":"callCostInWei","type":"uint256","internalType":"uint256"}],"outputs":[{"name":"","type":"bool","internalType":"bool"}],"stateMutability":"view"},{"type":"function","name":"healthCheck","inputs":[],"outputs":[{"name":"","type":"address","internalType":"address"}],"stateMutability":"view"},{"type":"function","name":"isActive","inputs":[],"outputs":[{"name":"","type":"bool","internalType":"bool"}],"stateMutability":"view"},{"type":"function","name":"isBaseFeeAcceptable","inputs":[],"outputs":[{"name":"","type":"bool","internalType":"bool"}],"stateMutability":"view"},{"type":"function","name":"keeper","inputs":[],"outputs":[{"name":"","type":"address","internalType":"address"}],"stateMutability":"view"},{"type":"function","name":"maxReportDelay","inputs":[],"outputs":[{"name":"","type":"uint256","internalType":"uint256"}],"stateMutability":"view"},{"type":"function","name":"metadataURI","inputs":[],"outputs":[{"name":"","type":"string","internalType":"string"}],"stateMutability":"view"},{"type":"function","name":"migrate","inputs":[{"name":"_newStrategy","type":"address","internalType":"address"}],"outputs":[],"stateMutability":"nonpayable"},{"type":"function","name":"minReportDelay","inputs":[],"outputs":[{"name":"","type":"uint256","internalType":"uint256"}],"stateMutability":"view"},{"type":"function","name":"name","inputs":[],"outputs":[{"name":"","type":"string","internalType":"string"}],"stateMutability":"view"},{"type":"function","name":"protectedToken","inputs":[],"outputs":[{"name":"","type":"address","internalType":"address"}],"stateMutability":"view"},{"type":"function","name":"rewards","inputs":[],"outputs":[{"name":"","type":"address","internalType":"address"}],"stateMutability":"view"},{"type":"function","name":"setBaseFeeOracle","inputs":[{"name":"_baseFeeOracle","type":"address","internalType":"address"}],"outputs":[],"stateMutability":"nonpayable"},{"type":"function","name":"setCreditThreshold","inputs":[{"name":"_creditThreshold","type":"uint256","internalType":"uint256"}],"outputs":[],"stateMutability":"nonpayable"},{"type":"function","name":"setDoHealthCheck","inputs":[{"name":"_doHealthCheck","type":"bool","internalType":"bool"}],"outputs":[],"stateMutability":"nonpayable"},{"type":"function","name":"setEmergencyExit","inputs":[],"outputs":[],"stateMutability":"nonpayable"},{"type":"function","name":"setForceHarvestTriggerOnce","inputs":[{"name":"_forceHarvestTriggerOnce","type":"bool","internalType":"bool"}],"outputs":[],"stateMutability":"nonpayable"},{"type":"function","name":"setHealthCheck","inputs":[{"name":"_healthCheck","type":"address","internalType":"address"}],"outputs":[],"stateMutability":"nonpayable"},{"type":"function","name":"setKeeper","inputs":[{"name":"_keeper","type":"address","internalType":"address"}],"outputs":[],"stateMutability":"nonpayable"},{"type":"function","name":"setMaxReportDelay","inputs":[{"name":"_delay","type":"uint256","internalType":"uint256"}],"outputs":[],"stateMutability":"nonpayable"},{"type":"function","name":"setMetadataURI","inputs":[{"name":"_metadataURI","type":"string","internalType":"string"}],"outputs":[],"stateMutability":"nonpayable"},{"type":"function","name":"setMinReportDelay","inputs":[{"name":"_delay","type":"uint256","internalType":"uint256"}],"outputs":[],"stateMutability":"nonpayable"},{"type":"function","name":"setRewards","inputs":[{"name":"_rewards","type":"address","internalType":"address"}],"outputs":[],"stateMutability":"nonpayable"},{"type":"function","name":"setStrategist","inputs":[{"name":"_strategist","type":"address","internalType":"address"}],"outputs":[],"stateMutability":"nonpayable"},{"type":"function","name":"strategist","inputs":[],"outputs":[{"name":"","type":"address","internalType":"address"}],"stateMutability":"view"},{"type":"function","name":"sweep","inputs":[{"name":"_token","type":"address","internalType":"address"}],"outputs":[],"stateMutability":"nonpayable"},{"type":"function","name":"tend","inputs":[],"outputs":[],"stateMutability":"nonpayable"},{"type":"function","name":"tendTrigger","inputs":[{"name":"callCostInWei","type":"uint256","internalType":"uint256"}],"outputs":[{"name":"","type":"bool","internalType":"bool"}],"stateMutability":"view"},{"type":"function","name":"vault","inputs":[],"outputs":[{"name":"","type":"address","internalType":"contract VaultAPI"}],"stateMutability":"view"},{"type":"function","name":"want","inputs":[],"outputs":[{"name":"","type":"address","internalType":"contract IERC20"}],"stateMutability":"view"},{"type":"function","name":"withdraw","inputs":[{"name":"_amountNeeded","type":"uint256","internalType":"uint256"}],"outputs":[{"name":"_loss","type":"uint256","internalType":"uint256"}],"stateMutability":"nonpayable"},{"type":"event","name":"EmergencyExitEnabled","inputs":[],"anonymous":false},{"type":"event","name":"ForcedHarvestTrigger","inputs":[{"name":"triggerState","type":"bool","indexed":false,"internalType":"bool"}],"anonymous":false},{"type":"event","name":"Harvested","inputs":[{"name":"profit","type":"uint256","indexed":false,"internalType":"uint256"},{"name":"loss","type":"uint256","indexed":false,"internalType":"uint256"},{"name":"debtPayment","type":"uint256","indexed":false,"internalType":"uint256"},{"name":"debtOutstanding","type":"uint256","indexed":false,"internalType":"uint256"}],"anonymous":false},{"type":"event","name":"SetDoHealthCheck","inputs":[{"name":"","type":"bool","indexed":false,"internalType":"bool"}],"anonymous":false},{"type":"event","name":"SetHealthCheck","inputs":[{"name":"","type":"address","indexed":false,"internalType":"address"}],"anonymous":false},{"type":"event","name":"UpdatedBaseFeeOracle","inputs":[{"name":"baseFeeOracle","type":"address","indexed":false,"internalType":"address"}],"anonymous":false},{"type":"event","name":"UpdatedCreditThreshold","inputs":[{"name":"creditThreshold","type":"uint256","indexed":false,"internalType":"uint256"}],"anonymous":false},{"type":"event","name":"UpdatedKeeper","inputs":[{"name":"newKeeper","type":"address","indexed":false,"internalType":"address"}],"anonymous":false},{"type":"event","name":"UpdatedMaxReportDelay","inputs":[{"name":"delay","type":"uint256","indexed":false,"internalType":"uint256"}],"anonymous":false},{"type":"event","name":"UpdatedMetadataURI","inputs":[{"name":"metadataURI","type":"string","indexed":false,"internalType":"string"}],"anonymous":false},{"type":"event","name":"UpdatedMinReportDelay","inputs":[{"name":"delay","type":"uint256","indexed":false,"internalType":"uint256"}],"anonymous":false},{"type":"event","name":"UpdatedRewards","inputs":[{"name":"rewards","type":"address","indexed":false,"internalType":"address"}],"anonymous":false},{"type":"event","name":"UpdatedStrategist","inputs":[{"name":"newStrategist","type":"address","indexed":false,"internalType":"address"}],"anonymous":false}],"bytecode":{"object":"0x60806040523480156200001157600080fd5b50604051620058a5380380620058a5833981810160405281019062000037919062000961565b806200004c813333336200005460201b60201c565b5050620010fa565b600073ffffffffffffffffffffffffffffffffffffffff16600660009054906101000a900473ffffffffffffffffffffffffffffffffffffffff1673ffffffffffffffffffffffffffffffffffffffff1614620000e8576040517f08c379a0000000000000000000000000000000000000000000000000000000008152600401620000df90620009f4565b60405180910390fd5b83600260006101000a81548173ffffffffffffffffffffffffffffffffffffffff021916908373ffffffffffffffffffffffffffffffffffffffff160217905550600260009054906101000a900473ffffffffffffffffffffffffffffffffffffffff1673ffffffffffffffffffffffffffffffffffffffff1663fc0c546a6040518163ffffffff1660e01b8152600401602060405180830381865afa15801562000197573d6000803e3d6000fd5b505050506040513d601f19601f82011682018060405250810190620001bd919062000961565b600660006101000a81548173ffffffffffffffffffffffffffffffffffffffff021916908373ffffffffffffffffffffffffffffffffffffffff16021790555062000271847fffffffffffffffffffffffffffffffffffffffffffffffffffffffffffffffff600660009054906101000a900473ffffffffffffffffffffffffffffffffffffffff1673ffffffffffffffffffffffffffffffffffffffff16620004e460201b62002331179092919060201c565b82600360006101000a81548173ffffffffffffffffffffffffffffffffffffffff021916908373ffffffffffffffffffffffffffffffffffffffff16021790555081600460006101000a81548173ffffffffffffffffffffffffffffffffffffffff021916908373ffffffffffffffffffffffffffffffffffffffff16021790555080600560006101000a81548173ffffffffffffffffffffffffffffffffffffffff021916908373ffffffffffffffffffffffffffffffffffffffff16021790555062278d00600881905550600260009054906101000a900473ffffffffffffffffffffffffffffffffffffffff1673ffffffffffffffffffffffffffffffffffffffff1663313ce5676040518163ffffffff1660e01b8152600401602060405180830381865afa158015620003ac573d6000803e3d6000fd5b505050506040513d601f19601f82011682018060405250810190620003d2919062000a51565b600a620003e0919062000c06565b620f4240620003f0919062000c57565b600a81905550600260009054906101000a900473ffffffffffffffffffffffffffffffffffffffff1673ffffffffffffffffffffffffffffffffffffffff1663095ea7b3600460009054906101000a900473ffffffffffffffffffffffffffffffffffffffff167fffffffffffffffffffffffffffffffffffffffffffffffffffffffffffffffff6040518363ffffffff1660e01b81526004016200049792919062000cda565b6020604051808303816000875af1158015620004b7573d6000803e3d6000fd5b505050506040513d601f19601f82011682018060405250810190620004dd919062000d44565b5050505050565b600081148062000574575060008373ffffffffffffffffffffffffffffffffffffffff1663dd62ed3e30856040518363ffffffff1660e01b81526004016200052e92919062000d76565b602060405180830381865afa1580156200054c573d6000803e3d6000fd5b505050506040513d601f19601f8201168201806040525081019062000572919062000a51565b145b620005b6576040517f08c379a0000000000000000000000000000000000000000000000000000000008152600401620005ad9062000e19565b60405180910390fd5b620006418363095ea7b360e01b8484604051602401620005d892919062000cda565b604051602081830303815290604052907bffffffffffffffffffffffffffffffffffffffffffffffffffffffff19166020820180517bffffffffffffffffffffffffffffffffffffffffffffffffffffffff83818316178352505050506200064660201b60201c565b505050565b6000620006af826040518060400160405280602081526020017f5361666545524332303a206c6f772d6c6576656c2063616c6c206661696c65648152508573ffffffffffffffffffffffffffffffffffffffff166200071a60201b62002480179092919060201c565b9050600081511115620007155780806020019051810190620006d2919062000d44565b62000714576040517f08c379a00000000000000000000000000000000000000000000000000000000081526004016200070b9062000eb1565b60405180910390fd5b5b505050565b60606200073184846000856200073a60201b60201c565b90509392505050565b60608247101562000782576040517f08c379a0000000000000000000000000000000000000000000000000000000008152600401620007799062000f49565b60405180910390fd5b62000793856200086860201b60201c565b620007d5576040517f08c379a0000000000000000000000000000000000000000000000000000000008152600401620007cc9062000fbb565b60405180910390fd5b6000808673ffffffffffffffffffffffffffffffffffffffff16858760405162000800919062001060565b60006040518083038185875af1925050503d80600081146200083f576040519150601f19603f3d011682016040523d82523d6000602084013e62000844565b606091505b50915091506200085c8282866200088b60201b60201c565b92505050949350505050565b6000808273ffffffffffffffffffffffffffffffffffffffff163b119050919050565b606083156200089d57829050620008f0565b600083511115620008b15782518084602001fd5b816040517f08c379a0000000000000000000000000000000000000000000000000000000008152600401620008e79190620010d6565b60405180910390fd5b9392505050565b600080fd5b600073ffffffffffffffffffffffffffffffffffffffff82169050919050565b60006200092982620008fc565b9050919050565b6200093b816200091c565b81146200094757600080fd5b50565b6000815190506200095b8162000930565b92915050565b6000602082840312156200097a5762000979620008f7565b5b60006200098a848285016200094a565b91505092915050565b600082825260208201905092915050565b7f537472617465677920616c726561647920696e697469616c697a656400000000600082015250565b6000620009dc601c8362000993565b9150620009e982620009a4565b602082019050919050565b6000602082019050818103600083015262000a0f81620009cd565b9050919050565b6000819050919050565b62000a2b8162000a16565b811462000a3757600080fd5b50565b60008151905062000a4b8162000a20565b92915050565b60006020828403121562000a6a5762000a69620008f7565b5b600062000a7a8482850162000a3a565b91505092915050565b7f4e487b7100000000000000000000000000000000000000000000000000000000600052601160045260246000fd5b60008160011c9050919050565b6000808291508390505b600185111562000b115780860481111562000ae95762000ae862000a83565b5b600185161562000af95780820291505b808102905062000b098562000ab2565b945062000ac9565b94509492505050565b60008262000b2c576001905062000bff565b8162000b3c576000905062000bff565b816001811462000b55576002811462000b605762000b96565b600191505062000bff565b60ff84111562000b755762000b7462000a83565b5b8360020a91508482111562000b8f5762000b8e62000a83565b5b5062000bff565b5060208310610133831016604e8410600b841016171562000bd05782820a90508381111562000bca5762000bc962000a83565b5b62000bff565b62000bdf848484600162000abf565b9250905081840481111562000bf95762000bf862000a83565b5b81810290505b9392505050565b600062000c138262000a16565b915062000c208362000a16565b925062000c4f7fffffffffffffffffffffffffffffffffffffffffffffffffffffffffffffffff848462000b1a565b905092915050565b600062000c648262000a16565b915062000c718362000a16565b9250817fffffffffffffffffffffffffffffffffffffffffffffffffffffffffffffffff048311821515161562000cad5762000cac62000a83565b5b828202905092915050565b62000cc3816200091c565b82525050565b62000cd48162000a16565b82525050565b600060408201905062000cf1600083018562000cb8565b62000d00602083018462000cc9565b9392505050565b60008115159050919050565b62000d1e8162000d07565b811462000d2a57600080fd5b50565b60008151905062000d3e8162000d13565b92915050565b60006020828403121562000d5d5762000d5c620008f7565b5b600062000d6d8482850162000d2d565b91505092915050565b600060408201905062000d8d600083018562000cb8565b62000d9c602083018462000cb8565b9392505050565b7f5361666545524332303a20617070726f76652066726f6d206e6f6e2d7a65726f60008201527f20746f206e6f6e2d7a65726f20616c6c6f77616e636500000000000000000000602082015250565b600062000e0160368362000993565b915062000e0e8262000da3565b604082019050919050565b6000602082019050818103600083015262000e348162000df2565b9050919050565b7f5361666545524332303a204552433230206f7065726174696f6e20646964206e60008201527f6f74207375636365656400000000000000000000000000000000000000000000602082015250565b600062000e99602a8362000993565b915062000ea68262000e3b565b604082019050919050565b6000602082019050818103600083015262000ecc8162000e8a565b9050919050565b7f416464726573733a20696e73756666696369656e742062616c616e636520666f60008201527f722063616c6c0000000000000000000000000000000000000000000000000000602082015250565b600062000f3160268362000993565b915062000f3e8262000ed3565b604082019050919050565b6000602082019050818103600083015262000f648162000f22565b9050919050565b7f416464726573733a2063616c6c20746f206e6f6e2d636f6e7472616374000000600082015250565b600062000fa3601d8362000993565b915062000fb08262000f6b565b602082019050919050565b6000602082019050818103600083015262000fd68162000f94565b9050919050565b600081519050919050565b600081905092915050565b60005b838110156200101357808201518184015260208101905062000ff6565b8381111562001023576000848401525b50505050565b6000620010368262000fdd565b62001042818562000fe8565b93506200105481856020860162000ff3565b80840191505092915050565b60006200106e828462001029565b915081905092915050565b600081519050919050565b6000601f19601f8301169050919050565b6000620010a28262001079565b620010ae818562000993565b9350620010c081856020860162000ff3565b620010cb8162001084565b840191505092915050565b60006020820190508181036000830152620010f2818462001095565b905092915050565b61479b806200110a6000396000f3fe608060405234801561001057600080fd5b50600436106102955760003560e01c80638e6350e211610167578063ce5494bb116100ce578063efbb5cb011610087578063efbb5cb014610748578063f017c92f14610766578063fba04a4414610782578063fbfa77cf1461079e578063fcf2d0ad146107bc578063fe2508a6146107c657610295565b8063ce5494bb14610688578063d0e8577d146106a4578063d64a42e9146106c0578063d653943a146106de578063ec38a862146106fc578063ed882c2b1461071857610295565b8063aa5480cf11610120578063aa5480cf146105ec578063ac00ff261461060a578063aced166114610626578063b252720b14610644578063b30db32c14610662578063c7b9d5301461066c57610295565b80638e6350e21461053a57806395326e2d1461055857806395e80c50146105765780639ec5a894146105945780639f450b5a146105b2578063a763cf5b146105ce57610295565b80632e1a7d4d1161020b578063650d1880116101c4578063650d1880146104665780636718835f14610496578063748747e6146104b4578063750521f5146104d0578063780022a0146104ec578063826cddf61461051c57610295565b80632e1a7d4d146103de57806339a172a81461040e578063440368a31461042a5780634641257d1461043457806352052af81461043e5780635641ec031461044857610295565b806311bc82451161025d57806311bc82451461032c5780631f1fcd51146103485780631fe4a6861461036657806322f3e2d41461038457806325829410146103a257806328b7ccf7146103c057610295565b806301681a621461029a57806303aaab6f146102b657806303ee438c146102d457806306fdde03146102f25780630ada4dab14610310575b600080fd5b6102b460048036038101906102af919061359a565b6107e2565b005b6102be610a6d565b6040516102cb91906135e2565b60405180910390f35b6102dc610a80565b6040516102e99190613696565b60405180910390f35b6102fa610b0e565b6040516103079190613696565b60405180910390f35b61032a600480360381019061032591906136e4565b610b3c565b005b6103466004803603810190610341919061359a565b610b98565b005b610350610c1a565b60405161035d9190613770565b60405180910390f35b61036e610c40565b60405161037b919061379a565b60405180910390f35b61038c610c66565b60405161039991906135e2565b60405180910390f35b6103aa610d22565b6040516103b79190613696565b60405180910390f35b6103c8610d5f565b6040516103d591906137ce565b60405180910390f35b6103f860048036038101906103f39190613815565b610d65565b60405161040591906137ce565b60405180910390f35b61042860048036038101906104239190613815565b610e5d565b005b610432610ea6565b005b61043c610f49565b005b6104466113f9565b005b610450611425565b60405161045d91906135e2565b60405180910390f35b610480600480360381019061047b9190613815565b611438565b60405161048d91906135e2565b60405180910390f35b61049e61143f565b6040516104ab91906135e2565b60405180910390f35b6104ce60048036038101906104c9919061359a565b611452565b005b6104ea60048036038101906104e591906138a7565b61150e565b005b61050660048036038101906105019190613815565b611565565b60405161051391906137ce565b60405180910390f35b61052461156f565b604051610531919061379a565b60405180910390f35b610542611595565b60405161054f91906137ce565b60405180910390f35b61056061165c565b60405161056d91906135e2565b60405180910390f35b61057e611753565b60405161058b91906137ce565b60405180910390f35b61059c611759565b6040516105a9919061379a565b60405180910390f35b6105cc60048036038101906105c7919061359a565b61177f565b005b6105d6611802565b6040516105e391906135e2565b60405180910390f35b6105f4611815565b60405161060191906137ce565b60405180910390f35b610624600480360381019061061f91906136e4565b61181b565b005b61062e611877565b60405161063b919061379a565b60405180910390f35b61064c61189d565b604051610659919061379a565b60405180910390f35b61066a6118c1565b005b6106866004803603810190610681919061359a565b6118ed565b005b6106a2600480360381019061069d919061359a565b6119a9565b005b6106be60048036038101906106b99190613932565b611bbf565b005b6106c8611c03565b6040516106d591906135e2565b60405180910390f35b6106e6611c16565b6040516106f3919061379a565b60405180910390f35b6107166004803603810190610711919061359a565b611c1c565b005b610732600480360381019061072d9190613815565b611e7f565b60405161073f91906135e2565b60405180910390f35b61075061202a565b60405161075d91906137ce565b60405180910390f35b610780600480360381019061077b9190613815565b6120cd565b005b61079c60048036038101906107979190613815565b612116565b005b6107a6612146565b6040516107b39190613980565b60405180910390f35b6107c461216c565b005b6107e060048036038101906107db9190613815565b6122e8565b005b6107ea612498565b600660009054906101000a900473ffffffffffffffffffffffffffffffffffffffff1673ffffffffffffffffffffffffffffffffffffffff168173ffffffffffffffffffffffffffffffffffffffff160361087a576040517f08c379a0000000000000000000000000000000000000000000000000000000008152600401610871906139e7565b60405180910390fd5b600260009054906101000a900473ffffffffffffffffffffffffffffffffffffffff1673ffffffffffffffffffffffffffffffffffffffff168173ffffffffffffffffffffffffffffffffffffffff160361090a576040517f08c379a000000000000000000000000000000000000000000000000000000000815260040161090190613a53565b60405180910390fd5b60006109146124d9565b905060005b81518110156109bd5781818151811061093557610934613a73565b5b602002602001015173ffffffffffffffffffffffffffffffffffffffff168373ffffffffffffffffffffffffffffffffffffffff16036109aa576040517f08c379a00000000000000000000000000000000000000000000000000000000081526004016109a190613aee565b60405180910390fd5b80806109b590613b3d565b915050610919565b50610a696109c9612581565b8373ffffffffffffffffffffffffffffffffffffffff166370a08231306040518263ffffffff1660e01b8152600401610a02919061379a565b602060405180830381865afa158015610a1f573d6000803e3d6000fd5b505050506040513d601f19601f82011682018060405250810190610a439190613b9a565b8473ffffffffffffffffffffffffffffffffffffffff166126199092919063ffffffff16565b5050565b600b60019054906101000a900460ff1681565b60008054610a8d90613bf6565b80601f0160208091040260200160405190810160405280929190818152602001828054610ab990613bf6565b8015610b065780601f10610adb57610100808354040283529160200191610b06565b820191906000526020600020905b815481529060010190602001808311610ae957829003601f168201915b505050505081565b6060610b18610d22565b604051602001610b289190613caf565b604051602081830303815290604052905090565b610b4461269f565b80600b60006101000a81548160ff0219169083151502179055507f6ad28df1b554fa6cacd46ae82fa811748d53798feeb437ddf234bf308395331981604051610b8d91906135e2565b60405180910390a150565b610ba061269f565b7fc8db9c35f716b87af1fbb83f03c78646061931269301fd7ba6dcf189b4cdc2fc81604051610bcf919061379a565b60405180910390a1806001806101000a81548173ffffffffffffffffffffffffffffffffffffffff021916908373ffffffffffffffffffffffffffffffffffffffff16021790555050565b600660009054906101000a900473ffffffffffffffffffffffffffffffffffffffff1681565b600360009054906101000a900473ffffffffffffffffffffffffffffffffffffffff1681565b600080600260009054906101000a900473ffffffffffffffffffffffffffffffffffffffff1673ffffffffffffffffffffffffffffffffffffffff166339ebf823306040518263ffffffff1660e01b8152600401610cc4919061379a565b61012060405180830381865afa158015610ce2573d6000803e3d6000fd5b505050506040513d601f19601f82011682018060405250810190610d069190613e31565b604001511180610d1d57506000610d1b61202a565b115b905090565b60606040518060400160405280600581526020017f302e342e36000000000000000000000000000000000000000000000000000000815250905090565b60085481565b6000600260009054906101000a900473ffffffffffffffffffffffffffffffffffffffff1673ffffffffffffffffffffffffffffffffffffffff163373ffffffffffffffffffffffffffffffffffffffff1614610df7576040517f08c379a0000000000000000000000000000000000000000000000000000000008152600401610dee90613eab565b60405180910390fd5b6000610e02836127a6565b8093508192505050610e573382600660009054906101000a900473ffffffffffffffffffffffffffffffffffffffff1673ffffffffffffffffffffffffffffffffffffffff166126199092919063ffffffff16565b50919050565b610e65612a91565b806007819055507fbb2c369a0355a34b02ab5fce0643150c87e1c8dfe7c918d465591879f57948b181604051610e9b91906137ce565b60405180910390a150565b610eae612b2a565b610f47600260009054906101000a900473ffffffffffffffffffffffffffffffffffffffff1673ffffffffffffffffffffffffffffffffffffffff1663bf3759b56040518163ffffffff1660e01b8152600401602060405180830381865afa158015610f1e573d6000803e3d6000fd5b505050506040513d601f19601f82011682018060405250810190610f429190613b9a565b612da7565b565b610f51612b2a565b6000806000600260009054906101000a900473ffffffffffffffffffffffffffffffffffffffff1673ffffffffffffffffffffffffffffffffffffffff1663bf3759b56040518163ffffffff1660e01b8152600401602060405180830381865afa158015610fc3573d6000803e3d6000fd5b505050506040513d601f19601f82011682018060405250810190610fe79190613b9a565b90506000600960009054906101000a900460ff161561105357600061100a612daa565b9050828110156110275780836110209190613ecb565b935061103f565b8281111561103e57828161103b9190613ecb565b94505b5b838361104b9190613ecb565b915050611069565b61105c82612e52565b8093508195508296505050505b6000600b60006101000a81548160ff0219169083151502179055507f6ad28df1b554fa6cacd46ae82fa811748d53798feeb437ddf234bf308395331960006040516110b491906135e2565b60405180910390a16000600260009054906101000a900473ffffffffffffffffffffffffffffffffffffffff1673ffffffffffffffffffffffffffffffffffffffff166339ebf823306040518263ffffffff1660e01b8152600401611119919061379a565b61012060405180830381865afa158015611137573d6000803e3d6000fd5b505050506040513d601f19601f8201168201806040525081019061115b9190613e31565b60c001519050600260009054906101000a900473ffffffffffffffffffffffffffffffffffffffff1673ffffffffffffffffffffffffffffffffffffffff1663a1d9bafc8686856040518463ffffffff1660e01b81526004016111c093929190613eff565b6020604051808303816000875af11580156111df573d6000803e3d6000fd5b505050506040513d601f19601f820116820180604052508101906112039190613b9a565b925061120e83612da7565b600160009054906101000a900460ff1680156112775750600073ffffffffffffffffffffffffffffffffffffffff1660018054906101000a900473ffffffffffffffffffffffffffffffffffffffff1673ffffffffffffffffffffffffffffffffffffffff1614155b156113625760018054906101000a900473ffffffffffffffffffffffffffffffffffffffff1673ffffffffffffffffffffffffffffffffffffffff1663c70fa00b86868587866040518663ffffffff1660e01b81526004016112dd959493929190613f36565b602060405180830381865afa1580156112fa573d6000803e3d6000fd5b505050506040513d601f19601f8201168201806040525081019061131e9190613f9e565b61135d576040517f08c379a000000000000000000000000000000000000000000000000000000000815260040161135490614017565b60405180910390fd5b6113b5565b7ff769f6bf659bbbdabf212d830720ce893eedc57f25ebb8e44edf5b300618a35b600160405161139291906135e2565b60405180910390a160018060006101000a81548160ff0219169083151502179055505b7f4c0f499ffe6befa0ca7c826b0916cf87bea98de658013e76938489368d60d509858584866040516113ea9493929190614037565b60405180910390a15050505050565b600b60019054906101000a900460ff1615600b60016101000a81548160ff021916908315150217905550565b600960009054906101000a900460ff1681565b6000919050565b600160009054906101000a900460ff1681565b61145a612a91565b600073ffffffffffffffffffffffffffffffffffffffff168173ffffffffffffffffffffffffffffffffffffffff160361149357600080fd5b80600560006101000a81548173ffffffffffffffffffffffffffffffffffffffff021916908373ffffffffffffffffffffffffffffffffffffffff1602179055507f2f202ddb4a2e345f6323ed90f8fc8559d770a7abbbeee84dde8aca3351fe715481604051611503919061379a565b60405180910390a150565b611516612a91565b818160009182611527929190614229565b507f300e67d5a415b6d015a471d9c7b95dd58f3e8290af965e84e0f845de2996dda68282604051611559929190614335565b60405180910390a15050565b6000819050919050565b600960019054906101000a900473ffffffffffffffffffffffffffffffffffffffff1681565b6000600b60029054906101000a900460ff161561165457600260009054906101000a900473ffffffffffffffffffffffffffffffffffffffff1673ffffffffffffffffffffffffffffffffffffffff166339ebf823306040518263ffffffff1660e01b8152600401611607919061379a565b61012060405180830381865afa158015611625573d6000803e3d6000fd5b505050506040513d601f19601f820116820180604052508101906116499190613e31565b60c001519050611659565b600090505b90565b60008073ffffffffffffffffffffffffffffffffffffffff16600960019054906101000a900473ffffffffffffffffffffffffffffffffffffffff1673ffffffffffffffffffffffffffffffffffffffff16036116bc5760019050611750565b600960019054906101000a900473ffffffffffffffffffffffffffffffffffffffff1673ffffffffffffffffffffffffffffffffffffffff166334a9e75c6040518163ffffffff1660e01b8152600401602060405180830381865afa158015611729573d6000803e3d6000fd5b505050506040513d601f19601f8201168201806040525081019061174d9190613f9e565b90505b90565b60075481565b600460009054906101000a900473ffffffffffffffffffffffffffffffffffffffff1681565b61178761269f565b80600960016101000a81548173ffffffffffffffffffffffffffffffffffffffff021916908373ffffffffffffffffffffffffffffffffffffffff1602179055507f711be97287cb9ec921887b9be36e148e1a27c6b158547b22b9704ffc54447a0f816040516117f7919061379a565b60405180910390a150565b600b60009054906101000a900460ff1681565b600a5481565b61182361269f565b7ff769f6bf659bbbdabf212d830720ce893eedc57f25ebb8e44edf5b300618a35b8160405161185291906135e2565b60405180910390a180600160006101000a81548160ff02191690831515021790555050565b600560009054906101000a900473ffffffffffffffffffffffffffffffffffffffff1681565b60018054906101000a900473ffffffffffffffffffffffffffffffffffffffff1681565b600b60029054906101000a900460ff1615600b60026101000a81548160ff021916908315150217905550565b6118f5612a91565b600073ffffffffffffffffffffffffffffffffffffffff168173ffffffffffffffffffffffffffffffffffffffff160361192e57600080fd5b80600360006101000a81548173ffffffffffffffffffffffffffffffffffffffff021916908373ffffffffffffffffffffffffffffffffffffffff1602179055507f352ececae6d7d1e6d26bcf2c549dfd55be1637e9b22dc0cf3b71ddb36097a6b48160405161199e919061379a565b60405180910390a150565b600260009054906101000a900473ffffffffffffffffffffffffffffffffffffffff1673ffffffffffffffffffffffffffffffffffffffff163373ffffffffffffffffffffffffffffffffffffffff1614611a0357600080fd5b600260009054906101000a900473ffffffffffffffffffffffffffffffffffffffff1673ffffffffffffffffffffffffffffffffffffffff168173ffffffffffffffffffffffffffffffffffffffff1663fbfa77cf6040518163ffffffff1660e01b8152600401602060405180830381865afa158015611a87573d6000803e3d6000fd5b505050506040513d601f19601f82011682018060405250810190611aab9190614397565b73ffffffffffffffffffffffffffffffffffffffff1614611acb57600080fd5b611ad481613002565b611bbc81600660009054906101000a900473ffffffffffffffffffffffffffffffffffffffff1673ffffffffffffffffffffffffffffffffffffffff166370a08231306040518263ffffffff1660e01b8152600401611b33919061379a565b602060405180830381865afa158015611b50573d6000803e3d6000fd5b505050506040513d601f19601f82011682018060405250810190611b749190613b9a565b600660009054906101000a900473ffffffffffffffffffffffffffffffffffffffff1673ffffffffffffffffffffffffffffffffffffffff166126199092919063ffffffff16565b50565b80600660006101000a81548173ffffffffffffffffffffffffffffffffffffffff021916908373ffffffffffffffffffffffffffffffffffffffff16021790555050565b600b60029054906101000a900460ff1681565b610bad81565b611c24613005565b600073ffffffffffffffffffffffffffffffffffffffff168173ffffffffffffffffffffffffffffffffffffffff1603611c5d57600080fd5b600260009054906101000a900473ffffffffffffffffffffffffffffffffffffffff1673ffffffffffffffffffffffffffffffffffffffff1663095ea7b3600460009054906101000a900473ffffffffffffffffffffffffffffffffffffffff1660006040518363ffffffff1660e01b8152600401611cdd9291906143ff565b6020604051808303816000875af1158015611cfc573d6000803e3d6000fd5b505050506040513d601f19601f82011682018060405250810190611d209190613f9e565b5080600460006101000a81548173ffffffffffffffffffffffffffffffffffffffff021916908373ffffffffffffffffffffffffffffffffffffffff160217905550600260009054906101000a900473ffffffffffffffffffffffffffffffffffffffff1673ffffffffffffffffffffffffffffffffffffffff1663095ea7b3600460009054906101000a900473ffffffffffffffffffffffffffffffffffffffff167fffffffffffffffffffffffffffffffffffffffffffffffffffffffffffffffff6040518363ffffffff1660e01b8152600401611e01929190614428565b6020604051808303816000875af1158015611e20573d6000803e3d6000fd5b505050506040513d601f19601f82011682018060405250810190611e449190613f9e565b507fafbb66abf8f3b719799940473a4052a3717cdd8e40fb6c8a3faadab316b1a06981604051611e74919061379a565b60405180910390a150565b6000611e89610c66565b611e965760009050612025565b611e9e61165c565b611eab5760009050612025565b600b60009054906101000a900460ff1615611ec95760019050612025565b6000600260009054906101000a900473ffffffffffffffffffffffffffffffffffffffff1673ffffffffffffffffffffffffffffffffffffffff166339ebf823306040518263ffffffff1660e01b8152600401611f26919061379a565b61012060405180830381865afa158015611f44573d6000803e3d6000fd5b505050506040513d601f19601f82011682018060405250810190611f689190613e31565b90506008548160a0015142611f7d9190613ecb565b10611f8c576001915050612025565b600a54600260009054906101000a900473ffffffffffffffffffffffffffffffffffffffff1673ffffffffffffffffffffffffffffffffffffffff1663112c1f9b6040518163ffffffff1660e01b8152600401602060405180830381865afa158015611ffc573d6000803e3d6000fd5b505050506040513d601f19601f820116820180604052508101906120209190613b9a565b119150505b919050565b6000600660009054906101000a900473ffffffffffffffffffffffffffffffffffffffff1673ffffffffffffffffffffffffffffffffffffffff166370a08231306040518263ffffffff1660e01b8152600401612087919061379a565b602060405180830381865afa1580156120a4573d6000803e3d6000fd5b505050506040513d601f19601f820116820180604052508101906120c89190613b9a565b905090565b6120d5612a91565b806008819055507f5430e11864ad7aa9775b07d12657fe52df9aa2ba734355bd8ef8747be2c800c58160405161210b91906137ce565b60405180910390a150565b612143600660009054906101000a900473ffffffffffffffffffffffffffffffffffffffff163383612619565b50565b600260009054906101000a900473ffffffffffffffffffffffffffffffffffffffff1681565b61217461309e565b6001600960006101000a81548160ff0219169083151502179055506000600260009054906101000a900473ffffffffffffffffffffffffffffffffffffffff1673ffffffffffffffffffffffffffffffffffffffff166339ebf823306040518263ffffffff1660e01b81526004016121ec919061379a565b61012060405180830381865afa15801561220a573d6000803e3d6000fd5b505050506040513d601f19601f8201168201806040525081019061222e9190613e31565b60400151146122ba57600260009054906101000a900473ffffffffffffffffffffffffffffffffffffffff1673ffffffffffffffffffffffffffffffffffffffff1663a0e4af9a6040518163ffffffff1660e01b8152600401600060405180830381600087803b1580156122a157600080fd5b505af11580156122b5573d6000803e3d6000fd5b505050505b7f97e963041e952738788b9d4871d854d282065b8f90a464928d6528f2e9a4fd0b60405160405180910390a1565b6122f061269f565b80600a819055507fe5ef7832c564a10cbe7b4f1e01ac33a406cb63fcf430a97a9af8616d150af5f38160405161232691906137ce565b60405180910390a150565b60008114806123bb575060008373ffffffffffffffffffffffffffffffffffffffff1663dd62ed3e30856040518363ffffffff1660e01b8152600401612378929190614451565b602060405180830381865afa158015612395573d6000803e3d6000fd5b505050506040513d601f19601f820116820180604052508101906123b99190613b9a565b145b6123fa576040517f08c379a00000000000000000000000000000000000000000000000000000000081526004016123f1906144ec565b60405180910390fd5b61247b8363095ea7b360e01b8484604051602401612419929190614428565b604051602081830303815290604052907bffffffffffffffffffffffffffffffffffffffffffffffffffffffff19166020820180517bffffffffffffffffffffffffffffffffffffffffffffffffffffffff83818316178352505050506132c3565b505050565b606061248f848460008561338a565b90509392505050565b6124a0612581565b73ffffffffffffffffffffffffffffffffffffffff163373ffffffffffffffffffffffffffffffffffffffff16146124d757600080fd5b565b60606000600167ffffffffffffffff8111156124f8576124f7613cd6565b5b6040519080825280602002602001820160405280156125265781602001602082028036833780820191505090505b509050610bad816000815181106125405761253f613a73565b5b602002602001019073ffffffffffffffffffffffffffffffffffffffff16908173ffffffffffffffffffffffffffffffffffffffff16815250508091505090565b6000600260009054906101000a900473ffffffffffffffffffffffffffffffffffffffff1673ffffffffffffffffffffffffffffffffffffffff16635aa6e6756040518163ffffffff1660e01b8152600401602060405180830381865afa1580156125f0573d6000803e3d6000fd5b505050506040513d601f19601f820116820180604052508101906126149190614521565b905090565b61269a8363a9059cbb60e01b8484604051602401612638929190614428565b604051602081830303815290604052907bffffffffffffffffffffffffffffffffffffffffffffffffffffffff19166020820180517bffffffffffffffffffffffffffffffffffffffffffffffffffffffff83818316178352505050506132c3565b505050565b600260009054906101000a900473ffffffffffffffffffffffffffffffffffffffff1673ffffffffffffffffffffffffffffffffffffffff166388a8d6026040518163ffffffff1660e01b8152600401602060405180830381865afa15801561270c573d6000803e3d6000fd5b505050506040513d601f19601f820116820180604052508101906127309190614521565b73ffffffffffffffffffffffffffffffffffffffff163373ffffffffffffffffffffffffffffffffffffffff16148061279b575061276c612581565b73ffffffffffffffffffffffffffffffffffffffff163373ffffffffffffffffffffffffffffffffffffffff16145b6127a457600080fd5b565b600080600b60019054906101000a900460ff1615612900576000600260009054906101000a900473ffffffffffffffffffffffffffffffffffffffff1673ffffffffffffffffffffffffffffffffffffffff166370a08231306040518263ffffffff1660e01b815260040161281b919061379a565b602060405180830381865afa158015612838573d6000803e3d6000fd5b505050506040513d601f19601f8201168201806040525081019061285c9190613b9a565b9050600260009054906101000a900473ffffffffffffffffffffffffffffffffffffffff1673ffffffffffffffffffffffffffffffffffffffff1662f714ce82306040518363ffffffff1660e01b81526004016128ba92919061454e565b6020604051808303816000875af11580156128d9573d6000803e3d6000fd5b505050506040513d601f19601f820116820180604052508101906128fd9190613b9a565b50505b6000600260009054906101000a900473ffffffffffffffffffffffffffffffffffffffff1673ffffffffffffffffffffffffffffffffffffffff166339ebf823306040518263ffffffff1660e01b815260040161295d919061379a565b61012060405180830381865afa15801561297b573d6000803e3d6000fd5b505050506040513d601f19601f8201168201806040525081019061299f9190613e31565b60c0015190506000600660009054906101000a900473ffffffffffffffffffffffffffffffffffffffff1673ffffffffffffffffffffffffffffffffffffffff166370a08231306040518263ffffffff1660e01b8152600401612a02919061379a565b602060405180830381865afa158015612a1f573d6000803e3d6000fd5b505050506040513d601f19601f82011682018060405250810190612a439190613b9a565b905080851115612a63578093508085612a5c9190613ecb565b9250612a8a565b80821115612a86578082612a779190613ecb565b925084831115612a85578492505b5b8493505b5050915091565b600360009054906101000a900473ffffffffffffffffffffffffffffffffffffffff1673ffffffffffffffffffffffffffffffffffffffff163373ffffffffffffffffffffffffffffffffffffffff161480612b1f5750612af0612581565b73ffffffffffffffffffffffffffffffffffffffff163373ffffffffffffffffffffffffffffffffffffffff16145b612b2857600080fd5b565b600560009054906101000a900473ffffffffffffffffffffffffffffffffffffffff1673ffffffffffffffffffffffffffffffffffffffff163373ffffffffffffffffffffffffffffffffffffffff161480612bd35750600360009054906101000a900473ffffffffffffffffffffffffffffffffffffffff1673ffffffffffffffffffffffffffffffffffffffff163373ffffffffffffffffffffffffffffffffffffffff16145b80612c105750612be1612581565b73ffffffffffffffffffffffffffffffffffffffff163373ffffffffffffffffffffffffffffffffffffffff16145b80612cd65750600260009054906101000a900473ffffffffffffffffffffffffffffffffffffffff1673ffffffffffffffffffffffffffffffffffffffff1663452a93206040518163ffffffff1660e01b8152600401602060405180830381865afa158015612c83573d6000803e3d6000fd5b505050506040513d601f19601f82011682018060405250810190612ca79190614521565b73ffffffffffffffffffffffffffffffffffffffff163373ffffffffffffffffffffffffffffffffffffffff16145b80612d9c5750600260009054906101000a900473ffffffffffffffffffffffffffffffffffffffff1673ffffffffffffffffffffffffffffffffffffffff166388a8d6026040518163ffffffff1660e01b8152600401602060405180830381865afa158015612d49573d6000803e3d6000fd5b505050506040513d601f19601f82011682018060405250810190612d6d9190614521565b73ffffffffffffffffffffffffffffffffffffffff163373ffffffffffffffffffffffffffffffffffffffff16145b612da557600080fd5b565b50565b600080600660009054906101000a900473ffffffffffffffffffffffffffffffffffffffff1673ffffffffffffffffffffffffffffffffffffffff166370a08231306040518263ffffffff1660e01b8152600401612e08919061379a565b602060405180830381865afa158015612e25573d6000803e3d6000fd5b505050506040513d601f19601f82011682018060405250810190612e499190613b9a565b90508091505090565b600080600080600660009054906101000a900473ffffffffffffffffffffffffffffffffffffffff1673ffffffffffffffffffffffffffffffffffffffff166370a08231306040518263ffffffff1660e01b8152600401612eb3919061379a565b602060405180830381865afa158015612ed0573d6000803e3d6000fd5b505050506040513d601f19601f82011682018060405250810190612ef49190613b9a565b90506000600260009054906101000a900473ffffffffffffffffffffffffffffffffffffffff1673ffffffffffffffffffffffffffffffffffffffff166339ebf823306040518263ffffffff1660e01b8152600401612f53919061379a565b61012060405180830381865afa158015612f71573d6000803e3d6000fd5b505050506040513d601f19601f82011682018060405250810190612f959190613e31565b60c00151905085821115612fb9578592508582612fb29190613ecb565b9150612fc1565b819250600091505b8281612fcd9190613ecb565b905080821115612fea578082612fe39190613ecb565b9450612ff9565b8181612ff69190613ecb565b93505b50509193909250565b50565b61300d612581565b73ffffffffffffffffffffffffffffffffffffffff163373ffffffffffffffffffffffffffffffffffffffff1614806130935750600360009054906101000a900473ffffffffffffffffffffffffffffffffffffffff1673ffffffffffffffffffffffffffffffffffffffff163373ffffffffffffffffffffffffffffffffffffffff16145b61309c57600080fd5b565b600360009054906101000a900473ffffffffffffffffffffffffffffffffffffffff1673ffffffffffffffffffffffffffffffffffffffff163373ffffffffffffffffffffffffffffffffffffffff16148061312c57506130fd612581565b73ffffffffffffffffffffffffffffffffffffffff163373ffffffffffffffffffffffffffffffffffffffff16145b806131f25750600260009054906101000a900473ffffffffffffffffffffffffffffffffffffffff1673ffffffffffffffffffffffffffffffffffffffff1663452a93206040518163ffffffff1660e01b8152600401602060405180830381865afa15801561319f573d6000803e3d6000fd5b505050506040513d601f19601f820116820180604052508101906131c39190614521565b73ffffffffffffffffffffffffffffffffffffffff163373ffffffffffffffffffffffffffffffffffffffff16145b806132b85750600260009054906101000a900473ffffffffffffffffffffffffffffffffffffffff1673ffffffffffffffffffffffffffffffffffffffff166388a8d6026040518163ffffffff1660e01b8152600401602060405180830381865afa158015613265573d6000803e3d6000fd5b505050506040513d601f19601f820116820180604052508101906132899190614521565b73ffffffffffffffffffffffffffffffffffffffff163373ffffffffffffffffffffffffffffffffffffffff16145b6132c157600080fd5b565b6000613325826040518060400160405280602081526020017f5361666545524332303a206c6f772d6c6576656c2063616c6c206661696c65648152508573ffffffffffffffffffffffffffffffffffffffff166124809092919063ffffffff16565b905060008151111561338557808060200190518101906133459190613f9e565b613384576040517f08c379a000000000000000000000000000000000000000000000000000000000815260040161337b906145e9565b60405180910390fd5b5b505050565b6060824710156133cf576040517f08c379a00000000000000000000000000000000000000000000000000000000081526004016133c69061467b565b60405180910390fd5b6133d88561349e565b613417576040517f08c379a000000000000000000000000000000000000000000000000000000000815260040161340e906146e7565b60405180910390fd5b6000808673ffffffffffffffffffffffffffffffffffffffff168587604051613440919061474e565b60006040518083038185875af1925050503d806000811461347d576040519150601f19603f3d011682016040523d82523d6000602084013e613482565b606091505b50915091506134928282866134c1565b92505050949350505050565b6000808273ffffffffffffffffffffffffffffffffffffffff163b119050919050565b606083156134d157829050613521565b6000835111156134e45782518084602001fd5b816040517f08c379a00000000000000000000000000000000000000000000000000000000081526004016135189190613696565b60405180910390fd5b9392505050565b6000604051905090565b600080fd5b600080fd5b600073ffffffffffffffffffffffffffffffffffffffff82169050919050565b60006135678261353c565b9050919050565b6135778161355c565b811461358257600080fd5b50565b6000813590506135948161356e565b92915050565b6000602082840312156135b0576135af613532565b5b60006135be84828501613585565b91505092915050565b60008115159050919050565b6135dc816135c7565b82525050565b60006020820190506135f760008301846135d3565b92915050565b600081519050919050565b600082825260208201905092915050565b60005b8381101561363757808201518184015260208101905061361c565b83811115613646576000848401525b50505050565b6000601f19601f8301169050919050565b6000613668826135fd565b6136728185613608565b9350613682818560208601613619565b61368b8161364c565b840191505092915050565b600060208201905081810360008301526136b0818461365d565b905092915050565b6136c1816135c7565b81146136cc57600080fd5b50565b6000813590506136de816136b8565b92915050565b6000602082840312156136fa576136f9613532565b5b6000613708848285016136cf565b91505092915050565b6000819050919050565b600061373661373161372c8461353c565b613711565b61353c565b9050919050565b60006137488261371b565b9050919050565b600061375a8261373d565b9050919050565b61376a8161374f565b82525050565b60006020820190506137856000830184613761565b92915050565b6137948161355c565b82525050565b60006020820190506137af600083018461378b565b92915050565b6000819050919050565b6137c8816137b5565b82525050565b60006020820190506137e360008301846137bf565b92915050565b6137f2816137b5565b81146137fd57600080fd5b50565b60008135905061380f816137e9565b92915050565b60006020828403121561382b5761382a613532565b5b600061383984828501613800565b91505092915050565b600080fd5b600080fd5b600080fd5b60008083601f84011261386757613866613842565b5b8235905067ffffffffffffffff81111561388457613883613847565b5b6020830191508360018202830111156138a05761389f61384c565b5b9250929050565b600080602083850312156138be576138bd613532565b5b600083013567ffffffffffffffff8111156138dc576138db613537565b5b6138e885828601613851565b92509250509250929050565b60006138ff8261355c565b9050919050565b61390f816138f4565b811461391a57600080fd5b50565b60008135905061392c81613906565b92915050565b60006020828403121561394857613947613532565b5b60006139568482850161391d565b91505092915050565b600061396a8261373d565b9050919050565b61397a8161395f565b82525050565b60006020820190506139956000830184613971565b92915050565b7f2177616e74000000000000000000000000000000000000000000000000000000600082015250565b60006139d1600583613608565b91506139dc8261399b565b602082019050919050565b60006020820190508181036000830152613a00816139c4565b9050919050565b7f2173686172657300000000000000000000000000000000000000000000000000600082015250565b6000613a3d600783613608565b9150613a4882613a07565b602082019050919050565b60006020820190508181036000830152613a6c81613a30565b9050919050565b7f4e487b7100000000000000000000000000000000000000000000000000000000600052603260045260246000fd5b7f2170726f74656374656400000000000000000000000000000000000000000000600082015250565b6000613ad8600a83613608565b9150613ae382613aa2565b602082019050919050565b60006020820190508181036000830152613b0781613acb565b9050919050565b7f4e487b7100000000000000000000000000000000000000000000000000000000600052601160045260246000fd5b6000613b48826137b5565b91507fffffffffffffffffffffffffffffffffffffffffffffffffffffffffffffffff8203613b7a57613b79613b0e565b5b600182019050919050565b600081519050613b94816137e9565b92915050565b600060208284031215613bb057613baf613532565b5b6000613bbe84828501613b85565b91505092915050565b7f4e487b7100000000000000000000000000000000000000000000000000000000600052602260045260246000fd5b60006002820490506001821680613c0e57607f821691505b602082108103613c2157613c20613bc7565b5b50919050565b600081905092915050565b7f5465737453747261746567792000000000000000000000000000000000000000600082015250565b6000613c68600d83613c27565b9150613c7382613c32565b600d82019050919050565b6000613c89826135fd565b613c938185613c27565b9350613ca3818560208601613619565b80840191505092915050565b6000613cba82613c5b565b9150613cc68284613c7e565b915081905092915050565b600080fd5b7f4e487b7100000000000000000000000000000000000000000000000000000000600052604160045260246000fd5b613d0e8261364c565b810181811067ffffffffffffffff82111715613d2d57613d2c613cd6565b5b80604052505050565b6000613d40613528565b9050613d4c8282613d05565b919050565b60006101208284031215613d6857613d67613cd1565b5b613d73610120613d36565b90506000613d8384828501613b85565b6000830152506020613d9784828501613b85565b6020830152506040613dab84828501613b85565b6040830152506060613dbf84828501613b85565b6060830152506080613dd384828501613b85565b60808301525060a0613de784828501613b85565b60a08301525060c0613dfb84828501613b85565b60c08301525060e0613e0f84828501613b85565b60e083015250610100613e2484828501613b85565b6101008301525092915050565b60006101208284031215613e4857613e47613532565b5b6000613e5684828501613d51565b91505092915050565b7f217661756c740000000000000000000000000000000000000000000000000000600082015250565b6000613e95600683613608565b9150613ea082613e5f565b602082019050919050565b60006020820190508181036000830152613ec481613e88565b9050919050565b6000613ed6826137b5565b9150613ee1836137b5565b925082821015613ef457613ef3613b0e565b5b828203905092915050565b6000606082019050613f1460008301866137bf565b613f2160208301856137bf565b613f2e60408301846137bf565b949350505050565b600060a082019050613f4b60008301886137bf565b613f5860208301876137bf565b613f6560408301866137bf565b613f7260608301856137bf565b613f7f60808301846137bf565b9695505050505050565b600081519050613f98816136b8565b92915050565b600060208284031215613fb457613fb3613532565b5b6000613fc284828501613f89565b91505092915050565b7f216865616c7468636865636b0000000000000000000000000000000000000000600082015250565b6000614001600c83613608565b915061400c82613fcb565b602082019050919050565b6000602082019050818103600083015261403081613ff4565b9050919050565b600060808201905061404c60008301876137bf565b61405960208301866137bf565b61406660408301856137bf565b61407360608301846137bf565b95945050505050565b600082905092915050565b60008190508160005260206000209050919050565b60006020601f8301049050919050565b600082821b905092915050565b6000600883026140e97fffffffffffffffffffffffffffffffffffffffffffffffffffffffffffffffff826140ac565b6140f386836140ac565b95508019841693508086168417925050509392505050565b600061412661412161411c846137b5565b613711565b6137b5565b9050919050565b6000819050919050565b6141408361410b565b61415461414c8261412d565b8484546140b9565b825550505050565b600090565b61416961415c565b614174818484614137565b505050565b5b818110156141985761418d600082614161565b60018101905061417a565b5050565b601f8211156141dd576141ae81614087565b6141b78461409c565b810160208510156141c6578190505b6141da6141d28561409c565b830182614179565b50505b505050565b600082821c905092915050565b6000614200600019846008026141e2565b1980831691505092915050565b600061421983836141ef565b9150826002028217905092915050565b614233838361407c565b67ffffffffffffffff81111561424c5761424b613cd6565b5b6142568254613bf6565b61426182828561419c565b6000601f831160018114614290576000841561427e578287013590505b614288858261420d565b8655506142f0565b601f19841661429e86614087565b60005b828110156142c6578489013582556001820191506020850194506020810190506142a1565b868310156142e357848901356142df601f8916826141ef565b8355505b6001600288020188555050505b50505050505050565b82818337600083830152505050565b60006143148385613608565b93506143218385846142f9565b61432a8361364c565b840190509392505050565b60006020820190508181036000830152614350818486614308565b90509392505050565b60006143648261355c565b9050919050565b61437481614359565b811461437f57600080fd5b50565b6000815190506143918161436b565b92915050565b6000602082840312156143ad576143ac613532565b5b60006143bb84828501614382565b91505092915050565b6000819050919050565b60006143e96143e46143df846143c4565b613711565b6137b5565b9050919050565b6143f9816143ce565b82525050565b6000604082019050614414600083018561378b565b61442160208301846143f0565b9392505050565b600060408201905061443d600083018561378b565b61444a60208301846137bf565b9392505050565b6000604082019050614466600083018561378b565b614473602083018461378b565b9392505050565b7f5361666545524332303a20617070726f76652066726f6d206e6f6e2d7a65726f60008201527f20746f206e6f6e2d7a65726f20616c6c6f77616e636500000000000000000000602082015250565b60006144d6603683613608565b91506144e18261447a565b604082019050919050565b60006020820190508181036000830152614505816144c9565b9050919050565b60008151905061451b8161356e565b92915050565b60006020828403121561453757614536613532565b5b60006145458482850161450c565b91505092915050565b600060408201905061456360008301856137bf565b614570602083018461378b565b9392505050565b7f5361666545524332303a204552433230206f7065726174696f6e20646964206e60008201527f6f74207375636365656400000000000000000000000000000000000000000000602082015250565b60006145d3602a83613608565b91506145de82614577565b604082019050919050565b60006020820190508181036000830152614602816145c6565b9050919050565b7f416464726573733a20696e73756666696369656e742062616c616e636520666f60008201527f722063616c6c0000000000000000000000000000000000000000000000000000602082015250565b6000614665602683613608565b915061467082614609565b604082019050919050565b6000602082019050818103600083015261469481614658565b9050919050565b7f416464726573733a2063616c6c20746f206e6f6e2d636f6e7472616374000000600082015250565b60006146d1601d83613608565b91506146dc8261469b565b602082019050919050565b60006020820190508181036000830152614700816146c4565b9050919050565b600081519050919050565b600081905092915050565b600061472882614707565b6147328185614712565b9350614742818560208601613619565b80840191505092915050565b600061475a828461471d565b91508190509291505056fea26469706673582212201d05f8960350775d289f80c08cf1e53c1e721e42fcf1534a4c85f351f6e7fdd264736f6c634300080f0033","linkReferences":{}},"methodIdentifiers":{"_setWant(address)":"d0e8577d","_takeFunds(uint256)":"fba04a44","_toggleDelegation()":"b30db32c","_toggleReentrancyExploit()":"52052af8","apiVersion()":"25829410","baseFeeOracle()":"826cddf6","creditThreshold()":"aa5480cf","delegateEverything()":"d64a42e9","delegatedAssets()":"8e6350e2","doHealthCheck()":"6718835f","doReentrancy()":"03aaab6f","emergencyExit()":"5641ec03","estimatedTotalAssets()":"efbb5cb0","ethToWant(uint256)":"780022a0","forceHarvestTriggerOnce()":"a763cf5b","harvest()":"4641257d","harvestTrigger(uint256)":"ed882c2b","healthCheck()":"b252720b","isActive()":"22f3e2d4","isBaseFeeAcceptable()":"95326e2d","keeper()":"aced1661","maxReportDelay()":"28b7ccf7","metadataURI()":"03ee438c","migrate(address)":"ce5494bb","minReportDelay()":"95e80c50","name()":"06fdde03","protectedToken()":"d653943a","rewards()":"9ec5a894","setBaseFeeOracle(address)":"9f450b5a","setCreditThreshold(uint256)":"fe2508a6","setDoHealthCheck(bool)":"ac00ff26","setEmergencyExit()":"fcf2d0ad","setForceHarvestTriggerOnce(bool)":"0ada4dab","setHealthCheck(address)":"11bc8245","setKeeper(address)":"748747e6","setMaxReportDelay(uint256)":"f017c92f","setMetadataURI(string)":"750521f5","setMinReportDelay(uint256)":"39a172a8","setRewards(address)":"ec38a862","setStrategist(address)":"c7b9d530","strategist()":"1fe4a686","sweep(address)":"01681a62","tend()":"440368a3","tendTrigger(uint256)":"650d1880","vault()":"fbfa77cf","want()":"1f1fcd51","withdraw(uint256)":"2e1a7d4d"},"id":10}